{"contracts/SingleResponse.sol":{"SingleResponse":{"abi":[{"inputs":[{"internalType":"address","name":"_linkToken","type":"address"},{"internalType":"address","name":"_oracle","type":"address"},{"internalType":"string","name":"_jobId","type":"string"}],"stateMutability":"nonpayable","type":"constructor"},{"anonymous":false,"inputs":[{"indexed":true,"internalType":"bytes32","name":"id","type":"bytes32"}],"name":"ChainlinkCancelled","type":"event"},{"anonymous":false,"inputs":[{"indexed":true,"internalType":"bytes32","name":"id","type":"bytes32"}],"name":"ChainlinkFulfilled","type":"event"},{"anonymous":false,"inputs":[{"indexed":true,"internalType":"bytes32","name":"id","type":"bytes32"}],"name":"ChainlinkRequested","type":"event"},{"anonymous":false,"inputs":[{"indexed":true,"internalType":"address","name":"from","type":"address"},{"indexed":true,"internalType":"address","name":"to","type":"address"}],"name":"OwnershipTransferRequested","type":"event"},{"anonymous":false,"inputs":[{"indexed":true,"internalType":"address","name":"from","type":"address"},{"indexed":true,"internalType":"address","name":"to","type":"address"}],"name":"OwnershipTransferred","type":"event"},{"anonymous":false,"inputs":[{"indexed":true,"internalType":"bytes32","name":"requestId","type":"bytes32"},{"indexed":false,"internalType":"uint256","name":"volume","type":"uint256"}],"name":"RequestVolume","type":"event"},{"inputs":[],"name":"acceptOwnership","outputs":[],"stateMutability":"nonpayable","type":"function"},{"inputs":[],"name":"fee","outputs":[{"internalType":"uint256","name":"","type":"uint256"}],"stateMutability":"view","type":"function"},{"inputs":[{"internalType":"bytes32","name":"_requestId","type":"bytes32"},{"internalType":"uint256","name":"_volume","type":"uint256"}],"name":"fulfill","outputs":[],"stateMutability":"nonpayable","type":"function"},{"inputs":[],"name":"jobId","outputs":[{"internalType":"bytes32","name":"","type":"bytes32"}],"stateMutability":"view","type":"function"},{"inputs":[],"name":"owner","outputs":[{"internalType":"address","name":"","type":"address"}],"stateMutability":"view","type":"function"},{"inputs":[],"name":"requestVolumeData","outputs":[{"internalType":"bytes32","name":"requestId","type":"bytes32"}],"stateMutability":"nonpayable","type":"function"},{"inputs":[{"internalType":"address","name":"to","type":"address"}],"name":"transferOwnership","outputs":[],"stateMutability":"nonpayable","type":"function"},{"inputs":[],"name":"volume","outputs":[{"internalType":"uint256","name":"","type":"uint256"}],"stateMutability":"view","type":"function"},{"inputs":[],"name":"withdrawLink","outputs":[],"stateMutability":"nonpayable","type":"function"}],"evm":{"bytecode":{"linkReferences":{},"object":"608060405260016004553480156200001657600080fd5b50604051620028303803806200283083398181016040528101906200003c919062000576565b338060008073ffffffffffffffffffffffffffffffffffffffff168273ffffffffffffffffffffffffffffffffffffffff1603620000b1576040517f08c379a0000000000000000000000000000000000000000000000000000000008152600401620000a89062000652565b60405180910390fd5b81600660006101000a81548173ffffffffffffffffffffffffffffffffffffffff021916908373ffffffffffffffffffffffffffffffffffffffff160217905550600073ffffffffffffffffffffffffffffffffffffffff168173ffffffffffffffffffffffffffffffffffffffff161462000139576200013881620001c560201b60201c565b5b5050506200014d83620002f660201b60201c565b6200015e826200033a60201b60201c565b80604051602001620001719190620006c1565b6040516020818303038152906040526200018b9062000723565b600981905550600a670de0b6b3a76400006001620001aa9190620007cc565b620001b6919062000846565b600a81905550505050620008f0565b3373ffffffffffffffffffffffffffffffffffffffff168173ffffffffffffffffffffffffffffffffffffffff160362000236576040517f08c379a00000000000000000000000000000000000000000000000000000000081526004016200022d90620008ce565b60405180910390fd5b80600760006101000a81548173ffffffffffffffffffffffffffffffffffffffff021916908373ffffffffffffffffffffffffffffffffffffffff1602179055508073ffffffffffffffffffffffffffffffffffffffff16600660009054906101000a900473ffffffffffffffffffffffffffffffffffffffff1673ffffffffffffffffffffffffffffffffffffffff167fed8889f560326eb138920d842192f0eb3dd22b4f139c87a2c57538e05bae127860405160405180910390a350565b80600260006101000a81548173ffffffffffffffffffffffffffffffffffffffff021916908373ffffffffffffffffffffffffffffffffffffffff16021790555050565b80600360006101000a81548173ffffffffffffffffffffffffffffffffffffffff021916908373ffffffffffffffffffffffffffffffffffffffff16021790555050565b6000604051905090565b600080fd5b600080fd5b600073ffffffffffffffffffffffffffffffffffffffff82169050919050565b6000620003bf8262000392565b9050919050565b620003d181620003b2565b8114620003dd57600080fd5b50565b600081519050620003f181620003c6565b92915050565b600080fd5b600080fd5b6000601f19601f8301169050919050565b7f4e487b7100000000000000000000000000000000000000000000000000000000600052604160045260246000fd5b6200044c8262000401565b810181811067ffffffffffffffff821117156200046e576200046d62000412565b5b80604052505050565b6000620004836200037e565b905062000491828262000441565b919050565b600067ffffffffffffffff821115620004b457620004b362000412565b5b620004bf8262000401565b9050602081019050919050565b60005b83811015620004ec578082015181840152602081019050620004cf565b60008484015250505050565b60006200050f620005098462000496565b62000477565b9050828152602081018484840111156200052e576200052d620003fc565b5b6200053b848285620004cc565b509392505050565b600082601f8301126200055b576200055a620003f7565b5b81516200056d848260208601620004f8565b91505092915050565b60008060006060848603121562000592576200059162000388565b5b6000620005a286828701620003e0565b9350506020620005b586828701620003e0565b925050604084015167ffffffffffffffff811115620005d957620005d86200038d565b5b620005e78682870162000543565b9150509250925092565b600082825260208201905092915050565b7f43616e6e6f7420736574206f776e657220746f207a65726f0000000000000000600082015250565b60006200063a601883620005f1565b9150620006478262000602565b602082019050919050565b600060208201905081810360008301526200066d816200062b565b9050919050565b600081519050919050565b600081905092915050565b6000620006978262000674565b620006a381856200067f565b9350620006b5818560208601620004cc565b80840191505092915050565b6000620006cf82846200068a565b915081905092915050565b600081519050919050565b6000819050602082019050919050565b6000819050919050565b60006200070d8251620006f5565b80915050919050565b600082821b905092915050565b60006200073082620006da565b826200073c84620006e5565b90506200074981620006ff565b925060208210156200078c57620007877fffffffffffffffffffffffffffffffffffffffffffffffffffffffffffffffff8360200360080262000716565b831692505b5050919050565b6000819050919050565b7f4e487b7100000000000000000000000000000000000000000000000000000000600052601160045260246000fd5b6000620007d98262000793565b9150620007e68362000793565b9250828202620007f68162000793565b9150828204841483151762000810576200080f6200079d565b5b5092915050565b7f4e487b7100000000000000000000000000000000000000000000000000000000600052601260045260246000fd5b6000620008538262000793565b9150620008608362000793565b92508262000873576200087262000817565b5b828204905092915050565b7f43616e6e6f74207472616e7366657220746f2073656c66000000000000000000600082015250565b6000620008b6601783620005f1565b9150620008c3826200087e565b602082019050919050565b60006020820190508181036000830152620008e981620008a7565b9050919050565b611f3080620009006000396000f3fe608060405234801561001057600080fd5b50600436106100935760003560e01c80638dc654a2116100665780638dc654a2146100fa578063c2939d9714610104578063c618a1e414610122578063ddca3f4314610140578063f2fde38b1461015e57610093565b80634357855e146100985780636021abac146100b457806379ba5097146100d25780638da5cb5b146100dc575b600080fd5b6100b260048036038101906100ad919061143c565b61017a565b005b6100bc6102c3565b6040516100c9919061148b565b60405180910390f35b6100da610427565b005b6100e46105be565b6040516100f191906114e7565b60405180910390f35b6101026105e8565b005b61010c610735565b604051610119919061148b565b60405180910390f35b61012a61073b565b6040516101379190611511565b60405180910390f35b610148610741565b6040516101559190611511565b60405180910390f35b61017860048036038101906101739190611558565b610747565b005b816005600082815260200190815260200160002060009054906101000a900473ffffffffffffffffffffffffffffffffffffffff1673ffffffffffffffffffffffffffffffffffffffff163373ffffffffffffffffffffffffffffffffffffffff161461021c576040517f08c379a000000000000000000000000000000000000000000000000000000000815260040161021390611608565b60405180910390fd5b6005600082815260200190815260200160002060006101000a81549073ffffffffffffffffffffffffffffffffffffffff0219169055807f7cc135e0cebb02c3480ae5d74d377283180a2601f8f644edf7987b009316c63a60405160405180910390a2827f673b38182859a514d734bdfcb49d3a05c4a641dec9311d9894c9717bcb79af76836040516102af9190611511565b60405180910390a281600881905550505050565b6000806102da60095430634357855e60e01b61075b565b905061033e6040518060400160405280600381526020017f6765740000000000000000000000000000000000000000000000000000000000815250604051806080016040528060498152602001611eb2604991398361078c9092919063ffffffff16565b6103bd6040518060400160405280600481526020017f70617468000000000000000000000000000000000000000000000000000000008152506040518060400160405280601881526020017f5241572c4554482c5553442c564f4c554d453234484f555200000000000000008152508361078c9092919063ffffffff16565b6000670de0b6b3a764000090506104146040518060400160405280600581526020017f74696d657300000000000000000000000000000000000000000000000000000081525082846107bf9092919063ffffffff16565b61042082600a546107f2565b9250505090565b600760009054906101000a900473ffffffffffffffffffffffffffffffffffffffff1673ffffffffffffffffffffffffffffffffffffffff163373ffffffffffffffffffffffffffffffffffffffff16146104b7576040517f08c379a00000000000000000000000000000000000000000000000000000000081526004016104ae90611674565b60405180910390fd5b6000600660009054906101000a900473ffffffffffffffffffffffffffffffffffffffff16905033600660006101000a81548173ffffffffffffffffffffffffffffffffffffffff021916908373ffffffffffffffffffffffffffffffffffffffff1602179055506000600760006101000a81548173ffffffffffffffffffffffffffffffffffffffff021916908373ffffffffffffffffffffffffffffffffffffffff1602179055503373ffffffffffffffffffffffffffffffffffffffff168173ffffffffffffffffffffffffffffffffffffffff167f8be0079c531659141344cd1fd0a4f28419497f9722a3daafe3b4186f6b6457e060405160405180910390a350565b6000600660009054906101000a900473ffffffffffffffffffffffffffffffffffffffff16905090565b6105f0610829565b60006105fa6108bb565b90508073ffffffffffffffffffffffffffffffffffffffff1663a9059cbb338373ffffffffffffffffffffffffffffffffffffffff166370a08231306040518263ffffffff1660e01b815260040161065291906114e7565b602060405180830381865afa15801561066f573d6000803e3d6000fd5b505050506040513d601f19601f8201168201806040525081019061069391906116a9565b6040518363ffffffff1660e01b81526004016106b09291906116d6565b6020604051808303816000875af11580156106cf573d6000803e3d6000fd5b505050506040513d601f19601f820116820180604052508101906106f39190611737565b610732576040517f08c379a0000000000000000000000000000000000000000000000000000000008152600401610729906117b0565b60405180910390fd5b50565b60095481565b60085481565b600a5481565b61074f610829565b610758816108e5565b50565b610763611344565b61076b611344565b61078285858584610a13909392919063ffffffff16565b9150509392505050565b6107a3828460800151610ac390919063ffffffff16565b6107ba818460800151610ac390919063ffffffff16565b505050565b6107d6828460800151610ac390919063ffffffff16565b6107ed818460800151610ae890919063ffffffff16565b505050565b6000610821600360009054906101000a900473ffffffffffffffffffffffffffffffffffffffff168484610b95565b905092915050565b600660009054906101000a900473ffffffffffffffffffffffffffffffffffffffff1673ffffffffffffffffffffffffffffffffffffffff163373ffffffffffffffffffffffffffffffffffffffff16146108b9576040517f08c379a00000000000000000000000000000000000000000000000000000000081526004016108b09061181c565b60405180910390fd5b565b6000600260009054906101000a900473ffffffffffffffffffffffffffffffffffffffff16905090565b3373ffffffffffffffffffffffffffffffffffffffff168173ffffffffffffffffffffffffffffffffffffffff1603610953576040517f08c379a000000000000000000000000000000000000000000000000000000000815260040161094a90611888565b60405180910390fd5b80600760006101000a81548173ffffffffffffffffffffffffffffffffffffffff021916908373ffffffffffffffffffffffffffffffffffffffff1602179055508073ffffffffffffffffffffffffffffffffffffffff16600660009054906101000a900473ffffffffffffffffffffffffffffffffffffffff1673ffffffffffffffffffffffffffffffffffffffff167fed8889f560326eb138920d842192f0eb3dd22b4f139c87a2c57538e05bae127860405160405180910390a350565b610a1b611344565b610a2b8560800151610100610c61565b508385600001818152505082856020019073ffffffffffffffffffffffffffffffffffffffff16908173ffffffffffffffffffffffffffffffffffffffff16815250508185604001907bffffffffffffffffffffffffffffffffffffffffffffffffffffffff191690817bffffffffffffffffffffffffffffffffffffffffffffffffffffffff191681525050849050949350505050565b610ad08260038351610ccb565b610ae38183610e5090919063ffffffff16565b505050565b7fffffffffffffffffffffffffffffffffffffffffffffffff0000000000000000811215610b1f57610b1a8282610e72565b610b91565b67ffffffffffffffff811315610b3e57610b398282610ee9565b610b90565b60008112610b5757610b5282600083610ccb565b610b8f565b610b8e826001837fffffffffffffffffffffffffffffffffffffffffffffffffffffffffffffffff610b8991906118e1565b610ccb565b5b5b5b5050565b6000806004549050600181610baa9190611924565b6004819055506000634042994660e01b60008087600001513089604001518760018c6080015160000151604051602401610beb989796959493929190611a23565b604051602081830303815290604052907bffffffffffffffffffffffffffffffffffffffffffffffffffffffff19166020820180517bffffffffffffffffffffffffffffffffffffffffffffffffffffffff83818316178352505050509050610c5686838684610f35565b925050509392505050565b610c696113b1565b6000602083610c789190611ad7565b14610ca457602082610c8a9190611ad7565b6020610c969190611b08565b82610ca19190611924565b91505b81836020018181525050604051808452600081528281016020016040525082905092915050565b60178167ffffffffffffffff1611610d0257610cfc8160058460ff16901b60ff1617846110ca90919063ffffffff16565b50610e4b565b60ff8167ffffffffffffffff1611610d5857610d31601860058460ff16901b17846110ca90919063ffffffff16565b50610d528167ffffffffffffffff166001856110ea9092919063ffffffff16565b50610e4a565b61ffff8167ffffffffffffffff1611610daf57610d88601960058460ff16901b17846110ca90919063ffffffff16565b50610da98167ffffffffffffffff166002856110ea9092919063ffffffff16565b50610e49565b63ffffffff8167ffffffffffffffff1611610e0857610de1601a60058460ff16901b17846110ca90919063ffffffff16565b50610e028167ffffffffffffffff166004856110ea9092919063ffffffff16565b50610e48565b610e25601b60058460ff16901b17846110ca90919063ffffffff16565b50610e468167ffffffffffffffff166008856110ea9092919063ffffffff16565b505b5b5b5b505050565b610e586113b1565b610e6a8384600001515184855161110c565b905092915050565b610e9060036005600660ff16901b17836110ca90919063ffffffff16565b50610ee582827fffffffffffffffffffffffffffffffffffffffffffffffffffffffffffffffff610ec191906118e1565b604051602001610ed19190611511565b6040516020818303038152906040526111fb565b5050565b610f0760026005600660ff16901b17836110ca90919063ffffffff16565b50610f318282604051602001610f1d9190611511565b6040516020818303038152906040526111fb565b5050565b60003084604051602001610f4a929190611bf5565b604051602081830303815290604052805190602001209050846005600083815260200190815260200160002060006101000a81548173ffffffffffffffffffffffffffffffffffffffff021916908373ffffffffffffffffffffffffffffffffffffffff160217905550807fb5e6e01e79f91267dc17b4e6314d5d4d03593d2ceee0fbb452b750bd70ea5af960405160405180910390a2600260009054906101000a900473ffffffffffffffffffffffffffffffffffffffff1673ffffffffffffffffffffffffffffffffffffffff16634000aea08685856040518463ffffffff1660e01b815260040161104093929190611c21565b6020604051808303816000875af115801561105f573d6000803e3d6000fd5b505050506040513d601f19601f820116820180604052508101906110839190611737565b6110c2576040517f08c379a00000000000000000000000000000000000000000000000000000000081526004016110b990611cd1565b60405180910390fd5b949350505050565b6110d26113b1565b6110e28384600001515184611220565b905092915050565b6110f26113b1565b611103848560000151518585611276565b90509392505050565b6111146113b1565b825182111561112257600080fd5b846020015182856111339190611924565b111561116857611167856002611158886020015188876111539190611924565b611304565b6111629190611cf1565b611320565b5b6000808651805187602083010193508088870111156111875787860182525b60208701925050505b602084106111ce57805182526020826111a99190611924565b91506020816111b89190611924565b90506020846111c79190611b08565b9350611190565b60006001856020036101000a03905080198251168184511681811785525050508692505050949350505050565b6112088260028351610ccb565b61121b8183610e5090919063ffffffff16565b505050565b6112286113b1565b8360200151831061124e5761124d84600286602001516112489190611cf1565b611320565b5b83518051602085830101848153818603611269576001820183525b5050508390509392505050565b61127e6113b1565b8460200151848361128f9190611924565b11156112b7576112b685600286856112a79190611924565b6112b19190611cf1565b611320565b5b60006001836101006112c99190611e66565b6112d39190611b08565b905085518386820101858319825116178152815185880111156112f65784870182525b505085915050949350505050565b6000818311156113165782905061131a565b8190505b92915050565b6000826000015190506113338383610c61565b5061133e8382610e50565b50505050565b6040518060a0016040528060008019168152602001600073ffffffffffffffffffffffffffffffffffffffff16815260200160007bffffffffffffffffffffffffffffffffffffffffffffffffffffffff19168152602001600081526020016113ab6113b1565b81525090565b604051806040016040528060608152602001600081525090565b600080fd5b6000819050919050565b6113e3816113d0565b81146113ee57600080fd5b50565b600081359050611400816113da565b92915050565b6000819050919050565b61141981611406565b811461142457600080fd5b50565b60008135905061143681611410565b92915050565b60008060408385031215611453576114526113cb565b5b6000611461858286016113f1565b925050602061147285828601611427565b9150509250929050565b611485816113d0565b82525050565b60006020820190506114a0600083018461147c565b92915050565b600073ffffffffffffffffffffffffffffffffffffffff82169050919050565b60006114d1826114a6565b9050919050565b6114e1816114c6565b82525050565b60006020820190506114fc60008301846114d8565b92915050565b61150b81611406565b82525050565b60006020820190506115266000830184611502565b92915050565b611535816114c6565b811461154057600080fd5b50565b6000813590506115528161152c565b92915050565b60006020828403121561156e5761156d6113cb565b5b600061157c84828501611543565b91505092915050565b600082825260208201905092915050565b7f536f75726365206d75737420626520746865206f7261636c65206f662074686560008201527f2072657175657374000000000000000000000000000000000000000000000000602082015250565b60006115f2602883611585565b91506115fd82611596565b604082019050919050565b60006020820190508181036000830152611621816115e5565b9050919050565b7f4d7573742062652070726f706f736564206f776e657200000000000000000000600082015250565b600061165e601683611585565b915061166982611628565b602082019050919050565b6000602082019050818103600083015261168d81611651565b9050919050565b6000815190506116a381611410565b92915050565b6000602082840312156116bf576116be6113cb565b5b60006116cd84828501611694565b91505092915050565b60006040820190506116eb60008301856114d8565b6116f86020830184611502565b9392505050565b60008115159050919050565b611714816116ff565b811461171f57600080fd5b50565b6000815190506117318161170b565b92915050565b60006020828403121561174d5761174c6113cb565b5b600061175b84828501611722565b91505092915050565b7f556e61626c6520746f207472616e736665720000000000000000000000000000600082015250565b600061179a601283611585565b91506117a582611764565b602082019050919050565b600060208201905081810360008301526117c98161178d565b9050919050565b7f4f6e6c792063616c6c61626c65206279206f776e657200000000000000000000600082015250565b6000611806601683611585565b9150611811826117d0565b602082019050919050565b60006020820190508181036000830152611835816117f9565b9050919050565b7f43616e6e6f74207472616e7366657220746f2073656c66000000000000000000600082015250565b6000611872601783611585565b915061187d8261183c565b602082019050919050565b600060208201905081810360008301526118a181611865565b9050919050565b6000819050919050565b7f4e487b7100000000000000000000000000000000000000000000000000000000600052601160045260246000fd5b60006118ec826118a8565b91506118f7836118a8565b925082820390508181126000841216828213600085121516171561191e5761191d6118b2565b5b92915050565b600061192f82611406565b915061193a83611406565b9250828201905080821115611952576119516118b2565b5b92915050565b60007fffffffff0000000000000000000000000000000000000000000000000000000082169050919050565b61198d81611958565b82525050565b600081519050919050565b600082825260208201905092915050565b60005b838110156119cd5780820151818401526020810190506119b2565b60008484015250505050565b6000601f19601f8301169050919050565b60006119f582611993565b6119ff818561199e565b9350611a0f8185602086016119af565b611a18816119d9565b840191505092915050565b600061010082019050611a39600083018b6114d8565b611a46602083018a611502565b611a53604083018961147c565b611a6060608301886114d8565b611a6d6080830187611984565b611a7a60a0830186611502565b611a8760c0830185611502565b81810360e0830152611a9981846119ea565b90509998505050505050505050565b7f4e487b7100000000000000000000000000000000000000000000000000000000600052601260045260246000fd5b6000611ae282611406565b9150611aed83611406565b925082611afd57611afc611aa8565b5b828206905092915050565b6000611b1382611406565b9150611b1e83611406565b9250828203905081811115611b3657611b356118b2565b5b92915050565b6000819050919050565b6000611b61611b5c611b57846114a6565b611b3c565b6114a6565b9050919050565b6000611b7382611b46565b9050919050565b6000611b8582611b68565b9050919050565b60008160601b9050919050565b6000611ba482611b8c565b9050919050565b6000611bb682611b99565b9050919050565b611bce611bc982611b7a565b611bab565b82525050565b6000819050919050565b611bef611bea82611406565b611bd4565b82525050565b6000611c018285611bbd565b601482019150611c118284611bde565b6020820191508190509392505050565b6000606082019050611c3660008301866114d8565b611c436020830185611502565b8181036040830152611c5581846119ea565b9050949350505050565b7f756e61626c6520746f207472616e73666572416e6443616c6c20746f206f726160008201527f636c650000000000000000000000000000000000000000000000000000000000602082015250565b6000611cbb602383611585565b9150611cc682611c5f565b604082019050919050565b60006020820190508181036000830152611cea81611cae565b9050919050565b6000611cfc82611406565b9150611d0783611406565b9250828202611d1581611406565b91508282048414831517611d2c57611d2b6118b2565b5b5092915050565b60008160011c9050919050565b6000808291508390505b6001851115611d8a57808604811115611d6657611d656118b2565b5b6001851615611d755780820291505b8081029050611d8385611d33565b9450611d4a565b94509492505050565b600082611da35760019050611e5f565b81611db15760009050611e5f565b8160018114611dc75760028114611dd157611e00565b6001915050611e5f565b60ff841115611de357611de26118b2565b5b8360020a915084821115611dfa57611df96118b2565b5b50611e5f565b5060208310610133831016604e8410600b8410161715611e355782820a905083811115611e3057611e2f6118b2565b5b611e5f565b611e428484846001611d40565b92509050818404811115611e5957611e586118b2565b5b81810290505b9392505050565b6000611e7182611406565b9150611e7c83611406565b9250611ea97fffffffffffffffffffffffffffffffffffffffffffffffffffffffffffffffff8484611d93565b90509291505056fe68747470733a2f2f6d696e2d6170692e63727970746f636f6d706172652e636f6d2f646174612f70726963656d756c746966756c6c3f6673796d733d455448267473796d733d555344a264697066735822122059f18eb40b09b6532d7cee308296a9888e537776718547211fac0714c8e3c00664736f6c63430008130033","opcodes":"PUSH1 0x80 PUSH1 0x40 MSTORE PUSH1 0x1 PUSH1 0x4 SSTORE CALLVALUE DUP1 ISZERO PUSH3 0x16 JUMPI PUSH1 0x0 DUP1 REVERT JUMPDEST POP PUSH1 0x40 MLOAD PUSH3 0x2830 CODESIZE SUB DUP1 PUSH3 0x2830 DUP4 CODECOPY DUP2 DUP2 ADD PUSH1 0x40 MSTORE DUP2 ADD SWAP1 PUSH3 0x3C SWAP2 SWAP1 PUSH3 0x576 JUMP JUMPDEST CALLER DUP1 PUSH1 0x0 DUP1 PUSH20 0xFFFFFFFFFFFFFFFFFFFFFFFFFFFFFFFFFFFFFFFF AND DUP3 PUSH20 0xFFFFFFFFFFFFFFFFFFFFFFFFFFFFFFFFFFFFFFFF AND SUB PUSH3 0xB1 JUMPI PUSH1 0x40 MLOAD PUSH32 0x8C379A000000000000000000000000000000000000000000000000000000000 DUP2 MSTORE PUSH1 0x4 ADD PUSH3 0xA8 SWAP1 PUSH3 0x652 JUMP JUMPDEST PUSH1 0x40 MLOAD DUP1 SWAP2 SUB SWAP1 REVERT JUMPDEST DUP2 PUSH1 0x6 PUSH1 0x0 PUSH2 0x100 EXP DUP2 SLOAD DUP2 PUSH20 0xFFFFFFFFFFFFFFFFFFFFFFFFFFFFFFFFFFFFFFFF MUL NOT AND SWAP1 DUP4 PUSH20 0xFFFFFFFFFFFFFFFFFFFFFFFFFFFFFFFFFFFFFFFF AND MUL OR SWAP1 SSTORE POP PUSH1 0x0 PUSH20 0xFFFFFFFFFFFFFFFFFFFFFFFFFFFFFFFFFFFFFFFF AND DUP2 PUSH20 0xFFFFFFFFFFFFFFFFFFFFFFFFFFFFFFFFFFFFFFFF AND EQ PUSH3 0x139 JUMPI PUSH3 0x138 DUP2 PUSH3 0x1C5 PUSH1 0x20 SHL PUSH1 0x20 SHR JUMP JUMPDEST JUMPDEST POP POP POP PUSH3 0x14D DUP4 PUSH3 0x2F6 PUSH1 0x20 SHL PUSH1 0x20 SHR JUMP JUMPDEST PUSH3 0x15E DUP3 PUSH3 0x33A PUSH1 0x20 SHL PUSH1 0x20 SHR JUMP JUMPDEST DUP1 PUSH1 0x40 MLOAD PUSH1 0x20 ADD PUSH3 0x171 SWAP2 SWAP1 PUSH3 0x6C1 JUMP JUMPDEST PUSH1 0x40 MLOAD PUSH1 0x20 DUP2 DUP4 SUB SUB DUP2 MSTORE SWAP1 PUSH1 0x40 MSTORE PUSH3 0x18B SWAP1 PUSH3 0x723 JUMP JUMPDEST PUSH1 0x9 DUP2 SWAP1 SSTORE POP PUSH1 0xA PUSH8 0xDE0B6B3A7640000 PUSH1 0x1 PUSH3 0x1AA SWAP2 SWAP1 PUSH3 0x7CC JUMP JUMPDEST PUSH3 0x1B6 SWAP2 SWAP1 PUSH3 0x846 JUMP JUMPDEST PUSH1 0xA DUP2 SWAP1 SSTORE POP POP POP POP PUSH3 0x8F0 JUMP JUMPDEST CALLER PUSH20 0xFFFFFFFFFFFFFFFFFFFFFFFFFFFFFFFFFFFFFFFF AND DUP2 PUSH20 0xFFFFFFFFFFFFFFFFFFFFFFFFFFFFFFFFFFFFFFFF AND SUB PUSH3 0x236 JUMPI PUSH1 0x40 MLOAD PUSH32 0x8C379A000000000000000000000000000000000000000000000000000000000 DUP2 MSTORE PUSH1 0x4 ADD PUSH3 0x22D SWAP1 PUSH3 0x8CE JUMP JUMPDEST PUSH1 0x40 MLOAD DUP1 SWAP2 SUB SWAP1 REVERT JUMPDEST DUP1 PUSH1 0x7 PUSH1 0x0 PUSH2 0x100 EXP DUP2 SLOAD DUP2 PUSH20 0xFFFFFFFFFFFFFFFFFFFFFFFFFFFFFFFFFFFFFFFF MUL NOT AND SWAP1 DUP4 PUSH20 0xFFFFFFFFFFFFFFFFFFFFFFFFFFFFFFFFFFFFFFFF AND MUL OR SWAP1 SSTORE POP DUP1 PUSH20 0xFFFFFFFFFFFFFFFFFFFFFFFFFFFFFFFFFFFFFFFF AND PUSH1 0x6 PUSH1 0x0 SWAP1 SLOAD SWAP1 PUSH2 0x100 EXP SWAP1 DIV PUSH20 0xFFFFFFFFFFFFFFFFFFFFFFFFFFFFFFFFFFFFFFFF AND PUSH20 0xFFFFFFFFFFFFFFFFFFFFFFFFFFFFFFFFFFFFFFFF AND PUSH32 0xED8889F560326EB138920D842192F0EB3DD22B4F139C87A2C57538E05BAE1278 PUSH1 0x40 MLOAD PUSH1 0x40 MLOAD DUP1 SWAP2 SUB SWAP1 LOG3 POP JUMP JUMPDEST DUP1 PUSH1 0x2 PUSH1 0x0 PUSH2 0x100 EXP DUP2 SLOAD DUP2 PUSH20 0xFFFFFFFFFFFFFFFFFFFFFFFFFFFFFFFFFFFFFFFF MUL NOT AND SWAP1 DUP4 PUSH20 0xFFFFFFFFFFFFFFFFFFFFFFFFFFFFFFFFFFFFFFFF AND MUL OR SWAP1 SSTORE POP POP JUMP JUMPDEST DUP1 PUSH1 0x3 PUSH1 0x0 PUSH2 0x100 EXP DUP2 SLOAD DUP2 PUSH20 0xFFFFFFFFFFFFFFFFFFFFFFFFFFFFFFFFFFFFFFFF MUL NOT AND SWAP1 DUP4 PUSH20 0xFFFFFFFFFFFFFFFFFFFFFFFFFFFFFFFFFFFFFFFF AND MUL OR SWAP1 SSTORE POP POP JUMP JUMPDEST PUSH1 0x0 PUSH1 0x40 MLOAD SWAP1 POP SWAP1 JUMP JUMPDEST PUSH1 0x0 DUP1 REVERT JUMPDEST PUSH1 0x0 DUP1 REVERT JUMPDEST PUSH1 0x0 PUSH20 0xFFFFFFFFFFFFFFFFFFFFFFFFFFFFFFFFFFFFFFFF DUP3 AND SWAP1 POP SWAP2 SWAP1 POP JUMP JUMPDEST PUSH1 0x0 PUSH3 0x3BF DUP3 PUSH3 0x392 JUMP JUMPDEST SWAP1 POP SWAP2 SWAP1 POP JUMP JUMPDEST PUSH3 0x3D1 DUP2 PUSH3 0x3B2 JUMP JUMPDEST DUP2 EQ PUSH3 0x3DD JUMPI PUSH1 0x0 DUP1 REVERT JUMPDEST POP JUMP JUMPDEST PUSH1 0x0 DUP2 MLOAD SWAP1 POP PUSH3 0x3F1 DUP2 PUSH3 0x3C6 JUMP JUMPDEST SWAP3 SWAP2 POP POP JUMP JUMPDEST PUSH1 0x0 DUP1 REVERT JUMPDEST PUSH1 0x0 DUP1 REVERT JUMPDEST PUSH1 0x0 PUSH1 0x1F NOT PUSH1 0x1F DUP4 ADD AND SWAP1 POP SWAP2 SWAP1 POP JUMP JUMPDEST PUSH32 0x4E487B7100000000000000000000000000000000000000000000000000000000 PUSH1 0x0 MSTORE PUSH1 0x41 PUSH1 0x4 MSTORE PUSH1 0x24 PUSH1 0x0 REVERT JUMPDEST PUSH3 0x44C DUP3 PUSH3 0x401 JUMP JUMPDEST DUP2 ADD DUP2 DUP2 LT PUSH8 0xFFFFFFFFFFFFFFFF DUP3 GT OR ISZERO PUSH3 0x46E JUMPI PUSH3 0x46D PUSH3 0x412 JUMP JUMPDEST JUMPDEST DUP1 PUSH1 0x40 MSTORE POP POP POP JUMP JUMPDEST PUSH1 0x0 PUSH3 0x483 PUSH3 0x37E JUMP JUMPDEST SWAP1 POP PUSH3 0x491 DUP3 DUP3 PUSH3 0x441 JUMP JUMPDEST SWAP2 SWAP1 POP JUMP JUMPDEST PUSH1 0x0 PUSH8 0xFFFFFFFFFFFFFFFF DUP3 GT ISZERO PUSH3 0x4B4 JUMPI PUSH3 0x4B3 PUSH3 0x412 JUMP JUMPDEST JUMPDEST PUSH3 0x4BF DUP3 PUSH3 0x401 JUMP JUMPDEST SWAP1 POP PUSH1 0x20 DUP2 ADD SWAP1 POP SWAP2 SWAP1 POP JUMP JUMPDEST PUSH1 0x0 JUMPDEST DUP4 DUP2 LT ISZERO PUSH3 0x4EC JUMPI DUP1 DUP3 ADD MLOAD DUP2 DUP5 ADD MSTORE PUSH1 0x20 DUP2 ADD SWAP1 POP PUSH3 0x4CF JUMP JUMPDEST PUSH1 0x0 DUP5 DUP5 ADD MSTORE POP POP POP POP JUMP JUMPDEST PUSH1 0x0 PUSH3 0x50F PUSH3 0x509 DUP5 PUSH3 0x496 JUMP JUMPDEST PUSH3 0x477 JUMP JUMPDEST SWAP1 POP DUP3 DUP2 MSTORE PUSH1 0x20 DUP2 ADD DUP5 DUP5 DUP5 ADD GT ISZERO PUSH3 0x52E JUMPI PUSH3 0x52D PUSH3 0x3FC JUMP JUMPDEST JUMPDEST PUSH3 0x53B DUP5 DUP3 DUP6 PUSH3 0x4CC JUMP JUMPDEST POP SWAP4 SWAP3 POP POP POP JUMP JUMPDEST PUSH1 0x0 DUP3 PUSH1 0x1F DUP4 ADD SLT PUSH3 0x55B JUMPI PUSH3 0x55A PUSH3 0x3F7 JUMP JUMPDEST JUMPDEST DUP2 MLOAD PUSH3 0x56D DUP5 DUP3 PUSH1 0x20 DUP7 ADD PUSH3 0x4F8 JUMP JUMPDEST SWAP2 POP POP SWAP3 SWAP2 POP POP JUMP JUMPDEST PUSH1 0x0 DUP1 PUSH1 0x0 PUSH1 0x60 DUP5 DUP7 SUB SLT ISZERO PUSH3 0x592 JUMPI PUSH3 0x591 PUSH3 0x388 JUMP JUMPDEST JUMPDEST PUSH1 0x0 PUSH3 0x5A2 DUP7 DUP3 DUP8 ADD PUSH3 0x3E0 JUMP JUMPDEST SWAP4 POP POP PUSH1 0x20 PUSH3 0x5B5 DUP7 DUP3 DUP8 ADD PUSH3 0x3E0 JUMP JUMPDEST SWAP3 POP POP PUSH1 0x40 DUP5 ADD MLOAD PUSH8 0xFFFFFFFFFFFFFFFF DUP2 GT ISZERO PUSH3 0x5D9 JUMPI PUSH3 0x5D8 PUSH3 0x38D JUMP JUMPDEST JUMPDEST PUSH3 0x5E7 DUP7 DUP3 DUP8 ADD PUSH3 0x543 JUMP JUMPDEST SWAP2 POP POP SWAP3 POP SWAP3 POP SWAP3 JUMP JUMPDEST PUSH1 0x0 DUP3 DUP3 MSTORE PUSH1 0x20 DUP3 ADD SWAP1 POP SWAP3 SWAP2 POP POP JUMP JUMPDEST PUSH32 0x43616E6E6F7420736574206F776E657220746F207A65726F0000000000000000 PUSH1 0x0 DUP3 ADD MSTORE POP JUMP JUMPDEST PUSH1 0x0 PUSH3 0x63A PUSH1 0x18 DUP4 PUSH3 0x5F1 JUMP JUMPDEST SWAP2 POP PUSH3 0x647 DUP3 PUSH3 0x602 JUMP JUMPDEST PUSH1 0x20 DUP3 ADD SWAP1 POP SWAP2 SWAP1 POP JUMP JUMPDEST PUSH1 0x0 PUSH1 0x20 DUP3 ADD SWAP1 POP DUP2 DUP2 SUB PUSH1 0x0 DUP4 ADD MSTORE PUSH3 0x66D DUP2 PUSH3 0x62B JUMP JUMPDEST SWAP1 POP SWAP2 SWAP1 POP JUMP JUMPDEST PUSH1 0x0 DUP2 MLOAD SWAP1 POP SWAP2 SWAP1 POP JUMP JUMPDEST PUSH1 0x0 DUP2 SWAP1 POP SWAP3 SWAP2 POP POP JUMP JUMPDEST PUSH1 0x0 PUSH3 0x697 DUP3 PUSH3 0x674 JUMP JUMPDEST PUSH3 0x6A3 DUP2 DUP6 PUSH3 0x67F JUMP JUMPDEST SWAP4 POP PUSH3 0x6B5 DUP2 DUP6 PUSH1 0x20 DUP7 ADD PUSH3 0x4CC JUMP JUMPDEST DUP1 DUP5 ADD SWAP2 POP POP SWAP3 SWAP2 POP POP JUMP JUMPDEST PUSH1 0x0 PUSH3 0x6CF DUP3 DUP5 PUSH3 0x68A JUMP JUMPDEST SWAP2 POP DUP2 SWAP1 POP SWAP3 SWAP2 POP POP JUMP JUMPDEST PUSH1 0x0 DUP2 MLOAD SWAP1 POP SWAP2 SWAP1 POP JUMP JUMPDEST PUSH1 0x0 DUP2 SWAP1 POP PUSH1 0x20 DUP3 ADD SWAP1 POP SWAP2 SWAP1 POP JUMP JUMPDEST PUSH1 0x0 DUP2 SWAP1 POP SWAP2 SWAP1 POP JUMP JUMPDEST PUSH1 0x0 PUSH3 0x70D DUP3 MLOAD PUSH3 0x6F5 JUMP JUMPDEST DUP1 SWAP2 POP POP SWAP2 SWAP1 POP JUMP JUMPDEST PUSH1 0x0 DUP3 DUP3 SHL SWAP1 POP SWAP3 SWAP2 POP POP JUMP JUMPDEST PUSH1 0x0 PUSH3 0x730 DUP3 PUSH3 0x6DA JUMP JUMPDEST DUP3 PUSH3 0x73C DUP5 PUSH3 0x6E5 JUMP JUMPDEST SWAP1 POP PUSH3 0x749 DUP2 PUSH3 0x6FF JUMP JUMPDEST SWAP3 POP PUSH1 0x20 DUP3 LT ISZERO PUSH3 0x78C JUMPI PUSH3 0x787 PUSH32 0xFFFFFFFFFFFFFFFFFFFFFFFFFFFFFFFFFFFFFFFFFFFFFFFFFFFFFFFFFFFFFFFF DUP4 PUSH1 0x20 SUB PUSH1 0x8 MUL PUSH3 0x716 JUMP JUMPDEST DUP4 AND SWAP3 POP JUMPDEST POP POP SWAP2 SWAP1 POP JUMP JUMPDEST PUSH1 0x0 DUP2 SWAP1 POP SWAP2 SWAP1 POP JUMP JUMPDEST PUSH32 0x4E487B7100000000000000000000000000000000000000000000000000000000 PUSH1 0x0 MSTORE PUSH1 0x11 PUSH1 0x4 MSTORE PUSH1 0x24 PUSH1 0x0 REVERT JUMPDEST PUSH1 0x0 PUSH3 0x7D9 DUP3 PUSH3 0x793 JUMP JUMPDEST SWAP2 POP PUSH3 0x7E6 DUP4 PUSH3 0x793 JUMP JUMPDEST SWAP3 POP DUP3 DUP3 MUL PUSH3 0x7F6 DUP2 PUSH3 0x793 JUMP JUMPDEST SWAP2 POP DUP3 DUP3 DIV DUP5 EQ DUP4 ISZERO OR PUSH3 0x810 JUMPI PUSH3 0x80F PUSH3 0x79D JUMP JUMPDEST JUMPDEST POP SWAP3 SWAP2 POP POP JUMP JUMPDEST PUSH32 0x4E487B7100000000000000000000000000000000000000000000000000000000 PUSH1 0x0 MSTORE PUSH1 0x12 PUSH1 0x4 MSTORE PUSH1 0x24 PUSH1 0x0 REVERT JUMPDEST PUSH1 0x0 PUSH3 0x853 DUP3 PUSH3 0x793 JUMP JUMPDEST SWAP2 POP PUSH3 0x860 DUP4 PUSH3 0x793 JUMP JUMPDEST SWAP3 POP DUP3 PUSH3 0x873 JUMPI PUSH3 0x872 PUSH3 0x817 JUMP JUMPDEST JUMPDEST DUP3 DUP3 DIV SWAP1 POP SWAP3 SWAP2 POP POP JUMP JUMPDEST PUSH32 0x43616E6E6F74207472616E7366657220746F2073656C66000000000000000000 PUSH1 0x0 DUP3 ADD MSTORE POP JUMP JUMPDEST PUSH1 0x0 PUSH3 0x8B6 PUSH1 0x17 DUP4 PUSH3 0x5F1 JUMP JUMPDEST SWAP2 POP PUSH3 0x8C3 DUP3 PUSH3 0x87E JUMP JUMPDEST PUSH1 0x20 DUP3 ADD SWAP1 POP SWAP2 SWAP1 POP JUMP JUMPDEST PUSH1 0x0 PUSH1 0x20 DUP3 ADD SWAP1 POP DUP2 DUP2 SUB PUSH1 0x0 DUP4 ADD MSTORE PUSH3 0x8E9 DUP2 PUSH3 0x8A7 JUMP JUMPDEST SWAP1 POP SWAP2 SWAP1 POP JUMP JUMPDEST PUSH2 0x1F30 DUP1 PUSH3 0x900 PUSH1 0x0 CODECOPY PUSH1 0x0 RETURN INVALID PUSH1 0x80 PUSH1 0x40 MSTORE CALLVALUE DUP1 ISZERO PUSH2 0x10 JUMPI PUSH1 0x0 DUP1 REVERT JUMPDEST POP PUSH1 0x4 CALLDATASIZE LT PUSH2 0x93 JUMPI PUSH1 0x0 CALLDATALOAD PUSH1 0xE0 SHR DUP1 PUSH4 0x8DC654A2 GT PUSH2 0x66 JUMPI DUP1 PUSH4 0x8DC654A2 EQ PUSH2 0xFA JUMPI DUP1 PUSH4 0xC2939D97 EQ PUSH2 0x104 JUMPI DUP1 PUSH4 0xC618A1E4 EQ PUSH2 0x122 JUMPI DUP1 PUSH4 0xDDCA3F43 EQ PUSH2 0x140 JUMPI DUP1 PUSH4 0xF2FDE38B EQ PUSH2 0x15E JUMPI PUSH2 0x93 JUMP JUMPDEST DUP1 PUSH4 0x4357855E EQ PUSH2 0x98 JUMPI DUP1 PUSH4 0x6021ABAC EQ PUSH2 0xB4 JUMPI DUP1 PUSH4 0x79BA5097 EQ PUSH2 0xD2 JUMPI DUP1 PUSH4 0x8DA5CB5B EQ PUSH2 0xDC JUMPI JUMPDEST PUSH1 0x0 DUP1 REVERT JUMPDEST PUSH2 0xB2 PUSH1 0x4 DUP1 CALLDATASIZE SUB DUP2 ADD SWAP1 PUSH2 0xAD SWAP2 SWAP1 PUSH2 0x143C JUMP JUMPDEST PUSH2 0x17A JUMP JUMPDEST STOP JUMPDEST PUSH2 0xBC PUSH2 0x2C3 JUMP JUMPDEST PUSH1 0x40 MLOAD PUSH2 0xC9 SWAP2 SWAP1 PUSH2 0x148B JUMP JUMPDEST PUSH1 0x40 MLOAD DUP1 SWAP2 SUB SWAP1 RETURN JUMPDEST PUSH2 0xDA PUSH2 0x427 JUMP JUMPDEST STOP JUMPDEST PUSH2 0xE4 PUSH2 0x5BE JUMP JUMPDEST PUSH1 0x40 MLOAD PUSH2 0xF1 SWAP2 SWAP1 PUSH2 0x14E7 JUMP JUMPDEST PUSH1 0x40 MLOAD DUP1 SWAP2 SUB SWAP1 RETURN JUMPDEST PUSH2 0x102 PUSH2 0x5E8 JUMP JUMPDEST STOP JUMPDEST PUSH2 0x10C PUSH2 0x735 JUMP JUMPDEST PUSH1 0x40 MLOAD PUSH2 0x119 SWAP2 SWAP1 PUSH2 0x148B JUMP JUMPDEST PUSH1 0x40 MLOAD DUP1 SWAP2 SUB SWAP1 RETURN JUMPDEST PUSH2 0x12A PUSH2 0x73B JUMP JUMPDEST PUSH1 0x40 MLOAD PUSH2 0x137 SWAP2 SWAP1 PUSH2 0x1511 JUMP JUMPDEST PUSH1 0x40 MLOAD DUP1 SWAP2 SUB SWAP1 RETURN JUMPDEST PUSH2 0x148 PUSH2 0x741 JUMP JUMPDEST PUSH1 0x40 MLOAD PUSH2 0x155 SWAP2 SWAP1 PUSH2 0x1511 JUMP JUMPDEST PUSH1 0x40 MLOAD DUP1 SWAP2 SUB SWAP1 RETURN JUMPDEST PUSH2 0x178 PUSH1 0x4 DUP1 CALLDATASIZE SUB DUP2 ADD SWAP1 PUSH2 0x173 SWAP2 SWAP1 PUSH2 0x1558 JUMP JUMPDEST PUSH2 0x747 JUMP JUMPDEST STOP JUMPDEST DUP2 PUSH1 0x5 PUSH1 0x0 DUP3 DUP2 MSTORE PUSH1 0x20 ADD SWAP1 DUP2 MSTORE PUSH1 0x20 ADD PUSH1 0x0 KECCAK256 PUSH1 0x0 SWAP1 SLOAD SWAP1 PUSH2 0x100 EXP SWAP1 DIV PUSH20 0xFFFFFFFFFFFFFFFFFFFFFFFFFFFFFFFFFFFFFFFF AND PUSH20 0xFFFFFFFFFFFFFFFFFFFFFFFFFFFFFFFFFFFFFFFF AND CALLER PUSH20 0xFFFFFFFFFFFFFFFFFFFFFFFFFFFFFFFFFFFFFFFF AND EQ PUSH2 0x21C JUMPI PUSH1 0x40 MLOAD PUSH32 0x8C379A000000000000000000000000000000000000000000000000000000000 DUP2 MSTORE PUSH1 0x4 ADD PUSH2 0x213 SWAP1 PUSH2 0x1608 JUMP JUMPDEST PUSH1 0x40 MLOAD DUP1 SWAP2 SUB SWAP1 REVERT JUMPDEST PUSH1 0x5 PUSH1 0x0 DUP3 DUP2 MSTORE PUSH1 0x20 ADD SWAP1 DUP2 MSTORE PUSH1 0x20 ADD PUSH1 0x0 KECCAK256 PUSH1 0x0 PUSH2 0x100 EXP DUP2 SLOAD SWAP1 PUSH20 0xFFFFFFFFFFFFFFFFFFFFFFFFFFFFFFFFFFFFFFFF MUL NOT AND SWAP1 SSTORE DUP1 PUSH32 0x7CC135E0CEBB02C3480AE5D74D377283180A2601F8F644EDF7987B009316C63A PUSH1 0x40 MLOAD PUSH1 0x40 MLOAD DUP1 SWAP2 SUB SWAP1 LOG2 DUP3 PUSH32 0x673B38182859A514D734BDFCB49D3A05C4A641DEC9311D9894C9717BCB79AF76 DUP4 PUSH1 0x40 MLOAD PUSH2 0x2AF SWAP2 SWAP1 PUSH2 0x1511 JUMP JUMPDEST PUSH1 0x40 MLOAD DUP1 SWAP2 SUB SWAP1 LOG2 DUP2 PUSH1 0x8 DUP2 SWAP1 SSTORE POP POP POP POP JUMP JUMPDEST PUSH1 0x0 DUP1 PUSH2 0x2DA PUSH1 0x9 SLOAD ADDRESS PUSH4 0x4357855E PUSH1 0xE0 SHL PUSH2 0x75B JUMP JUMPDEST SWAP1 POP PUSH2 0x33E PUSH1 0x40 MLOAD DUP1 PUSH1 0x40 ADD PUSH1 0x40 MSTORE DUP1 PUSH1 0x3 DUP2 MSTORE PUSH1 0x20 ADD PUSH32 0x6765740000000000000000000000000000000000000000000000000000000000 DUP2 MSTORE POP PUSH1 0x40 MLOAD DUP1 PUSH1 0x80 ADD PUSH1 0x40 MSTORE DUP1 PUSH1 0x49 DUP2 MSTORE PUSH1 0x20 ADD PUSH2 0x1EB2 PUSH1 0x49 SWAP2 CODECOPY DUP4 PUSH2 0x78C SWAP1 SWAP3 SWAP2 SWAP1 PUSH4 0xFFFFFFFF AND JUMP JUMPDEST PUSH2 0x3BD PUSH1 0x40 MLOAD DUP1 PUSH1 0x40 ADD PUSH1 0x40 MSTORE DUP1 PUSH1 0x4 DUP2 MSTORE PUSH1 0x20 ADD PUSH32 0x7061746800000000000000000000000000000000000000000000000000000000 DUP2 MSTORE POP PUSH1 0x40 MLOAD DUP1 PUSH1 0x40 ADD PUSH1 0x40 MSTORE DUP1 PUSH1 0x18 DUP2 MSTORE PUSH1 0x20 ADD PUSH32 0x5241572C4554482C5553442C564F4C554D453234484F55520000000000000000 DUP2 MSTORE POP DUP4 PUSH2 0x78C SWAP1 SWAP3 SWAP2 SWAP1 PUSH4 0xFFFFFFFF AND JUMP JUMPDEST PUSH1 0x0 PUSH8 0xDE0B6B3A7640000 SWAP1 POP PUSH2 0x414 PUSH1 0x40 MLOAD DUP1 PUSH1 0x40 ADD PUSH1 0x40 MSTORE DUP1 PUSH1 0x5 DUP2 MSTORE PUSH1 0x20 ADD PUSH32 0x74696D6573000000000000000000000000000000000000000000000000000000 DUP2 MSTORE POP DUP3 DUP5 PUSH2 0x7BF SWAP1 SWAP3 SWAP2 SWAP1 PUSH4 0xFFFFFFFF AND JUMP JUMPDEST PUSH2 0x420 DUP3 PUSH1 0xA SLOAD PUSH2 0x7F2 JUMP JUMPDEST SWAP3 POP POP POP SWAP1 JUMP JUMPDEST PUSH1 0x7 PUSH1 0x0 SWAP1 SLOAD SWAP1 PUSH2 0x100 EXP SWAP1 DIV PUSH20 0xFFFFFFFFFFFFFFFFFFFFFFFFFFFFFFFFFFFFFFFF AND PUSH20 0xFFFFFFFFFFFFFFFFFFFFFFFFFFFFFFFFFFFFFFFF AND CALLER PUSH20 0xFFFFFFFFFFFFFFFFFFFFFFFFFFFFFFFFFFFFFFFF AND EQ PUSH2 0x4B7 JUMPI PUSH1 0x40 MLOAD PUSH32 0x8C379A000000000000000000000000000000000000000000000000000000000 DUP2 MSTORE PUSH1 0x4 ADD PUSH2 0x4AE SWAP1 PUSH2 0x1674 JUMP JUMPDEST PUSH1 0x40 MLOAD DUP1 SWAP2 SUB SWAP1 REVERT JUMPDEST PUSH1 0x0 PUSH1 0x6 PUSH1 0x0 SWAP1 SLOAD SWAP1 PUSH2 0x100 EXP SWAP1 DIV PUSH20 0xFFFFFFFFFFFFFFFFFFFFFFFFFFFFFFFFFFFFFFFF AND SWAP1 POP CALLER PUSH1 0x6 PUSH1 0x0 PUSH2 0x100 EXP DUP2 SLOAD DUP2 PUSH20 0xFFFFFFFFFFFFFFFFFFFFFFFFFFFFFFFFFFFFFFFF MUL NOT AND SWAP1 DUP4 PUSH20 0xFFFFFFFFFFFFFFFFFFFFFFFFFFFFFFFFFFFFFFFF AND MUL OR SWAP1 SSTORE POP PUSH1 0x0 PUSH1 0x7 PUSH1 0x0 PUSH2 0x100 EXP DUP2 SLOAD DUP2 PUSH20 0xFFFFFFFFFFFFFFFFFFFFFFFFFFFFFFFFFFFFFFFF MUL NOT AND SWAP1 DUP4 PUSH20 0xFFFFFFFFFFFFFFFFFFFFFFFFFFFFFFFFFFFFFFFF AND MUL OR SWAP1 SSTORE POP CALLER PUSH20 0xFFFFFFFFFFFFFFFFFFFFFFFFFFFFFFFFFFFFFFFF AND DUP2 PUSH20 0xFFFFFFFFFFFFFFFFFFFFFFFFFFFFFFFFFFFFFFFF AND PUSH32 0x8BE0079C531659141344CD1FD0A4F28419497F9722A3DAAFE3B4186F6B6457E0 PUSH1 0x40 MLOAD PUSH1 0x40 MLOAD DUP1 SWAP2 SUB SWAP1 LOG3 POP JUMP JUMPDEST PUSH1 0x0 PUSH1 0x6 PUSH1 0x0 SWAP1 SLOAD SWAP1 PUSH2 0x100 EXP SWAP1 DIV PUSH20 0xFFFFFFFFFFFFFFFFFFFFFFFFFFFFFFFFFFFFFFFF AND SWAP1 POP SWAP1 JUMP JUMPDEST PUSH2 0x5F0 PUSH2 0x829 JUMP JUMPDEST PUSH1 0x0 PUSH2 0x5FA PUSH2 0x8BB JUMP JUMPDEST SWAP1 POP DUP1 PUSH20 0xFFFFFFFFFFFFFFFFFFFFFFFFFFFFFFFFFFFFFFFF AND PUSH4 0xA9059CBB CALLER DUP4 PUSH20 0xFFFFFFFFFFFFFFFFFFFFFFFFFFFFFFFFFFFFFFFF AND PUSH4 0x70A08231 ADDRESS PUSH1 0x40 MLOAD DUP3 PUSH4 0xFFFFFFFF AND PUSH1 0xE0 SHL DUP2 MSTORE PUSH1 0x4 ADD PUSH2 0x652 SWAP2 SWAP1 PUSH2 0x14E7 JUMP JUMPDEST PUSH1 0x20 PUSH1 0x40 MLOAD DUP1 DUP4 SUB DUP2 DUP7 GAS STATICCALL ISZERO DUP1 ISZERO PUSH2 0x66F JUMPI RETURNDATASIZE PUSH1 0x0 DUP1 RETURNDATACOPY RETURNDATASIZE PUSH1 0x0 REVERT JUMPDEST POP POP POP POP PUSH1 0x40 MLOAD RETURNDATASIZE PUSH1 0x1F NOT PUSH1 0x1F DUP3 ADD AND DUP3 ADD DUP1 PUSH1 0x40 MSTORE POP DUP2 ADD SWAP1 PUSH2 0x693 SWAP2 SWAP1 PUSH2 0x16A9 JUMP JUMPDEST PUSH1 0x40 MLOAD DUP4 PUSH4 0xFFFFFFFF AND PUSH1 0xE0 SHL DUP2 MSTORE PUSH1 0x4 ADD PUSH2 0x6B0 SWAP3 SWAP2 SWAP1 PUSH2 0x16D6 JUMP JUMPDEST PUSH1 0x20 PUSH1 0x40 MLOAD DUP1 DUP4 SUB DUP2 PUSH1 0x0 DUP8 GAS CALL ISZERO DUP1 ISZERO PUSH2 0x6CF JUMPI RETURNDATASIZE PUSH1 0x0 DUP1 RETURNDATACOPY RETURNDATASIZE PUSH1 0x0 REVERT JUMPDEST POP POP POP POP PUSH1 0x40 MLOAD RETURNDATASIZE PUSH1 0x1F NOT PUSH1 0x1F DUP3 ADD AND DUP3 ADD DUP1 PUSH1 0x40 MSTORE POP DUP2 ADD SWAP1 PUSH2 0x6F3 SWAP2 SWAP1 PUSH2 0x1737 JUMP JUMPDEST PUSH2 0x732 JUMPI PUSH1 0x40 MLOAD PUSH32 0x8C379A000000000000000000000000000000000000000000000000000000000 DUP2 MSTORE PUSH1 0x4 ADD PUSH2 0x729 SWAP1 PUSH2 0x17B0 JUMP JUMPDEST PUSH1 0x40 MLOAD DUP1 SWAP2 SUB SWAP1 REVERT JUMPDEST POP JUMP JUMPDEST PUSH1 0x9 SLOAD DUP2 JUMP JUMPDEST PUSH1 0x8 SLOAD DUP2 JUMP JUMPDEST PUSH1 0xA SLOAD DUP2 JUMP JUMPDEST PUSH2 0x74F PUSH2 0x829 JUMP JUMPDEST PUSH2 0x758 DUP2 PUSH2 0x8E5 JUMP JUMPDEST POP JUMP JUMPDEST PUSH2 0x763 PUSH2 0x1344 JUMP JUMPDEST PUSH2 0x76B PUSH2 0x1344 JUMP JUMPDEST PUSH2 0x782 DUP6 DUP6 DUP6 DUP5 PUSH2 0xA13 SWAP1 SWAP4 SWAP3 SWAP2 SWAP1 PUSH4 0xFFFFFFFF AND JUMP JUMPDEST SWAP2 POP POP SWAP4 SWAP3 POP POP POP JUMP JUMPDEST PUSH2 0x7A3 DUP3 DUP5 PUSH1 0x80 ADD MLOAD PUSH2 0xAC3 SWAP1 SWAP2 SWAP1 PUSH4 0xFFFFFFFF AND JUMP JUMPDEST PUSH2 0x7BA DUP2 DUP5 PUSH1 0x80 ADD MLOAD PUSH2 0xAC3 SWAP1 SWAP2 SWAP1 PUSH4 0xFFFFFFFF AND JUMP JUMPDEST POP POP POP JUMP JUMPDEST PUSH2 0x7D6 DUP3 DUP5 PUSH1 0x80 ADD MLOAD PUSH2 0xAC3 SWAP1 SWAP2 SWAP1 PUSH4 0xFFFFFFFF AND JUMP JUMPDEST PUSH2 0x7ED DUP2 DUP5 PUSH1 0x80 ADD MLOAD PUSH2 0xAE8 SWAP1 SWAP2 SWAP1 PUSH4 0xFFFFFFFF AND JUMP JUMPDEST POP POP POP JUMP JUMPDEST PUSH1 0x0 PUSH2 0x821 PUSH1 0x3 PUSH1 0x0 SWAP1 SLOAD SWAP1 PUSH2 0x100 EXP SWAP1 DIV PUSH20 0xFFFFFFFFFFFFFFFFFFFFFFFFFFFFFFFFFFFFFFFF AND DUP5 DUP5 PUSH2 0xB95 JUMP JUMPDEST SWAP1 POP SWAP3 SWAP2 POP POP JUMP JUMPDEST PUSH1 0x6 PUSH1 0x0 SWAP1 SLOAD SWAP1 PUSH2 0x100 EXP SWAP1 DIV PUSH20 0xFFFFFFFFFFFFFFFFFFFFFFFFFFFFFFFFFFFFFFFF AND PUSH20 0xFFFFFFFFFFFFFFFFFFFFFFFFFFFFFFFFFFFFFFFF AND CALLER PUSH20 0xFFFFFFFFFFFFFFFFFFFFFFFFFFFFFFFFFFFFFFFF AND EQ PUSH2 0x8B9 JUMPI PUSH1 0x40 MLOAD PUSH32 0x8C379A000000000000000000000000000000000000000000000000000000000 DUP2 MSTORE PUSH1 0x4 ADD PUSH2 0x8B0 SWAP1 PUSH2 0x181C JUMP JUMPDEST PUSH1 0x40 MLOAD DUP1 SWAP2 SUB SWAP1 REVERT JUMPDEST JUMP JUMPDEST PUSH1 0x0 PUSH1 0x2 PUSH1 0x0 SWAP1 SLOAD SWAP1 PUSH2 0x100 EXP SWAP1 DIV PUSH20 0xFFFFFFFFFFFFFFFFFFFFFFFFFFFFFFFFFFFFFFFF AND SWAP1 POP SWAP1 JUMP JUMPDEST CALLER PUSH20 0xFFFFFFFFFFFFFFFFFFFFFFFFFFFFFFFFFFFFFFFF AND DUP2 PUSH20 0xFFFFFFFFFFFFFFFFFFFFFFFFFFFFFFFFFFFFFFFF AND SUB PUSH2 0x953 JUMPI PUSH1 0x40 MLOAD PUSH32 0x8C379A000000000000000000000000000000000000000000000000000000000 DUP2 MSTORE PUSH1 0x4 ADD PUSH2 0x94A SWAP1 PUSH2 0x1888 JUMP JUMPDEST PUSH1 0x40 MLOAD DUP1 SWAP2 SUB SWAP1 REVERT JUMPDEST DUP1 PUSH1 0x7 PUSH1 0x0 PUSH2 0x100 EXP DUP2 SLOAD DUP2 PUSH20 0xFFFFFFFFFFFFFFFFFFFFFFFFFFFFFFFFFFFFFFFF MUL NOT AND SWAP1 DUP4 PUSH20 0xFFFFFFFFFFFFFFFFFFFFFFFFFFFFFFFFFFFFFFFF AND MUL OR SWAP1 SSTORE POP DUP1 PUSH20 0xFFFFFFFFFFFFFFFFFFFFFFFFFFFFFFFFFFFFFFFF AND PUSH1 0x6 PUSH1 0x0 SWAP1 SLOAD SWAP1 PUSH2 0x100 EXP SWAP1 DIV PUSH20 0xFFFFFFFFFFFFFFFFFFFFFFFFFFFFFFFFFFFFFFFF AND PUSH20 0xFFFFFFFFFFFFFFFFFFFFFFFFFFFFFFFFFFFFFFFF AND PUSH32 0xED8889F560326EB138920D842192F0EB3DD22B4F139C87A2C57538E05BAE1278 PUSH1 0x40 MLOAD PUSH1 0x40 MLOAD DUP1 SWAP2 SUB SWAP1 LOG3 POP JUMP JUMPDEST PUSH2 0xA1B PUSH2 0x1344 JUMP JUMPDEST PUSH2 0xA2B DUP6 PUSH1 0x80 ADD MLOAD PUSH2 0x100 PUSH2 0xC61 JUMP JUMPDEST POP DUP4 DUP6 PUSH1 0x0 ADD DUP2 DUP2 MSTORE POP POP DUP3 DUP6 PUSH1 0x20 ADD SWAP1 PUSH20 0xFFFFFFFFFFFFFFFFFFFFFFFFFFFFFFFFFFFFFFFF AND SWAP1 DUP2 PUSH20 0xFFFFFFFFFFFFFFFFFFFFFFFFFFFFFFFFFFFFFFFF AND DUP2 MSTORE POP POP DUP2 DUP6 PUSH1 0x40 ADD SWAP1 PUSH28 0xFFFFFFFFFFFFFFFFFFFFFFFFFFFFFFFFFFFFFFFFFFFFFFFFFFFFFFFF NOT AND SWAP1 DUP2 PUSH28 0xFFFFFFFFFFFFFFFFFFFFFFFFFFFFFFFFFFFFFFFFFFFFFFFFFFFFFFFF NOT AND DUP2 MSTORE POP POP DUP5 SWAP1 POP SWAP5 SWAP4 POP POP POP POP JUMP JUMPDEST PUSH2 0xAD0 DUP3 PUSH1 0x3 DUP4 MLOAD PUSH2 0xCCB JUMP JUMPDEST PUSH2 0xAE3 DUP2 DUP4 PUSH2 0xE50 SWAP1 SWAP2 SWAP1 PUSH4 0xFFFFFFFF AND JUMP JUMPDEST POP POP POP JUMP JUMPDEST PUSH32 0xFFFFFFFFFFFFFFFFFFFFFFFFFFFFFFFFFFFFFFFFFFFFFFFF0000000000000000 DUP2 SLT ISZERO PUSH2 0xB1F JUMPI PUSH2 0xB1A DUP3 DUP3 PUSH2 0xE72 JUMP JUMPDEST PUSH2 0xB91 JUMP JUMPDEST PUSH8 0xFFFFFFFFFFFFFFFF DUP2 SGT ISZERO PUSH2 0xB3E JUMPI PUSH2 0xB39 DUP3 DUP3 PUSH2 0xEE9 JUMP JUMPDEST PUSH2 0xB90 JUMP JUMPDEST PUSH1 0x0 DUP2 SLT PUSH2 0xB57 JUMPI PUSH2 0xB52 DUP3 PUSH1 0x0 DUP4 PUSH2 0xCCB JUMP JUMPDEST PUSH2 0xB8F JUMP JUMPDEST PUSH2 0xB8E DUP3 PUSH1 0x1 DUP4 PUSH32 0xFFFFFFFFFFFFFFFFFFFFFFFFFFFFFFFFFFFFFFFFFFFFFFFFFFFFFFFFFFFFFFFF PUSH2 0xB89 SWAP2 SWAP1 PUSH2 0x18E1 JUMP JUMPDEST PUSH2 0xCCB JUMP JUMPDEST JUMPDEST JUMPDEST JUMPDEST POP POP JUMP JUMPDEST PUSH1 0x0 DUP1 PUSH1 0x4 SLOAD SWAP1 POP PUSH1 0x1 DUP2 PUSH2 0xBAA SWAP2 SWAP1 PUSH2 0x1924 JUMP JUMPDEST PUSH1 0x4 DUP2 SWAP1 SSTORE POP PUSH1 0x0 PUSH4 0x40429946 PUSH1 0xE0 SHL PUSH1 0x0 DUP1 DUP8 PUSH1 0x0 ADD MLOAD ADDRESS DUP10 PUSH1 0x40 ADD MLOAD DUP8 PUSH1 0x1 DUP13 PUSH1 0x80 ADD MLOAD PUSH1 0x0 ADD MLOAD PUSH1 0x40 MLOAD PUSH1 0x24 ADD PUSH2 0xBEB SWAP9 SWAP8 SWAP7 SWAP6 SWAP5 SWAP4 SWAP3 SWAP2 SWAP1 PUSH2 0x1A23 JUMP JUMPDEST PUSH1 0x40 MLOAD PUSH1 0x20 DUP2 DUP4 SUB SUB DUP2 MSTORE SWAP1 PUSH1 0x40 MSTORE SWAP1 PUSH28 0xFFFFFFFFFFFFFFFFFFFFFFFFFFFFFFFFFFFFFFFFFFFFFFFFFFFFFFFF NOT AND PUSH1 0x20 DUP3 ADD DUP1 MLOAD PUSH28 0xFFFFFFFFFFFFFFFFFFFFFFFFFFFFFFFFFFFFFFFFFFFFFFFFFFFFFFFF DUP4 DUP2 DUP4 AND OR DUP4 MSTORE POP POP POP POP SWAP1 POP PUSH2 0xC56 DUP7 DUP4 DUP7 DUP5 PUSH2 0xF35 JUMP JUMPDEST SWAP3 POP POP POP SWAP4 SWAP3 POP POP POP JUMP JUMPDEST PUSH2 0xC69 PUSH2 0x13B1 JUMP JUMPDEST PUSH1 0x0 PUSH1 0x20 DUP4 PUSH2 0xC78 SWAP2 SWAP1 PUSH2 0x1AD7 JUMP JUMPDEST EQ PUSH2 0xCA4 JUMPI PUSH1 0x20 DUP3 PUSH2 0xC8A SWAP2 SWAP1 PUSH2 0x1AD7 JUMP JUMPDEST PUSH1 0x20 PUSH2 0xC96 SWAP2 SWAP1 PUSH2 0x1B08 JUMP JUMPDEST DUP3 PUSH2 0xCA1 SWAP2 SWAP1 PUSH2 0x1924 JUMP JUMPDEST SWAP2 POP JUMPDEST DUP2 DUP4 PUSH1 0x20 ADD DUP2 DUP2 MSTORE POP POP PUSH1 0x40 MLOAD DUP1 DUP5 MSTORE PUSH1 0x0 DUP2 MSTORE DUP3 DUP2 ADD PUSH1 0x20 ADD PUSH1 0x40 MSTORE POP DUP3 SWAP1 POP SWAP3 SWAP2 POP POP JUMP JUMPDEST PUSH1 0x17 DUP2 PUSH8 0xFFFFFFFFFFFFFFFF AND GT PUSH2 0xD02 JUMPI PUSH2 0xCFC DUP2 PUSH1 0x5 DUP5 PUSH1 0xFF AND SWAP1 SHL PUSH1 0xFF AND OR DUP5 PUSH2 0x10CA SWAP1 SWAP2 SWAP1 PUSH4 0xFFFFFFFF AND JUMP JUMPDEST POP PUSH2 0xE4B JUMP JUMPDEST PUSH1 0xFF DUP2 PUSH8 0xFFFFFFFFFFFFFFFF AND GT PUSH2 0xD58 JUMPI PUSH2 0xD31 PUSH1 0x18 PUSH1 0x5 DUP5 PUSH1 0xFF AND SWAP1 SHL OR DUP5 PUSH2 0x10CA SWAP1 SWAP2 SWAP1 PUSH4 0xFFFFFFFF AND JUMP JUMPDEST POP PUSH2 0xD52 DUP2 PUSH8 0xFFFFFFFFFFFFFFFF AND PUSH1 0x1 DUP6 PUSH2 0x10EA SWAP1 SWAP3 SWAP2 SWAP1 PUSH4 0xFFFFFFFF AND JUMP JUMPDEST POP PUSH2 0xE4A JUMP JUMPDEST PUSH2 0xFFFF DUP2 PUSH8 0xFFFFFFFFFFFFFFFF AND GT PUSH2 0xDAF JUMPI PUSH2 0xD88 PUSH1 0x19 PUSH1 0x5 DUP5 PUSH1 0xFF AND SWAP1 SHL OR DUP5 PUSH2 0x10CA SWAP1 SWAP2 SWAP1 PUSH4 0xFFFFFFFF AND JUMP JUMPDEST POP PUSH2 0xDA9 DUP2 PUSH8 0xFFFFFFFFFFFFFFFF AND PUSH1 0x2 DUP6 PUSH2 0x10EA SWAP1 SWAP3 SWAP2 SWAP1 PUSH4 0xFFFFFFFF AND JUMP JUMPDEST POP PUSH2 0xE49 JUMP JUMPDEST PUSH4 0xFFFFFFFF DUP2 PUSH8 0xFFFFFFFFFFFFFFFF AND GT PUSH2 0xE08 JUMPI PUSH2 0xDE1 PUSH1 0x1A PUSH1 0x5 DUP5 PUSH1 0xFF AND SWAP1 SHL OR DUP5 PUSH2 0x10CA SWAP1 SWAP2 SWAP1 PUSH4 0xFFFFFFFF AND JUMP JUMPDEST POP PUSH2 0xE02 DUP2 PUSH8 0xFFFFFFFFFFFFFFFF AND PUSH1 0x4 DUP6 PUSH2 0x10EA SWAP1 SWAP3 SWAP2 SWAP1 PUSH4 0xFFFFFFFF AND JUMP JUMPDEST POP PUSH2 0xE48 JUMP JUMPDEST PUSH2 0xE25 PUSH1 0x1B PUSH1 0x5 DUP5 PUSH1 0xFF AND SWAP1 SHL OR DUP5 PUSH2 0x10CA SWAP1 SWAP2 SWAP1 PUSH4 0xFFFFFFFF AND JUMP JUMPDEST POP PUSH2 0xE46 DUP2 PUSH8 0xFFFFFFFFFFFFFFFF AND PUSH1 0x8 DUP6 PUSH2 0x10EA SWAP1 SWAP3 SWAP2 SWAP1 PUSH4 0xFFFFFFFF AND JUMP JUMPDEST POP JUMPDEST JUMPDEST JUMPDEST JUMPDEST POP POP POP JUMP JUMPDEST PUSH2 0xE58 PUSH2 0x13B1 JUMP JUMPDEST PUSH2 0xE6A DUP4 DUP5 PUSH1 0x0 ADD MLOAD MLOAD DUP5 DUP6 MLOAD PUSH2 0x110C JUMP JUMPDEST SWAP1 POP SWAP3 SWAP2 POP POP JUMP JUMPDEST PUSH2 0xE90 PUSH1 0x3 PUSH1 0x5 PUSH1 0x6 PUSH1 0xFF AND SWAP1 SHL OR DUP4 PUSH2 0x10CA SWAP1 SWAP2 SWAP1 PUSH4 0xFFFFFFFF AND JUMP JUMPDEST POP PUSH2 0xEE5 DUP3 DUP3 PUSH32 0xFFFFFFFFFFFFFFFFFFFFFFFFFFFFFFFFFFFFFFFFFFFFFFFFFFFFFFFFFFFFFFFF PUSH2 0xEC1 SWAP2 SWAP1 PUSH2 0x18E1 JUMP JUMPDEST PUSH1 0x40 MLOAD PUSH1 0x20 ADD PUSH2 0xED1 SWAP2 SWAP1 PUSH2 0x1511 JUMP JUMPDEST PUSH1 0x40 MLOAD PUSH1 0x20 DUP2 DUP4 SUB SUB DUP2 MSTORE SWAP1 PUSH1 0x40 MSTORE PUSH2 0x11FB JUMP JUMPDEST POP POP JUMP JUMPDEST PUSH2 0xF07 PUSH1 0x2 PUSH1 0x5 PUSH1 0x6 PUSH1 0xFF AND SWAP1 SHL OR DUP4 PUSH2 0x10CA SWAP1 SWAP2 SWAP1 PUSH4 0xFFFFFFFF AND JUMP JUMPDEST POP PUSH2 0xF31 DUP3 DUP3 PUSH1 0x40 MLOAD PUSH1 0x20 ADD PUSH2 0xF1D SWAP2 SWAP1 PUSH2 0x1511 JUMP JUMPDEST PUSH1 0x40 MLOAD PUSH1 0x20 DUP2 DUP4 SUB SUB DUP2 MSTORE SWAP1 PUSH1 0x40 MSTORE PUSH2 0x11FB JUMP JUMPDEST POP POP JUMP JUMPDEST PUSH1 0x0 ADDRESS DUP5 PUSH1 0x40 MLOAD PUSH1 0x20 ADD PUSH2 0xF4A SWAP3 SWAP2 SWAP1 PUSH2 0x1BF5 JUMP JUMPDEST PUSH1 0x40 MLOAD PUSH1 0x20 DUP2 DUP4 SUB SUB DUP2 MSTORE SWAP1 PUSH1 0x40 MSTORE DUP1 MLOAD SWAP1 PUSH1 0x20 ADD KECCAK256 SWAP1 POP DUP5 PUSH1 0x5 PUSH1 0x0 DUP4 DUP2 MSTORE PUSH1 0x20 ADD SWAP1 DUP2 MSTORE PUSH1 0x20 ADD PUSH1 0x0 KECCAK256 PUSH1 0x0 PUSH2 0x100 EXP DUP2 SLOAD DUP2 PUSH20 0xFFFFFFFFFFFFFFFFFFFFFFFFFFFFFFFFFFFFFFFF MUL NOT AND SWAP1 DUP4 PUSH20 0xFFFFFFFFFFFFFFFFFFFFFFFFFFFFFFFFFFFFFFFF AND MUL OR SWAP1 SSTORE POP DUP1 PUSH32 0xB5E6E01E79F91267DC17B4E6314D5D4D03593D2CEEE0FBB452B750BD70EA5AF9 PUSH1 0x40 MLOAD PUSH1 0x40 MLOAD DUP1 SWAP2 SUB SWAP1 LOG2 PUSH1 0x2 PUSH1 0x0 SWAP1 SLOAD SWAP1 PUSH2 0x100 EXP SWAP1 DIV PUSH20 0xFFFFFFFFFFFFFFFFFFFFFFFFFFFFFFFFFFFFFFFF AND PUSH20 0xFFFFFFFFFFFFFFFFFFFFFFFFFFFFFFFFFFFFFFFF AND PUSH4 0x4000AEA0 DUP7 DUP6 DUP6 PUSH1 0x40 MLOAD DUP5 PUSH4 0xFFFFFFFF AND PUSH1 0xE0 SHL DUP2 MSTORE PUSH1 0x4 ADD PUSH2 0x1040 SWAP4 SWAP3 SWAP2 SWAP1 PUSH2 0x1C21 JUMP JUMPDEST PUSH1 0x20 PUSH1 0x40 MLOAD DUP1 DUP4 SUB DUP2 PUSH1 0x0 DUP8 GAS CALL ISZERO DUP1 ISZERO PUSH2 0x105F JUMPI RETURNDATASIZE PUSH1 0x0 DUP1 RETURNDATACOPY RETURNDATASIZE PUSH1 0x0 REVERT JUMPDEST POP POP POP POP PUSH1 0x40 MLOAD RETURNDATASIZE PUSH1 0x1F NOT PUSH1 0x1F DUP3 ADD AND DUP3 ADD DUP1 PUSH1 0x40 MSTORE POP DUP2 ADD SWAP1 PUSH2 0x1083 SWAP2 SWAP1 PUSH2 0x1737 JUMP JUMPDEST PUSH2 0x10C2 JUMPI PUSH1 0x40 MLOAD PUSH32 0x8C379A000000000000000000000000000000000000000000000000000000000 DUP2 MSTORE PUSH1 0x4 ADD PUSH2 0x10B9 SWAP1 PUSH2 0x1CD1 JUMP JUMPDEST PUSH1 0x40 MLOAD DUP1 SWAP2 SUB SWAP1 REVERT JUMPDEST SWAP5 SWAP4 POP POP POP POP JUMP JUMPDEST PUSH2 0x10D2 PUSH2 0x13B1 JUMP JUMPDEST PUSH2 0x10E2 DUP4 DUP5 PUSH1 0x0 ADD MLOAD MLOAD DUP5 PUSH2 0x1220 JUMP JUMPDEST SWAP1 POP SWAP3 SWAP2 POP POP JUMP JUMPDEST PUSH2 0x10F2 PUSH2 0x13B1 JUMP JUMPDEST PUSH2 0x1103 DUP5 DUP6 PUSH1 0x0 ADD MLOAD MLOAD DUP6 DUP6 PUSH2 0x1276 JUMP JUMPDEST SWAP1 POP SWAP4 SWAP3 POP POP POP JUMP JUMPDEST PUSH2 0x1114 PUSH2 0x13B1 JUMP JUMPDEST DUP3 MLOAD DUP3 GT ISZERO PUSH2 0x1122 JUMPI PUSH1 0x0 DUP1 REVERT JUMPDEST DUP5 PUSH1 0x20 ADD MLOAD DUP3 DUP6 PUSH2 0x1133 SWAP2 SWAP1 PUSH2 0x1924 JUMP JUMPDEST GT ISZERO PUSH2 0x1168 JUMPI PUSH2 0x1167 DUP6 PUSH1 0x2 PUSH2 0x1158 DUP9 PUSH1 0x20 ADD MLOAD DUP9 DUP8 PUSH2 0x1153 SWAP2 SWAP1 PUSH2 0x1924 JUMP JUMPDEST PUSH2 0x1304 JUMP JUMPDEST PUSH2 0x1162 SWAP2 SWAP1 PUSH2 0x1CF1 JUMP JUMPDEST PUSH2 0x1320 JUMP JUMPDEST JUMPDEST PUSH1 0x0 DUP1 DUP7 MLOAD DUP1 MLOAD DUP8 PUSH1 0x20 DUP4 ADD ADD SWAP4 POP DUP1 DUP9 DUP8 ADD GT ISZERO PUSH2 0x1187 JUMPI DUP8 DUP7 ADD DUP3 MSTORE JUMPDEST PUSH1 0x20 DUP8 ADD SWAP3 POP POP POP JUMPDEST PUSH1 0x20 DUP5 LT PUSH2 0x11CE JUMPI DUP1 MLOAD DUP3 MSTORE PUSH1 0x20 DUP3 PUSH2 0x11A9 SWAP2 SWAP1 PUSH2 0x1924 JUMP JUMPDEST SWAP2 POP PUSH1 0x20 DUP2 PUSH2 0x11B8 SWAP2 SWAP1 PUSH2 0x1924 JUMP JUMPDEST SWAP1 POP PUSH1 0x20 DUP5 PUSH2 0x11C7 SWAP2 SWAP1 PUSH2 0x1B08 JUMP JUMPDEST SWAP4 POP PUSH2 0x1190 JUMP JUMPDEST PUSH1 0x0 PUSH1 0x1 DUP6 PUSH1 0x20 SUB PUSH2 0x100 EXP SUB SWAP1 POP DUP1 NOT DUP3 MLOAD AND DUP2 DUP5 MLOAD AND DUP2 DUP2 OR DUP6 MSTORE POP POP POP DUP7 SWAP3 POP POP POP SWAP5 SWAP4 POP POP POP POP JUMP JUMPDEST PUSH2 0x1208 DUP3 PUSH1 0x2 DUP4 MLOAD PUSH2 0xCCB JUMP JUMPDEST PUSH2 0x121B DUP2 DUP4 PUSH2 0xE50 SWAP1 SWAP2 SWAP1 PUSH4 0xFFFFFFFF AND JUMP JUMPDEST POP POP POP JUMP JUMPDEST PUSH2 0x1228 PUSH2 0x13B1 JUMP JUMPDEST DUP4 PUSH1 0x20 ADD MLOAD DUP4 LT PUSH2 0x124E JUMPI PUSH2 0x124D DUP5 PUSH1 0x2 DUP7 PUSH1 0x20 ADD MLOAD PUSH2 0x1248 SWAP2 SWAP1 PUSH2 0x1CF1 JUMP JUMPDEST PUSH2 0x1320 JUMP JUMPDEST JUMPDEST DUP4 MLOAD DUP1 MLOAD PUSH1 0x20 DUP6 DUP4 ADD ADD DUP5 DUP2 MSTORE8 DUP2 DUP7 SUB PUSH2 0x1269 JUMPI PUSH1 0x1 DUP3 ADD DUP4 MSTORE JUMPDEST POP POP POP DUP4 SWAP1 POP SWAP4 SWAP3 POP POP POP JUMP JUMPDEST PUSH2 0x127E PUSH2 0x13B1 JUMP JUMPDEST DUP5 PUSH1 0x20 ADD MLOAD DUP5 DUP4 PUSH2 0x128F SWAP2 SWAP1 PUSH2 0x1924 JUMP JUMPDEST GT ISZERO PUSH2 0x12B7 JUMPI PUSH2 0x12B6 DUP6 PUSH1 0x2 DUP7 DUP6 PUSH2 0x12A7 SWAP2 SWAP1 PUSH2 0x1924 JUMP JUMPDEST PUSH2 0x12B1 SWAP2 SWAP1 PUSH2 0x1CF1 JUMP JUMPDEST PUSH2 0x1320 JUMP JUMPDEST JUMPDEST PUSH1 0x0 PUSH1 0x1 DUP4 PUSH2 0x100 PUSH2 0x12C9 SWAP2 SWAP1 PUSH2 0x1E66 JUMP JUMPDEST PUSH2 0x12D3 SWAP2 SWAP1 PUSH2 0x1B08 JUMP JUMPDEST SWAP1 POP DUP6 MLOAD DUP4 DUP7 DUP3 ADD ADD DUP6 DUP4 NOT DUP3 MLOAD AND OR DUP2 MSTORE DUP2 MLOAD DUP6 DUP9 ADD GT ISZERO PUSH2 0x12F6 JUMPI DUP5 DUP8 ADD DUP3 MSTORE JUMPDEST POP POP DUP6 SWAP2 POP POP SWAP5 SWAP4 POP POP POP POP JUMP JUMPDEST PUSH1 0x0 DUP2 DUP4 GT ISZERO PUSH2 0x1316 JUMPI DUP3 SWAP1 POP PUSH2 0x131A JUMP JUMPDEST DUP2 SWAP1 POP JUMPDEST SWAP3 SWAP2 POP POP JUMP JUMPDEST PUSH1 0x0 DUP3 PUSH1 0x0 ADD MLOAD SWAP1 POP PUSH2 0x1333 DUP4 DUP4 PUSH2 0xC61 JUMP JUMPDEST POP PUSH2 0x133E DUP4 DUP3 PUSH2 0xE50 JUMP JUMPDEST POP POP POP POP JUMP JUMPDEST PUSH1 0x40 MLOAD DUP1 PUSH1 0xA0 ADD PUSH1 0x40 MSTORE DUP1 PUSH1 0x0 DUP1 NOT AND DUP2 MSTORE PUSH1 0x20 ADD PUSH1 0x0 PUSH20 0xFFFFFFFFFFFFFFFFFFFFFFFFFFFFFFFFFFFFFFFF AND DUP2 MSTORE PUSH1 0x20 ADD PUSH1 0x0 PUSH28 0xFFFFFFFFFFFFFFFFFFFFFFFFFFFFFFFFFFFFFFFFFFFFFFFFFFFFFFFF NOT AND DUP2 MSTORE PUSH1 0x20 ADD PUSH1 0x0 DUP2 MSTORE PUSH1 0x20 ADD PUSH2 0x13AB PUSH2 0x13B1 JUMP JUMPDEST DUP2 MSTORE POP SWAP1 JUMP JUMPDEST PUSH1 0x40 MLOAD DUP1 PUSH1 0x40 ADD PUSH1 0x40 MSTORE DUP1 PUSH1 0x60 DUP2 MSTORE PUSH1 0x20 ADD PUSH1 0x0 DUP2 MSTORE POP SWAP1 JUMP JUMPDEST PUSH1 0x0 DUP1 REVERT JUMPDEST PUSH1 0x0 DUP2 SWAP1 POP SWAP2 SWAP1 POP JUMP JUMPDEST PUSH2 0x13E3 DUP2 PUSH2 0x13D0 JUMP JUMPDEST DUP2 EQ PUSH2 0x13EE JUMPI PUSH1 0x0 DUP1 REVERT JUMPDEST POP JUMP JUMPDEST PUSH1 0x0 DUP2 CALLDATALOAD SWAP1 POP PUSH2 0x1400 DUP2 PUSH2 0x13DA JUMP JUMPDEST SWAP3 SWAP2 POP POP JUMP JUMPDEST PUSH1 0x0 DUP2 SWAP1 POP SWAP2 SWAP1 POP JUMP JUMPDEST PUSH2 0x1419 DUP2 PUSH2 0x1406 JUMP JUMPDEST DUP2 EQ PUSH2 0x1424 JUMPI PUSH1 0x0 DUP1 REVERT JUMPDEST POP JUMP JUMPDEST PUSH1 0x0 DUP2 CALLDATALOAD SWAP1 POP PUSH2 0x1436 DUP2 PUSH2 0x1410 JUMP JUMPDEST SWAP3 SWAP2 POP POP JUMP JUMPDEST PUSH1 0x0 DUP1 PUSH1 0x40 DUP4 DUP6 SUB SLT ISZERO PUSH2 0x1453 JUMPI PUSH2 0x1452 PUSH2 0x13CB JUMP JUMPDEST JUMPDEST PUSH1 0x0 PUSH2 0x1461 DUP6 DUP3 DUP7 ADD PUSH2 0x13F1 JUMP JUMPDEST SWAP3 POP POP PUSH1 0x20 PUSH2 0x1472 DUP6 DUP3 DUP7 ADD PUSH2 0x1427 JUMP JUMPDEST SWAP2 POP POP SWAP3 POP SWAP3 SWAP1 POP JUMP JUMPDEST PUSH2 0x1485 DUP2 PUSH2 0x13D0 JUMP JUMPDEST DUP3 MSTORE POP POP JUMP JUMPDEST PUSH1 0x0 PUSH1 0x20 DUP3 ADD SWAP1 POP PUSH2 0x14A0 PUSH1 0x0 DUP4 ADD DUP5 PUSH2 0x147C JUMP JUMPDEST SWAP3 SWAP2 POP POP JUMP JUMPDEST PUSH1 0x0 PUSH20 0xFFFFFFFFFFFFFFFFFFFFFFFFFFFFFFFFFFFFFFFF DUP3 AND SWAP1 POP SWAP2 SWAP1 POP JUMP JUMPDEST PUSH1 0x0 PUSH2 0x14D1 DUP3 PUSH2 0x14A6 JUMP JUMPDEST SWAP1 POP SWAP2 SWAP1 POP JUMP JUMPDEST PUSH2 0x14E1 DUP2 PUSH2 0x14C6 JUMP JUMPDEST DUP3 MSTORE POP POP JUMP JUMPDEST PUSH1 0x0 PUSH1 0x20 DUP3 ADD SWAP1 POP PUSH2 0x14FC PUSH1 0x0 DUP4 ADD DUP5 PUSH2 0x14D8 JUMP JUMPDEST SWAP3 SWAP2 POP POP JUMP JUMPDEST PUSH2 0x150B DUP2 PUSH2 0x1406 JUMP JUMPDEST DUP3 MSTORE POP POP JUMP JUMPDEST PUSH1 0x0 PUSH1 0x20 DUP3 ADD SWAP1 POP PUSH2 0x1526 PUSH1 0x0 DUP4 ADD DUP5 PUSH2 0x1502 JUMP JUMPDEST SWAP3 SWAP2 POP POP JUMP JUMPDEST PUSH2 0x1535 DUP2 PUSH2 0x14C6 JUMP JUMPDEST DUP2 EQ PUSH2 0x1540 JUMPI PUSH1 0x0 DUP1 REVERT JUMPDEST POP JUMP JUMPDEST PUSH1 0x0 DUP2 CALLDATALOAD SWAP1 POP PUSH2 0x1552 DUP2 PUSH2 0x152C JUMP JUMPDEST SWAP3 SWAP2 POP POP JUMP JUMPDEST PUSH1 0x0 PUSH1 0x20 DUP3 DUP5 SUB SLT ISZERO PUSH2 0x156E JUMPI PUSH2 0x156D PUSH2 0x13CB JUMP JUMPDEST JUMPDEST PUSH1 0x0 PUSH2 0x157C DUP5 DUP3 DUP6 ADD PUSH2 0x1543 JUMP JUMPDEST SWAP2 POP POP SWAP3 SWAP2 POP POP JUMP JUMPDEST PUSH1 0x0 DUP3 DUP3 MSTORE PUSH1 0x20 DUP3 ADD SWAP1 POP SWAP3 SWAP2 POP POP JUMP JUMPDEST PUSH32 0x536F75726365206D75737420626520746865206F7261636C65206F6620746865 PUSH1 0x0 DUP3 ADD MSTORE PUSH32 0x2072657175657374000000000000000000000000000000000000000000000000 PUSH1 0x20 DUP3 ADD MSTORE POP JUMP JUMPDEST PUSH1 0x0 PUSH2 0x15F2 PUSH1 0x28 DUP4 PUSH2 0x1585 JUMP JUMPDEST SWAP2 POP PUSH2 0x15FD DUP3 PUSH2 0x1596 JUMP JUMPDEST PUSH1 0x40 DUP3 ADD SWAP1 POP SWAP2 SWAP1 POP JUMP JUMPDEST PUSH1 0x0 PUSH1 0x20 DUP3 ADD SWAP1 POP DUP2 DUP2 SUB PUSH1 0x0 DUP4 ADD MSTORE PUSH2 0x1621 DUP2 PUSH2 0x15E5 JUMP JUMPDEST SWAP1 POP SWAP2 SWAP1 POP JUMP JUMPDEST PUSH32 0x4D7573742062652070726F706F736564206F776E657200000000000000000000 PUSH1 0x0 DUP3 ADD MSTORE POP JUMP JUMPDEST PUSH1 0x0 PUSH2 0x165E PUSH1 0x16 DUP4 PUSH2 0x1585 JUMP JUMPDEST SWAP2 POP PUSH2 0x1669 DUP3 PUSH2 0x1628 JUMP JUMPDEST PUSH1 0x20 DUP3 ADD SWAP1 POP SWAP2 SWAP1 POP JUMP JUMPDEST PUSH1 0x0 PUSH1 0x20 DUP3 ADD SWAP1 POP DUP2 DUP2 SUB PUSH1 0x0 DUP4 ADD MSTORE PUSH2 0x168D DUP2 PUSH2 0x1651 JUMP JUMPDEST SWAP1 POP SWAP2 SWAP1 POP JUMP JUMPDEST PUSH1 0x0 DUP2 MLOAD SWAP1 POP PUSH2 0x16A3 DUP2 PUSH2 0x1410 JUMP JUMPDEST SWAP3 SWAP2 POP POP JUMP JUMPDEST PUSH1 0x0 PUSH1 0x20 DUP3 DUP5 SUB SLT ISZERO PUSH2 0x16BF JUMPI PUSH2 0x16BE PUSH2 0x13CB JUMP JUMPDEST JUMPDEST PUSH1 0x0 PUSH2 0x16CD DUP5 DUP3 DUP6 ADD PUSH2 0x1694 JUMP JUMPDEST SWAP2 POP POP SWAP3 SWAP2 POP POP JUMP JUMPDEST PUSH1 0x0 PUSH1 0x40 DUP3 ADD SWAP1 POP PUSH2 0x16EB PUSH1 0x0 DUP4 ADD DUP6 PUSH2 0x14D8 JUMP JUMPDEST PUSH2 0x16F8 PUSH1 0x20 DUP4 ADD DUP5 PUSH2 0x1502 JUMP JUMPDEST SWAP4 SWAP3 POP POP POP JUMP JUMPDEST PUSH1 0x0 DUP2 ISZERO ISZERO SWAP1 POP SWAP2 SWAP1 POP JUMP JUMPDEST PUSH2 0x1714 DUP2 PUSH2 0x16FF JUMP JUMPDEST DUP2 EQ PUSH2 0x171F JUMPI PUSH1 0x0 DUP1 REVERT JUMPDEST POP JUMP JUMPDEST PUSH1 0x0 DUP2 MLOAD SWAP1 POP PUSH2 0x1731 DUP2 PUSH2 0x170B JUMP JUMPDEST SWAP3 SWAP2 POP POP JUMP JUMPDEST PUSH1 0x0 PUSH1 0x20 DUP3 DUP5 SUB SLT ISZERO PUSH2 0x174D JUMPI PUSH2 0x174C PUSH2 0x13CB JUMP JUMPDEST JUMPDEST PUSH1 0x0 PUSH2 0x175B DUP5 DUP3 DUP6 ADD PUSH2 0x1722 JUMP JUMPDEST SWAP2 POP POP SWAP3 SWAP2 POP POP JUMP JUMPDEST PUSH32 0x556E61626C6520746F207472616E736665720000000000000000000000000000 PUSH1 0x0 DUP3 ADD MSTORE POP JUMP JUMPDEST PUSH1 0x0 PUSH2 0x179A PUSH1 0x12 DUP4 PUSH2 0x1585 JUMP JUMPDEST SWAP2 POP PUSH2 0x17A5 DUP3 PUSH2 0x1764 JUMP JUMPDEST PUSH1 0x20 DUP3 ADD SWAP1 POP SWAP2 SWAP1 POP JUMP JUMPDEST PUSH1 0x0 PUSH1 0x20 DUP3 ADD SWAP1 POP DUP2 DUP2 SUB PUSH1 0x0 DUP4 ADD MSTORE PUSH2 0x17C9 DUP2 PUSH2 0x178D JUMP JUMPDEST SWAP1 POP SWAP2 SWAP1 POP JUMP JUMPDEST PUSH32 0x4F6E6C792063616C6C61626C65206279206F776E657200000000000000000000 PUSH1 0x0 DUP3 ADD MSTORE POP JUMP JUMPDEST PUSH1 0x0 PUSH2 0x1806 PUSH1 0x16 DUP4 PUSH2 0x1585 JUMP JUMPDEST SWAP2 POP PUSH2 0x1811 DUP3 PUSH2 0x17D0 JUMP JUMPDEST PUSH1 0x20 DUP3 ADD SWAP1 POP SWAP2 SWAP1 POP JUMP JUMPDEST PUSH1 0x0 PUSH1 0x20 DUP3 ADD SWAP1 POP DUP2 DUP2 SUB PUSH1 0x0 DUP4 ADD MSTORE PUSH2 0x1835 DUP2 PUSH2 0x17F9 JUMP JUMPDEST SWAP1 POP SWAP2 SWAP1 POP JUMP JUMPDEST PUSH32 0x43616E6E6F74207472616E7366657220746F2073656C66000000000000000000 PUSH1 0x0 DUP3 ADD MSTORE POP JUMP JUMPDEST PUSH1 0x0 PUSH2 0x1872 PUSH1 0x17 DUP4 PUSH2 0x1585 JUMP JUMPDEST SWAP2 POP PUSH2 0x187D DUP3 PUSH2 0x183C JUMP JUMPDEST PUSH1 0x20 DUP3 ADD SWAP1 POP SWAP2 SWAP1 POP JUMP JUMPDEST PUSH1 0x0 PUSH1 0x20 DUP3 ADD SWAP1 POP DUP2 DUP2 SUB PUSH1 0x0 DUP4 ADD MSTORE PUSH2 0x18A1 DUP2 PUSH2 0x1865 JUMP JUMPDEST SWAP1 POP SWAP2 SWAP1 POP JUMP JUMPDEST PUSH1 0x0 DUP2 SWAP1 POP SWAP2 SWAP1 POP JUMP JUMPDEST PUSH32 0x4E487B7100000000000000000000000000000000000000000000000000000000 PUSH1 0x0 MSTORE PUSH1 0x11 PUSH1 0x4 MSTORE PUSH1 0x24 PUSH1 0x0 REVERT JUMPDEST PUSH1 0x0 PUSH2 0x18EC DUP3 PUSH2 0x18A8 JUMP JUMPDEST SWAP2 POP PUSH2 0x18F7 DUP4 PUSH2 0x18A8 JUMP JUMPDEST SWAP3 POP DUP3 DUP3 SUB SWAP1 POP DUP2 DUP2 SLT PUSH1 0x0 DUP5 SLT AND DUP3 DUP3 SGT PUSH1 0x0 DUP6 SLT ISZERO AND OR ISZERO PUSH2 0x191E JUMPI PUSH2 0x191D PUSH2 0x18B2 JUMP JUMPDEST JUMPDEST SWAP3 SWAP2 POP POP JUMP JUMPDEST PUSH1 0x0 PUSH2 0x192F DUP3 PUSH2 0x1406 JUMP JUMPDEST SWAP2 POP PUSH2 0x193A DUP4 PUSH2 0x1406 JUMP JUMPDEST SWAP3 POP DUP3 DUP3 ADD SWAP1 POP DUP1 DUP3 GT ISZERO PUSH2 0x1952 JUMPI PUSH2 0x1951 PUSH2 0x18B2 JUMP JUMPDEST JUMPDEST SWAP3 SWAP2 POP POP JUMP JUMPDEST PUSH1 0x0 PUSH32 0xFFFFFFFF00000000000000000000000000000000000000000000000000000000 DUP3 AND SWAP1 POP SWAP2 SWAP1 POP JUMP JUMPDEST PUSH2 0x198D DUP2 PUSH2 0x1958 JUMP JUMPDEST DUP3 MSTORE POP POP JUMP JUMPDEST PUSH1 0x0 DUP2 MLOAD SWAP1 POP SWAP2 SWAP1 POP JUMP JUMPDEST PUSH1 0x0 DUP3 DUP3 MSTORE PUSH1 0x20 DUP3 ADD SWAP1 POP SWAP3 SWAP2 POP POP JUMP JUMPDEST PUSH1 0x0 JUMPDEST DUP4 DUP2 LT ISZERO PUSH2 0x19CD JUMPI DUP1 DUP3 ADD MLOAD DUP2 DUP5 ADD MSTORE PUSH1 0x20 DUP2 ADD SWAP1 POP PUSH2 0x19B2 JUMP JUMPDEST PUSH1 0x0 DUP5 DUP5 ADD MSTORE POP POP POP POP JUMP JUMPDEST PUSH1 0x0 PUSH1 0x1F NOT PUSH1 0x1F DUP4 ADD AND SWAP1 POP SWAP2 SWAP1 POP JUMP JUMPDEST PUSH1 0x0 PUSH2 0x19F5 DUP3 PUSH2 0x1993 JUMP JUMPDEST PUSH2 0x19FF DUP2 DUP6 PUSH2 0x199E JUMP JUMPDEST SWAP4 POP PUSH2 0x1A0F DUP2 DUP6 PUSH1 0x20 DUP7 ADD PUSH2 0x19AF JUMP JUMPDEST PUSH2 0x1A18 DUP2 PUSH2 0x19D9 JUMP JUMPDEST DUP5 ADD SWAP2 POP POP SWAP3 SWAP2 POP POP JUMP JUMPDEST PUSH1 0x0 PUSH2 0x100 DUP3 ADD SWAP1 POP PUSH2 0x1A39 PUSH1 0x0 DUP4 ADD DUP12 PUSH2 0x14D8 JUMP JUMPDEST PUSH2 0x1A46 PUSH1 0x20 DUP4 ADD DUP11 PUSH2 0x1502 JUMP JUMPDEST PUSH2 0x1A53 PUSH1 0x40 DUP4 ADD DUP10 PUSH2 0x147C JUMP JUMPDEST PUSH2 0x1A60 PUSH1 0x60 DUP4 ADD DUP9 PUSH2 0x14D8 JUMP JUMPDEST PUSH2 0x1A6D PUSH1 0x80 DUP4 ADD DUP8 PUSH2 0x1984 JUMP JUMPDEST PUSH2 0x1A7A PUSH1 0xA0 DUP4 ADD DUP7 PUSH2 0x1502 JUMP JUMPDEST PUSH2 0x1A87 PUSH1 0xC0 DUP4 ADD DUP6 PUSH2 0x1502 JUMP JUMPDEST DUP2 DUP2 SUB PUSH1 0xE0 DUP4 ADD MSTORE PUSH2 0x1A99 DUP2 DUP5 PUSH2 0x19EA JUMP JUMPDEST SWAP1 POP SWAP10 SWAP9 POP POP POP POP POP POP POP POP POP JUMP JUMPDEST PUSH32 0x4E487B7100000000000000000000000000000000000000000000000000000000 PUSH1 0x0 MSTORE PUSH1 0x12 PUSH1 0x4 MSTORE PUSH1 0x24 PUSH1 0x0 REVERT JUMPDEST PUSH1 0x0 PUSH2 0x1AE2 DUP3 PUSH2 0x1406 JUMP JUMPDEST SWAP2 POP PUSH2 0x1AED DUP4 PUSH2 0x1406 JUMP JUMPDEST SWAP3 POP DUP3 PUSH2 0x1AFD JUMPI PUSH2 0x1AFC PUSH2 0x1AA8 JUMP JUMPDEST JUMPDEST DUP3 DUP3 MOD SWAP1 POP SWAP3 SWAP2 POP POP JUMP JUMPDEST PUSH1 0x0 PUSH2 0x1B13 DUP3 PUSH2 0x1406 JUMP JUMPDEST SWAP2 POP PUSH2 0x1B1E DUP4 PUSH2 0x1406 JUMP JUMPDEST SWAP3 POP DUP3 DUP3 SUB SWAP1 POP DUP2 DUP2 GT ISZERO PUSH2 0x1B36 JUMPI PUSH2 0x1B35 PUSH2 0x18B2 JUMP JUMPDEST JUMPDEST SWAP3 SWAP2 POP POP JUMP JUMPDEST PUSH1 0x0 DUP2 SWAP1 POP SWAP2 SWAP1 POP JUMP JUMPDEST PUSH1 0x0 PUSH2 0x1B61 PUSH2 0x1B5C PUSH2 0x1B57 DUP5 PUSH2 0x14A6 JUMP JUMPDEST PUSH2 0x1B3C JUMP JUMPDEST PUSH2 0x14A6 JUMP JUMPDEST SWAP1 POP SWAP2 SWAP1 POP JUMP JUMPDEST PUSH1 0x0 PUSH2 0x1B73 DUP3 PUSH2 0x1B46 JUMP JUMPDEST SWAP1 POP SWAP2 SWAP1 POP JUMP JUMPDEST PUSH1 0x0 PUSH2 0x1B85 DUP3 PUSH2 0x1B68 JUMP JUMPDEST SWAP1 POP SWAP2 SWAP1 POP JUMP JUMPDEST PUSH1 0x0 DUP2 PUSH1 0x60 SHL SWAP1 POP SWAP2 SWAP1 POP JUMP JUMPDEST PUSH1 0x0 PUSH2 0x1BA4 DUP3 PUSH2 0x1B8C JUMP JUMPDEST SWAP1 POP SWAP2 SWAP1 POP JUMP JUMPDEST PUSH1 0x0 PUSH2 0x1BB6 DUP3 PUSH2 0x1B99 JUMP JUMPDEST SWAP1 POP SWAP2 SWAP1 POP JUMP JUMPDEST PUSH2 0x1BCE PUSH2 0x1BC9 DUP3 PUSH2 0x1B7A JUMP JUMPDEST PUSH2 0x1BAB JUMP JUMPDEST DUP3 MSTORE POP POP JUMP JUMPDEST PUSH1 0x0 DUP2 SWAP1 POP SWAP2 SWAP1 POP JUMP JUMPDEST PUSH2 0x1BEF PUSH2 0x1BEA DUP3 PUSH2 0x1406 JUMP JUMPDEST PUSH2 0x1BD4 JUMP JUMPDEST DUP3 MSTORE POP POP JUMP JUMPDEST PUSH1 0x0 PUSH2 0x1C01 DUP3 DUP6 PUSH2 0x1BBD JUMP JUMPDEST PUSH1 0x14 DUP3 ADD SWAP2 POP PUSH2 0x1C11 DUP3 DUP5 PUSH2 0x1BDE JUMP JUMPDEST PUSH1 0x20 DUP3 ADD SWAP2 POP DUP2 SWAP1 POP SWAP4 SWAP3 POP POP POP JUMP JUMPDEST PUSH1 0x0 PUSH1 0x60 DUP3 ADD SWAP1 POP PUSH2 0x1C36 PUSH1 0x0 DUP4 ADD DUP7 PUSH2 0x14D8 JUMP JUMPDEST PUSH2 0x1C43 PUSH1 0x20 DUP4 ADD DUP6 PUSH2 0x1502 JUMP JUMPDEST DUP2 DUP2 SUB PUSH1 0x40 DUP4 ADD MSTORE PUSH2 0x1C55 DUP2 DUP5 PUSH2 0x19EA JUMP JUMPDEST SWAP1 POP SWAP5 SWAP4 POP POP POP POP JUMP JUMPDEST PUSH32 0x756E61626C6520746F207472616E73666572416E6443616C6C20746F206F7261 PUSH1 0x0 DUP3 ADD MSTORE PUSH32 0x636C650000000000000000000000000000000000000000000000000000000000 PUSH1 0x20 DUP3 ADD MSTORE POP JUMP JUMPDEST PUSH1 0x0 PUSH2 0x1CBB PUSH1 0x23 DUP4 PUSH2 0x1585 JUMP JUMPDEST SWAP2 POP PUSH2 0x1CC6 DUP3 PUSH2 0x1C5F JUMP JUMPDEST PUSH1 0x40 DUP3 ADD SWAP1 POP SWAP2 SWAP1 POP JUMP JUMPDEST PUSH1 0x0 PUSH1 0x20 DUP3 ADD SWAP1 POP DUP2 DUP2 SUB PUSH1 0x0 DUP4 ADD MSTORE PUSH2 0x1CEA DUP2 PUSH2 0x1CAE JUMP JUMPDEST SWAP1 POP SWAP2 SWAP1 POP JUMP JUMPDEST PUSH1 0x0 PUSH2 0x1CFC DUP3 PUSH2 0x1406 JUMP JUMPDEST SWAP2 POP PUSH2 0x1D07 DUP4 PUSH2 0x1406 JUMP JUMPDEST SWAP3 POP DUP3 DUP3 MUL PUSH2 0x1D15 DUP2 PUSH2 0x1406 JUMP JUMPDEST SWAP2 POP DUP3 DUP3 DIV DUP5 EQ DUP4 ISZERO OR PUSH2 0x1D2C JUMPI PUSH2 0x1D2B PUSH2 0x18B2 JUMP JUMPDEST JUMPDEST POP SWAP3 SWAP2 POP POP JUMP JUMPDEST PUSH1 0x0 DUP2 PUSH1 0x1 SHR SWAP1 POP SWAP2 SWAP1 POP JUMP JUMPDEST PUSH1 0x0 DUP1 DUP3 SWAP2 POP DUP4 SWAP1 POP JUMPDEST PUSH1 0x1 DUP6 GT ISZERO PUSH2 0x1D8A JUMPI DUP1 DUP7 DIV DUP2 GT ISZERO PUSH2 0x1D66 JUMPI PUSH2 0x1D65 PUSH2 0x18B2 JUMP JUMPDEST JUMPDEST PUSH1 0x1 DUP6 AND ISZERO PUSH2 0x1D75 JUMPI DUP1 DUP3 MUL SWAP2 POP JUMPDEST DUP1 DUP2 MUL SWAP1 POP PUSH2 0x1D83 DUP6 PUSH2 0x1D33 JUMP JUMPDEST SWAP5 POP PUSH2 0x1D4A JUMP JUMPDEST SWAP5 POP SWAP5 SWAP3 POP POP POP JUMP JUMPDEST PUSH1 0x0 DUP3 PUSH2 0x1DA3 JUMPI PUSH1 0x1 SWAP1 POP PUSH2 0x1E5F JUMP JUMPDEST DUP2 PUSH2 0x1DB1 JUMPI PUSH1 0x0 SWAP1 POP PUSH2 0x1E5F JUMP JUMPDEST DUP2 PUSH1 0x1 DUP2 EQ PUSH2 0x1DC7 JUMPI PUSH1 0x2 DUP2 EQ PUSH2 0x1DD1 JUMPI PUSH2 0x1E00 JUMP JUMPDEST PUSH1 0x1 SWAP2 POP POP PUSH2 0x1E5F JUMP JUMPDEST PUSH1 0xFF DUP5 GT ISZERO PUSH2 0x1DE3 JUMPI PUSH2 0x1DE2 PUSH2 0x18B2 JUMP JUMPDEST JUMPDEST DUP4 PUSH1 0x2 EXP SWAP2 POP DUP5 DUP3 GT ISZERO PUSH2 0x1DFA JUMPI PUSH2 0x1DF9 PUSH2 0x18B2 JUMP JUMPDEST JUMPDEST POP PUSH2 0x1E5F JUMP JUMPDEST POP PUSH1 0x20 DUP4 LT PUSH2 0x133 DUP4 LT AND PUSH1 0x4E DUP5 LT PUSH1 0xB DUP5 LT AND OR ISZERO PUSH2 0x1E35 JUMPI DUP3 DUP3 EXP SWAP1 POP DUP4 DUP2 GT ISZERO PUSH2 0x1E30 JUMPI PUSH2 0x1E2F PUSH2 0x18B2 JUMP JUMPDEST JUMPDEST PUSH2 0x1E5F JUMP JUMPDEST PUSH2 0x1E42 DUP5 DUP5 DUP5 PUSH1 0x1 PUSH2 0x1D40 JUMP JUMPDEST SWAP3 POP SWAP1 POP DUP2 DUP5 DIV DUP2 GT ISZERO PUSH2 0x1E59 JUMPI PUSH2 0x1E58 PUSH2 0x18B2 JUMP JUMPDEST JUMPDEST DUP2 DUP2 MUL SWAP1 POP JUMPDEST SWAP4 SWAP3 POP POP POP JUMP JUMPDEST PUSH1 0x0 PUSH2 0x1E71 DUP3 PUSH2 0x1406 JUMP JUMPDEST SWAP2 POP PUSH2 0x1E7C DUP4 PUSH2 0x1406 JUMP JUMPDEST SWAP3 POP PUSH2 0x1EA9 PUSH32 0xFFFFFFFFFFFFFFFFFFFFFFFFFFFFFFFFFFFFFFFFFFFFFFFFFFFFFFFFFFFFFFFF DUP5 DUP5 PUSH2 0x1D93 JUMP JUMPDEST SWAP1 POP SWAP3 SWAP2 POP POP JUMP INVALID PUSH9 0x747470733A2F2F6D69 PUSH15 0x2D6170692E63727970746F636F6D70 PUSH2 0x7265 0x2E PUSH4 0x6F6D2F64 PUSH2 0x7461 0x2F PUSH17 0x726963656D756C746966756C6C3F667379 PUSH14 0x733D455448267473796D733D5553 PREVRANDAO LOG2 PUSH5 0x6970667358 0x22 SLT KECCAK256 MSIZE CALL DUP15 0xB4 SIGNEXTEND MULMOD 0xB6 MSTORE8 0x2D PUSH29 0xEE308296A9888E537776718547211FAC0714C8E3C00664736F6C634300 ADDMOD SGT STOP CALLER "},"methodIdentifiers":{"acceptOwnership()":"79ba5097","fee()":"ddca3f43","fulfill(bytes32,uint256)":"4357855e","jobId()":"c2939d97","owner()":"8da5cb5b","requestVolumeData()":"6021abac","transferOwnership(address)":"f2fde38b","volume()":"c618a1e4","withdrawLink()":"8dc654a2"}}}}}