{"contracts/FetchFromArray.sol":{"FetchFromArray":{"abi":[{"inputs":[{"internalType":"address","name":"_linkToken","type":"address"},{"internalType":"address","name":"_oracle","type":"address"},{"internalType":"string","name":"_jobId","type":"string"}],"stateMutability":"nonpayable","type":"constructor"},{"anonymous":false,"inputs":[{"indexed":true,"internalType":"bytes32","name":"id","type":"bytes32"}],"name":"ChainlinkCancelled","type":"event"},{"anonymous":false,"inputs":[{"indexed":true,"internalType":"bytes32","name":"id","type":"bytes32"}],"name":"ChainlinkFulfilled","type":"event"},{"anonymous":false,"inputs":[{"indexed":true,"internalType":"bytes32","name":"id","type":"bytes32"}],"name":"ChainlinkRequested","type":"event"},{"anonymous":false,"inputs":[{"indexed":true,"internalType":"address","name":"from","type":"address"},{"indexed":true,"internalType":"address","name":"to","type":"address"}],"name":"OwnershipTransferRequested","type":"event"},{"anonymous":false,"inputs":[{"indexed":true,"internalType":"address","name":"from","type":"address"},{"indexed":true,"internalType":"address","name":"to","type":"address"}],"name":"OwnershipTransferred","type":"event"},{"anonymous":false,"inputs":[{"indexed":true,"internalType":"bytes32","name":"requestId","type":"bytes32"},{"indexed":false,"internalType":"string","name":"id","type":"string"}],"name":"RequestFirstId","type":"event"},{"inputs":[],"name":"acceptOwnership","outputs":[],"stateMutability":"nonpayable","type":"function"},{"inputs":[{"internalType":"bytes32","name":"_requestId","type":"bytes32"},{"internalType":"string","name":"_id","type":"string"}],"name":"fulfill","outputs":[],"stateMutability":"nonpayable","type":"function"},{"inputs":[],"name":"id","outputs":[{"internalType":"string","name":"","type":"string"}],"stateMutability":"view","type":"function"},{"inputs":[],"name":"owner","outputs":[{"internalType":"address","name":"","type":"address"}],"stateMutability":"view","type":"function"},{"inputs":[],"name":"requestFirstId","outputs":[{"internalType":"bytes32","name":"requestId","type":"bytes32"}],"stateMutability":"nonpayable","type":"function"},{"inputs":[{"internalType":"address","name":"to","type":"address"}],"name":"transferOwnership","outputs":[],"stateMutability":"nonpayable","type":"function"},{"inputs":[],"name":"withdrawLink","outputs":[],"stateMutability":"nonpayable","type":"function"}],"evm":{"bytecode":{"linkReferences":{},"object":"608060405260016004553480156200001657600080fd5b5060405162002a6138038062002a6183398181016040528101906200003c919062000576565b338060008073ffffffffffffffffffffffffffffffffffffffff168273ffffffffffffffffffffffffffffffffffffffff1603620000b1576040517f08c379a0000000000000000000000000000000000000000000000000000000008152600401620000a89062000652565b60405180910390fd5b81600660006101000a81548173ffffffffffffffffffffffffffffffffffffffff021916908373ffffffffffffffffffffffffffffffffffffffff160217905550600073ffffffffffffffffffffffffffffffffffffffff168173ffffffffffffffffffffffffffffffffffffffff161462000139576200013881620001c560201b60201c565b5b5050506200014d83620002f660201b60201c565b6200015e826200033a60201b60201c565b80604051602001620001719190620006c1565b6040516020818303038152906040526200018b9062000723565b600981905550600a670de0b6b3a76400006001620001aa9190620007cc565b620001b6919062000846565b600a81905550505050620008f0565b3373ffffffffffffffffffffffffffffffffffffffff168173ffffffffffffffffffffffffffffffffffffffff160362000236576040517f08c379a00000000000000000000000000000000000000000000000000000000081526004016200022d90620008ce565b60405180910390fd5b80600760006101000a81548173ffffffffffffffffffffffffffffffffffffffff021916908373ffffffffffffffffffffffffffffffffffffffff1602179055508073ffffffffffffffffffffffffffffffffffffffff16600660009054906101000a900473ffffffffffffffffffffffffffffffffffffffff1673ffffffffffffffffffffffffffffffffffffffff167fed8889f560326eb138920d842192f0eb3dd22b4f139c87a2c57538e05bae127860405160405180910390a350565b80600260006101000a81548173ffffffffffffffffffffffffffffffffffffffff021916908373ffffffffffffffffffffffffffffffffffffffff16021790555050565b80600360006101000a81548173ffffffffffffffffffffffffffffffffffffffff021916908373ffffffffffffffffffffffffffffffffffffffff16021790555050565b6000604051905090565b600080fd5b600080fd5b600073ffffffffffffffffffffffffffffffffffffffff82169050919050565b6000620003bf8262000392565b9050919050565b620003d181620003b2565b8114620003dd57600080fd5b50565b600081519050620003f181620003c6565b92915050565b600080fd5b600080fd5b6000601f19601f8301169050919050565b7f4e487b7100000000000000000000000000000000000000000000000000000000600052604160045260246000fd5b6200044c8262000401565b810181811067ffffffffffffffff821117156200046e576200046d62000412565b5b80604052505050565b6000620004836200037e565b905062000491828262000441565b919050565b600067ffffffffffffffff821115620004b457620004b362000412565b5b620004bf8262000401565b9050602081019050919050565b60005b83811015620004ec578082015181840152602081019050620004cf565b60008484015250505050565b60006200050f620005098462000496565b62000477565b9050828152602081018484840111156200052e576200052d620003fc565b5b6200053b848285620004cc565b509392505050565b600082601f8301126200055b576200055a620003f7565b5b81516200056d848260208601620004f8565b91505092915050565b60008060006060848603121562000592576200059162000388565b5b6000620005a286828701620003e0565b9350506020620005b586828701620003e0565b925050604084015167ffffffffffffffff811115620005d957620005d86200038d565b5b620005e78682870162000543565b9150509250925092565b600082825260208201905092915050565b7f43616e6e6f7420736574206f776e657220746f207a65726f0000000000000000600082015250565b60006200063a601883620005f1565b9150620006478262000602565b602082019050919050565b600060208201905081810360008301526200066d816200062b565b9050919050565b600081519050919050565b600081905092915050565b6000620006978262000674565b620006a381856200067f565b9350620006b5818560208601620004cc565b80840191505092915050565b6000620006cf82846200068a565b915081905092915050565b600081519050919050565b6000819050602082019050919050565b6000819050919050565b60006200070d8251620006f5565b80915050919050565b600082821b905092915050565b60006200073082620006da565b826200073c84620006e5565b90506200074981620006ff565b925060208210156200078c57620007877fffffffffffffffffffffffffffffffffffffffffffffffffffffffffffffffff8360200360080262000716565b831692505b5050919050565b6000819050919050565b7f4e487b7100000000000000000000000000000000000000000000000000000000600052601160045260246000fd5b6000620007d98262000793565b9150620007e68362000793565b9250828202620007f68162000793565b9150828204841483151762000810576200080f6200079d565b5b5092915050565b7f4e487b7100000000000000000000000000000000000000000000000000000000600052601260045260246000fd5b6000620008538262000793565b9150620008608362000793565b92508262000873576200087262000817565b5b828204905092915050565b7f43616e6e6f74207472616e7366657220746f2073656c66000000000000000000600082015250565b6000620008b6601783620005f1565b9150620008c3826200087e565b602082019050919050565b60006020820190508181036000830152620008e981620008a7565b9050919050565b61216180620009006000396000f3fe608060405234801561001057600080fd5b506004361061007d5760003560e01c80638da5cb5b1161005b5780638da5cb5b146100c65780638dc654a2146100e4578063af640d0f146100ee578063f2fde38b1461010c5761007d565b806309323a6a1461008257806337441996146100a057806379ba5097146100bc575b600080fd5b61008a610128565b60405161009791906111f7565b60405180910390f35b6100ba60048036038101906100b59190611398565b610234565b005b6100c4610386565b005b6100ce61051d565b6040516100db9190611435565b60405180910390f35b6100ec610547565b005b6100f6610694565b60405161010391906114cf565b60405180910390f35b6101266004803603810190610121919061151d565b610722565b005b60008061013f60095430633744199660e01b610736565b90506101a36040518060400160405280600381526020017f67657400000000000000000000000000000000000000000000000000000000008152506040518060800160405280604a81526020016120e2604a9139836107679092919063ffffffff16565b6102226040518060400160405280600481526020017f70617468000000000000000000000000000000000000000000000000000000008152506040518060400160405280600481526020017f302c696400000000000000000000000000000000000000000000000000000000815250836107679092919063ffffffff16565b61022e81600a5461079a565b91505090565b816005600082815260200190815260200160002060009054906101000a900473ffffffffffffffffffffffffffffffffffffffff1673ffffffffffffffffffffffffffffffffffffffff163373ffffffffffffffffffffffffffffffffffffffff16146102d6576040517f08c379a00000000000000000000000000000000000000000000000000000000081526004016102cd906115bc565b60405180910390fd5b6005600082815260200190815260200160002060006101000a81549073ffffffffffffffffffffffffffffffffffffffff0219169055807f7cc135e0cebb02c3480ae5d74d377283180a2601f8f644edf7987b009316c63a60405160405180910390a2827f5b72487f892feba565865a27f191da8fb1e852651bd966bfb0a41fc272c54aea8360405161036991906114cf565b60405180910390a2816008908161038091906117f2565b50505050565b600760009054906101000a900473ffffffffffffffffffffffffffffffffffffffff1673ffffffffffffffffffffffffffffffffffffffff163373ffffffffffffffffffffffffffffffffffffffff1614610416576040517f08c379a000000000000000000000000000000000000000000000000000000000815260040161040d90611910565b60405180910390fd5b6000600660009054906101000a900473ffffffffffffffffffffffffffffffffffffffff16905033600660006101000a81548173ffffffffffffffffffffffffffffffffffffffff021916908373ffffffffffffffffffffffffffffffffffffffff1602179055506000600760006101000a81548173ffffffffffffffffffffffffffffffffffffffff021916908373ffffffffffffffffffffffffffffffffffffffff1602179055503373ffffffffffffffffffffffffffffffffffffffff168173ffffffffffffffffffffffffffffffffffffffff167f8be0079c531659141344cd1fd0a4f28419497f9722a3daafe3b4186f6b6457e060405160405180910390a350565b6000600660009054906101000a900473ffffffffffffffffffffffffffffffffffffffff16905090565b61054f6107d1565b6000610559610863565b90508073ffffffffffffffffffffffffffffffffffffffff1663a9059cbb338373ffffffffffffffffffffffffffffffffffffffff166370a08231306040518263ffffffff1660e01b81526004016105b19190611435565b602060405180830381865afa1580156105ce573d6000803e3d6000fd5b505050506040513d601f19601f820116820180604052508101906105f2919061195c565b6040518363ffffffff1660e01b815260040161060f929190611998565b6020604051808303816000875af115801561062e573d6000803e3d6000fd5b505050506040513d601f19601f8201168201806040525081019061065291906119f9565b610691576040517f08c379a000000000000000000000000000000000000000000000000000000000815260040161068890611a72565b60405180910390fd5b50565b600880546106a19061160b565b80601f01602080910402602001604051908101604052809291908181526020018280546106cd9061160b565b801561071a5780601f106106ef5761010080835404028352916020019161071a565b820191906000526020600020905b8154815290600101906020018083116106fd57829003601f168201915b505050505081565b61072a6107d1565b6107338161088d565b50565b61073e611157565b610746611157565b61075d858585846109bb909392919063ffffffff16565b9150509392505050565b61077e828460800151610a6b90919063ffffffff16565b610795818460800151610a6b90919063ffffffff16565b505050565b60006107c9600360009054906101000a900473ffffffffffffffffffffffffffffffffffffffff168484610a90565b905092915050565b600660009054906101000a900473ffffffffffffffffffffffffffffffffffffffff1673ffffffffffffffffffffffffffffffffffffffff163373ffffffffffffffffffffffffffffffffffffffff1614610861576040517f08c379a000000000000000000000000000000000000000000000000000000000815260040161085890611ade565b60405180910390fd5b565b6000600260009054906101000a900473ffffffffffffffffffffffffffffffffffffffff16905090565b3373ffffffffffffffffffffffffffffffffffffffff168173ffffffffffffffffffffffffffffffffffffffff16036108fb576040517f08c379a00000000000000000000000000000000000000000000000000000000081526004016108f290611b4a565b60405180910390fd5b80600760006101000a81548173ffffffffffffffffffffffffffffffffffffffff021916908373ffffffffffffffffffffffffffffffffffffffff1602179055508073ffffffffffffffffffffffffffffffffffffffff16600660009054906101000a900473ffffffffffffffffffffffffffffffffffffffff1673ffffffffffffffffffffffffffffffffffffffff167fed8889f560326eb138920d842192f0eb3dd22b4f139c87a2c57538e05bae127860405160405180910390a350565b6109c3611157565b6109d38560800151610100610b5c565b508385600001818152505082856020019073ffffffffffffffffffffffffffffffffffffffff16908173ffffffffffffffffffffffffffffffffffffffff16815250508185604001907bffffffffffffffffffffffffffffffffffffffffffffffffffffffff191690817bffffffffffffffffffffffffffffffffffffffffffffffffffffffff191681525050849050949350505050565b610a788260038351610bc6565b610a8b8183610d4b90919063ffffffff16565b505050565b6000806004549050600181610aa59190611b99565b6004819055506000634042994660e01b60008087600001513089604001518760018c6080015160000151604051602401610ae6989796959493929190611c5d565b604051602081830303815290604052907bffffffffffffffffffffffffffffffffffffffffffffffffffffffff19166020820180517bffffffffffffffffffffffffffffffffffffffffffffffffffffffff83818316178352505050509050610b5186838684610d6d565b925050509392505050565b610b646111c4565b6000602083610b739190611d11565b14610b9f57602082610b859190611d11565b6020610b919190611d42565b82610b9c9190611b99565b91505b81836020018181525050604051808452600081528281016020016040525082905092915050565b60178167ffffffffffffffff1611610bfd57610bf78160058460ff16901b60ff161784610f0290919063ffffffff16565b50610d46565b60ff8167ffffffffffffffff1611610c5357610c2c601860058460ff16901b1784610f0290919063ffffffff16565b50610c4d8167ffffffffffffffff16600185610f229092919063ffffffff16565b50610d45565b61ffff8167ffffffffffffffff1611610caa57610c83601960058460ff16901b1784610f0290919063ffffffff16565b50610ca48167ffffffffffffffff16600285610f229092919063ffffffff16565b50610d44565b63ffffffff8167ffffffffffffffff1611610d0357610cdc601a60058460ff16901b1784610f0290919063ffffffff16565b50610cfd8167ffffffffffffffff16600485610f229092919063ffffffff16565b50610d43565b610d20601b60058460ff16901b1784610f0290919063ffffffff16565b50610d418167ffffffffffffffff16600885610f229092919063ffffffff16565b505b5b5b5b505050565b610d536111c4565b610d6583846000015151848551610f44565b905092915050565b60003084604051602001610d82929190611e25565b604051602081830303815290604052805190602001209050846005600083815260200190815260200160002060006101000a81548173ffffffffffffffffffffffffffffffffffffffff021916908373ffffffffffffffffffffffffffffffffffffffff160217905550807fb5e6e01e79f91267dc17b4e6314d5d4d03593d2ceee0fbb452b750bd70ea5af960405160405180910390a2600260009054906101000a900473ffffffffffffffffffffffffffffffffffffffff1673ffffffffffffffffffffffffffffffffffffffff16634000aea08685856040518463ffffffff1660e01b8152600401610e7893929190611e51565b6020604051808303816000875af1158015610e97573d6000803e3d6000fd5b505050506040513d601f19601f82011682018060405250810190610ebb91906119f9565b610efa576040517f08c379a0000000000000000000000000000000000000000000000000000000008152600401610ef190611f01565b60405180910390fd5b949350505050565b610f0a6111c4565b610f1a8384600001515184611033565b905092915050565b610f2a6111c4565b610f3b848560000151518585611089565b90509392505050565b610f4c6111c4565b8251821115610f5a57600080fd5b84602001518285610f6b9190611b99565b1115610fa057610f9f856002610f9088602001518887610f8b9190611b99565b611117565b610f9a9190611f21565b611133565b5b600080865180518760208301019350808887011115610fbf5787860182525b60208701925050505b602084106110065780518252602082610fe19190611b99565b9150602081610ff09190611b99565b9050602084610fff9190611d42565b9350610fc8565b60006001856020036101000a03905080198251168184511681811785525050508692505050949350505050565b61103b6111c4565b8360200151831061106157611060846002866020015161105b9190611f21565b611133565b5b8351805160208583010184815381860361107c576001820183525b5050508390509392505050565b6110916111c4565b846020015184836110a29190611b99565b11156110ca576110c985600286856110ba9190611b99565b6110c49190611f21565b611133565b5b60006001836101006110dc9190612096565b6110e69190611d42565b905085518386820101858319825116178152815185880111156111095784870182525b505085915050949350505050565b6000818311156111295782905061112d565b8190505b92915050565b6000826000015190506111468383610b5c565b506111518382610d4b565b50505050565b6040518060a0016040528060008019168152602001600073ffffffffffffffffffffffffffffffffffffffff16815260200160007bffffffffffffffffffffffffffffffffffffffffffffffffffffffff19168152602001600081526020016111be6111c4565b81525090565b604051806040016040528060608152602001600081525090565b6000819050919050565b6111f1816111de565b82525050565b600060208201905061120c60008301846111e8565b92915050565b6000604051905090565b600080fd5b600080fd5b61122f816111de565b811461123a57600080fd5b50565b60008135905061124c81611226565b92915050565b600080fd5b600080fd5b6000601f19601f8301169050919050565b7f4e487b7100000000000000000000000000000000000000000000000000000000600052604160045260246000fd5b6112a58261125c565b810181811067ffffffffffffffff821117156112c4576112c361126d565b5b80604052505050565b60006112d7611212565b90506112e3828261129c565b919050565b600067ffffffffffffffff8211156113035761130261126d565b5b61130c8261125c565b9050602081019050919050565b82818337600083830152505050565b600061133b611336846112e8565b6112cd565b90508281526020810184848401111561135757611356611257565b5b611362848285611319565b509392505050565b600082601f83011261137f5761137e611252565b5b813561138f848260208601611328565b91505092915050565b600080604083850312156113af576113ae61121c565b5b60006113bd8582860161123d565b925050602083013567ffffffffffffffff8111156113de576113dd611221565b5b6113ea8582860161136a565b9150509250929050565b600073ffffffffffffffffffffffffffffffffffffffff82169050919050565b600061141f826113f4565b9050919050565b61142f81611414565b82525050565b600060208201905061144a6000830184611426565b92915050565b600081519050919050565b600082825260208201905092915050565b60005b8381101561148a57808201518184015260208101905061146f565b60008484015250505050565b60006114a182611450565b6114ab818561145b565b93506114bb81856020860161146c565b6114c48161125c565b840191505092915050565b600060208201905081810360008301526114e98184611496565b905092915050565b6114fa81611414565b811461150557600080fd5b50565b600081359050611517816114f1565b92915050565b6000602082840312156115335761153261121c565b5b600061154184828501611508565b91505092915050565b7f536f75726365206d75737420626520746865206f7261636c65206f662074686560008201527f2072657175657374000000000000000000000000000000000000000000000000602082015250565b60006115a660288361145b565b91506115b18261154a565b604082019050919050565b600060208201905081810360008301526115d581611599565b9050919050565b7f4e487b7100000000000000000000000000000000000000000000000000000000600052602260045260246000fd5b6000600282049050600182168061162357607f821691505b602082108103611636576116356115dc565b5b50919050565b60008190508160005260206000209050919050565b60006020601f8301049050919050565b600082821b905092915050565b60006008830261169e7fffffffffffffffffffffffffffffffffffffffffffffffffffffffffffffffff82611661565b6116a88683611661565b95508019841693508086168417925050509392505050565b6000819050919050565b6000819050919050565b60006116ef6116ea6116e5846116c0565b6116ca565b6116c0565b9050919050565b6000819050919050565b611709836116d4565b61171d611715826116f6565b84845461166e565b825550505050565b600090565b611732611725565b61173d818484611700565b505050565b5b818110156117615761175660008261172a565b600181019050611743565b5050565b601f8211156117a6576117778161163c565b61178084611651565b8101602085101561178f578190505b6117a361179b85611651565b830182611742565b50505b505050565b600082821c905092915050565b60006117c9600019846008026117ab565b1980831691505092915050565b60006117e283836117b8565b9150826002028217905092915050565b6117fb82611450565b67ffffffffffffffff8111156118145761181361126d565b5b61181e825461160b565b611829828285611765565b600060209050601f83116001811461185c576000841561184a578287015190505b61185485826117d6565b8655506118bc565b601f19841661186a8661163c565b60005b828110156118925784890151825560018201915060208501945060208101905061186d565b868310156118af57848901516118ab601f8916826117b8565b8355505b6001600288020188555050505b505050505050565b7f4d7573742062652070726f706f736564206f776e657200000000000000000000600082015250565b60006118fa60168361145b565b9150611905826118c4565b602082019050919050565b60006020820190508181036000830152611929816118ed565b9050919050565b611939816116c0565b811461194457600080fd5b50565b60008151905061195681611930565b92915050565b6000602082840312156119725761197161121c565b5b600061198084828501611947565b91505092915050565b611992816116c0565b82525050565b60006040820190506119ad6000830185611426565b6119ba6020830184611989565b9392505050565b60008115159050919050565b6119d6816119c1565b81146119e157600080fd5b50565b6000815190506119f3816119cd565b92915050565b600060208284031215611a0f57611a0e61121c565b5b6000611a1d848285016119e4565b91505092915050565b7f556e61626c6520746f207472616e736665720000000000000000000000000000600082015250565b6000611a5c60128361145b565b9150611a6782611a26565b602082019050919050565b60006020820190508181036000830152611a8b81611a4f565b9050919050565b7f4f6e6c792063616c6c61626c65206279206f776e657200000000000000000000600082015250565b6000611ac860168361145b565b9150611ad382611a92565b602082019050919050565b60006020820190508181036000830152611af781611abb565b9050919050565b7f43616e6e6f74207472616e7366657220746f2073656c66000000000000000000600082015250565b6000611b3460178361145b565b9150611b3f82611afe565b602082019050919050565b60006020820190508181036000830152611b6381611b27565b9050919050565b7f4e487b7100000000000000000000000000000000000000000000000000000000600052601160045260246000fd5b6000611ba4826116c0565b9150611baf836116c0565b9250828201905080821115611bc757611bc6611b6a565b5b92915050565b60007fffffffff0000000000000000000000000000000000000000000000000000000082169050919050565b611c0281611bcd565b82525050565b600081519050919050565b600082825260208201905092915050565b6000611c2f82611c08565b611c398185611c13565b9350611c4981856020860161146c565b611c528161125c565b840191505092915050565b600061010082019050611c73600083018b611426565b611c80602083018a611989565b611c8d60408301896111e8565b611c9a6060830188611426565b611ca76080830187611bf9565b611cb460a0830186611989565b611cc160c0830185611989565b81810360e0830152611cd38184611c24565b90509998505050505050505050565b7f4e487b7100000000000000000000000000000000000000000000000000000000600052601260045260246000fd5b6000611d1c826116c0565b9150611d27836116c0565b925082611d3757611d36611ce2565b5b828206905092915050565b6000611d4d826116c0565b9150611d58836116c0565b9250828203905081811115611d7057611d6f611b6a565b5b92915050565b6000611d91611d8c611d87846113f4565b6116ca565b6113f4565b9050919050565b6000611da382611d76565b9050919050565b6000611db582611d98565b9050919050565b60008160601b9050919050565b6000611dd482611dbc565b9050919050565b6000611de682611dc9565b9050919050565b611dfe611df982611daa565b611ddb565b82525050565b6000819050919050565b611e1f611e1a826116c0565b611e04565b82525050565b6000611e318285611ded565b601482019150611e418284611e0e565b6020820191508190509392505050565b6000606082019050611e666000830186611426565b611e736020830185611989565b8181036040830152611e858184611c24565b9050949350505050565b7f756e61626c6520746f207472616e73666572416e6443616c6c20746f206f726160008201527f636c650000000000000000000000000000000000000000000000000000000000602082015250565b6000611eeb60238361145b565b9150611ef682611e8f565b604082019050919050565b60006020820190508181036000830152611f1a81611ede565b9050919050565b6000611f2c826116c0565b9150611f37836116c0565b9250828202611f45816116c0565b91508282048414831517611f5c57611f5b611b6a565b5b5092915050565b60008160011c9050919050565b6000808291508390505b6001851115611fba57808604811115611f9657611f95611b6a565b5b6001851615611fa55780820291505b8081029050611fb385611f63565b9450611f7a565b94509492505050565b600082611fd3576001905061208f565b81611fe1576000905061208f565b8160018114611ff7576002811461200157612030565b600191505061208f565b60ff84111561201357612012611b6a565b5b8360020a91508482111561202a57612029611b6a565b5b5061208f565b5060208310610133831016604e8410600b84101617156120655782820a9050838111156120605761205f611b6a565b5b61208f565b6120728484846001611f70565b9250905081840481111561208957612088611b6a565b5b81810290505b9392505050565b60006120a1826116c0565b91506120ac836116c0565b92506120d97fffffffffffffffffffffffffffffffffffffffffffffffffffffffffffffffff8484611fc3565b90509291505056fe68747470733a2f2f6170692e636f696e6765636b6f2e636f6d2f6170692f76332f636f696e732f6d61726b6574733f76735f63757272656e63793d757364267065725f706167653d3130a2646970667358221220fefd96d72d1faf2cb2308c17cf6cc143d7849385bca7687427bcf9f2bbc41c0d64736f6c63430008130033","opcodes":"PUSH1 0x80 PUSH1 0x40 MSTORE PUSH1 0x1 PUSH1 0x4 SSTORE CALLVALUE DUP1 ISZERO PUSH3 0x16 JUMPI PUSH1 0x0 DUP1 REVERT JUMPDEST POP PUSH1 0x40 MLOAD PUSH3 0x2A61 CODESIZE SUB DUP1 PUSH3 0x2A61 DUP4 CODECOPY DUP2 DUP2 ADD PUSH1 0x40 MSTORE DUP2 ADD SWAP1 PUSH3 0x3C SWAP2 SWAP1 PUSH3 0x576 JUMP JUMPDEST CALLER DUP1 PUSH1 0x0 DUP1 PUSH20 0xFFFFFFFFFFFFFFFFFFFFFFFFFFFFFFFFFFFFFFFF AND DUP3 PUSH20 0xFFFFFFFFFFFFFFFFFFFFFFFFFFFFFFFFFFFFFFFF AND SUB PUSH3 0xB1 JUMPI PUSH1 0x40 MLOAD PUSH32 0x8C379A000000000000000000000000000000000000000000000000000000000 DUP2 MSTORE PUSH1 0x4 ADD PUSH3 0xA8 SWAP1 PUSH3 0x652 JUMP JUMPDEST PUSH1 0x40 MLOAD DUP1 SWAP2 SUB SWAP1 REVERT JUMPDEST DUP2 PUSH1 0x6 PUSH1 0x0 PUSH2 0x100 EXP DUP2 SLOAD DUP2 PUSH20 0xFFFFFFFFFFFFFFFFFFFFFFFFFFFFFFFFFFFFFFFF MUL NOT AND SWAP1 DUP4 PUSH20 0xFFFFFFFFFFFFFFFFFFFFFFFFFFFFFFFFFFFFFFFF AND MUL OR SWAP1 SSTORE POP PUSH1 0x0 PUSH20 0xFFFFFFFFFFFFFFFFFFFFFFFFFFFFFFFFFFFFFFFF AND DUP2 PUSH20 0xFFFFFFFFFFFFFFFFFFFFFFFFFFFFFFFFFFFFFFFF AND EQ PUSH3 0x139 JUMPI PUSH3 0x138 DUP2 PUSH3 0x1C5 PUSH1 0x20 SHL PUSH1 0x20 SHR JUMP JUMPDEST JUMPDEST POP POP POP PUSH3 0x14D DUP4 PUSH3 0x2F6 PUSH1 0x20 SHL PUSH1 0x20 SHR JUMP JUMPDEST PUSH3 0x15E DUP3 PUSH3 0x33A PUSH1 0x20 SHL PUSH1 0x20 SHR JUMP JUMPDEST DUP1 PUSH1 0x40 MLOAD PUSH1 0x20 ADD PUSH3 0x171 SWAP2 SWAP1 PUSH3 0x6C1 JUMP JUMPDEST PUSH1 0x40 MLOAD PUSH1 0x20 DUP2 DUP4 SUB SUB DUP2 MSTORE SWAP1 PUSH1 0x40 MSTORE PUSH3 0x18B SWAP1 PUSH3 0x723 JUMP JUMPDEST PUSH1 0x9 DUP2 SWAP1 SSTORE POP PUSH1 0xA PUSH8 0xDE0B6B3A7640000 PUSH1 0x1 PUSH3 0x1AA SWAP2 SWAP1 PUSH3 0x7CC JUMP JUMPDEST PUSH3 0x1B6 SWAP2 SWAP1 PUSH3 0x846 JUMP JUMPDEST PUSH1 0xA DUP2 SWAP1 SSTORE POP POP POP POP PUSH3 0x8F0 JUMP JUMPDEST CALLER PUSH20 0xFFFFFFFFFFFFFFFFFFFFFFFFFFFFFFFFFFFFFFFF AND DUP2 PUSH20 0xFFFFFFFFFFFFFFFFFFFFFFFFFFFFFFFFFFFFFFFF AND SUB PUSH3 0x236 JUMPI PUSH1 0x40 MLOAD PUSH32 0x8C379A000000000000000000000000000000000000000000000000000000000 DUP2 MSTORE PUSH1 0x4 ADD PUSH3 0x22D SWAP1 PUSH3 0x8CE JUMP JUMPDEST PUSH1 0x40 MLOAD DUP1 SWAP2 SUB SWAP1 REVERT JUMPDEST DUP1 PUSH1 0x7 PUSH1 0x0 PUSH2 0x100 EXP DUP2 SLOAD DUP2 PUSH20 0xFFFFFFFFFFFFFFFFFFFFFFFFFFFFFFFFFFFFFFFF MUL NOT AND SWAP1 DUP4 PUSH20 0xFFFFFFFFFFFFFFFFFFFFFFFFFFFFFFFFFFFFFFFF AND MUL OR SWAP1 SSTORE POP DUP1 PUSH20 0xFFFFFFFFFFFFFFFFFFFFFFFFFFFFFFFFFFFFFFFF AND PUSH1 0x6 PUSH1 0x0 SWAP1 SLOAD SWAP1 PUSH2 0x100 EXP SWAP1 DIV PUSH20 0xFFFFFFFFFFFFFFFFFFFFFFFFFFFFFFFFFFFFFFFF AND PUSH20 0xFFFFFFFFFFFFFFFFFFFFFFFFFFFFFFFFFFFFFFFF AND PUSH32 0xED8889F560326EB138920D842192F0EB3DD22B4F139C87A2C57538E05BAE1278 PUSH1 0x40 MLOAD PUSH1 0x40 MLOAD DUP1 SWAP2 SUB SWAP1 LOG3 POP JUMP JUMPDEST DUP1 PUSH1 0x2 PUSH1 0x0 PUSH2 0x100 EXP DUP2 SLOAD DUP2 PUSH20 0xFFFFFFFFFFFFFFFFFFFFFFFFFFFFFFFFFFFFFFFF MUL NOT AND SWAP1 DUP4 PUSH20 0xFFFFFFFFFFFFFFFFFFFFFFFFFFFFFFFFFFFFFFFF AND MUL OR SWAP1 SSTORE POP POP JUMP JUMPDEST DUP1 PUSH1 0x3 PUSH1 0x0 PUSH2 0x100 EXP DUP2 SLOAD DUP2 PUSH20 0xFFFFFFFFFFFFFFFFFFFFFFFFFFFFFFFFFFFFFFFF MUL NOT AND SWAP1 DUP4 PUSH20 0xFFFFFFFFFFFFFFFFFFFFFFFFFFFFFFFFFFFFFFFF AND MUL OR SWAP1 SSTORE POP POP JUMP JUMPDEST PUSH1 0x0 PUSH1 0x40 MLOAD SWAP1 POP SWAP1 JUMP JUMPDEST PUSH1 0x0 DUP1 REVERT JUMPDEST PUSH1 0x0 DUP1 REVERT JUMPDEST PUSH1 0x0 PUSH20 0xFFFFFFFFFFFFFFFFFFFFFFFFFFFFFFFFFFFFFFFF DUP3 AND SWAP1 POP SWAP2 SWAP1 POP JUMP JUMPDEST PUSH1 0x0 PUSH3 0x3BF DUP3 PUSH3 0x392 JUMP JUMPDEST SWAP1 POP SWAP2 SWAP1 POP JUMP JUMPDEST PUSH3 0x3D1 DUP2 PUSH3 0x3B2 JUMP JUMPDEST DUP2 EQ PUSH3 0x3DD JUMPI PUSH1 0x0 DUP1 REVERT JUMPDEST POP JUMP JUMPDEST PUSH1 0x0 DUP2 MLOAD SWAP1 POP PUSH3 0x3F1 DUP2 PUSH3 0x3C6 JUMP JUMPDEST SWAP3 SWAP2 POP POP JUMP JUMPDEST PUSH1 0x0 DUP1 REVERT JUMPDEST PUSH1 0x0 DUP1 REVERT JUMPDEST PUSH1 0x0 PUSH1 0x1F NOT PUSH1 0x1F DUP4 ADD AND SWAP1 POP SWAP2 SWAP1 POP JUMP JUMPDEST PUSH32 0x4E487B7100000000000000000000000000000000000000000000000000000000 PUSH1 0x0 MSTORE PUSH1 0x41 PUSH1 0x4 MSTORE PUSH1 0x24 PUSH1 0x0 REVERT JUMPDEST PUSH3 0x44C DUP3 PUSH3 0x401 JUMP JUMPDEST DUP2 ADD DUP2 DUP2 LT PUSH8 0xFFFFFFFFFFFFFFFF DUP3 GT OR ISZERO PUSH3 0x46E JUMPI PUSH3 0x46D PUSH3 0x412 JUMP JUMPDEST JUMPDEST DUP1 PUSH1 0x40 MSTORE POP POP POP JUMP JUMPDEST PUSH1 0x0 PUSH3 0x483 PUSH3 0x37E JUMP JUMPDEST SWAP1 POP PUSH3 0x491 DUP3 DUP3 PUSH3 0x441 JUMP JUMPDEST SWAP2 SWAP1 POP JUMP JUMPDEST PUSH1 0x0 PUSH8 0xFFFFFFFFFFFFFFFF DUP3 GT ISZERO PUSH3 0x4B4 JUMPI PUSH3 0x4B3 PUSH3 0x412 JUMP JUMPDEST JUMPDEST PUSH3 0x4BF DUP3 PUSH3 0x401 JUMP JUMPDEST SWAP1 POP PUSH1 0x20 DUP2 ADD SWAP1 POP SWAP2 SWAP1 POP JUMP JUMPDEST PUSH1 0x0 JUMPDEST DUP4 DUP2 LT ISZERO PUSH3 0x4EC JUMPI DUP1 DUP3 ADD MLOAD DUP2 DUP5 ADD MSTORE PUSH1 0x20 DUP2 ADD SWAP1 POP PUSH3 0x4CF JUMP JUMPDEST PUSH1 0x0 DUP5 DUP5 ADD MSTORE POP POP POP POP JUMP JUMPDEST PUSH1 0x0 PUSH3 0x50F PUSH3 0x509 DUP5 PUSH3 0x496 JUMP JUMPDEST PUSH3 0x477 JUMP JUMPDEST SWAP1 POP DUP3 DUP2 MSTORE PUSH1 0x20 DUP2 ADD DUP5 DUP5 DUP5 ADD GT ISZERO PUSH3 0x52E JUMPI PUSH3 0x52D PUSH3 0x3FC JUMP JUMPDEST JUMPDEST PUSH3 0x53B DUP5 DUP3 DUP6 PUSH3 0x4CC JUMP JUMPDEST POP SWAP4 SWAP3 POP POP POP JUMP JUMPDEST PUSH1 0x0 DUP3 PUSH1 0x1F DUP4 ADD SLT PUSH3 0x55B JUMPI PUSH3 0x55A PUSH3 0x3F7 JUMP JUMPDEST JUMPDEST DUP2 MLOAD PUSH3 0x56D DUP5 DUP3 PUSH1 0x20 DUP7 ADD PUSH3 0x4F8 JUMP JUMPDEST SWAP2 POP POP SWAP3 SWAP2 POP POP JUMP JUMPDEST PUSH1 0x0 DUP1 PUSH1 0x0 PUSH1 0x60 DUP5 DUP7 SUB SLT ISZERO PUSH3 0x592 JUMPI PUSH3 0x591 PUSH3 0x388 JUMP JUMPDEST JUMPDEST PUSH1 0x0 PUSH3 0x5A2 DUP7 DUP3 DUP8 ADD PUSH3 0x3E0 JUMP JUMPDEST SWAP4 POP POP PUSH1 0x20 PUSH3 0x5B5 DUP7 DUP3 DUP8 ADD PUSH3 0x3E0 JUMP JUMPDEST SWAP3 POP POP PUSH1 0x40 DUP5 ADD MLOAD PUSH8 0xFFFFFFFFFFFFFFFF DUP2 GT ISZERO PUSH3 0x5D9 JUMPI PUSH3 0x5D8 PUSH3 0x38D JUMP JUMPDEST JUMPDEST PUSH3 0x5E7 DUP7 DUP3 DUP8 ADD PUSH3 0x543 JUMP JUMPDEST SWAP2 POP POP SWAP3 POP SWAP3 POP SWAP3 JUMP JUMPDEST PUSH1 0x0 DUP3 DUP3 MSTORE PUSH1 0x20 DUP3 ADD SWAP1 POP SWAP3 SWAP2 POP POP JUMP JUMPDEST PUSH32 0x43616E6E6F7420736574206F776E657220746F207A65726F0000000000000000 PUSH1 0x0 DUP3 ADD MSTORE POP JUMP JUMPDEST PUSH1 0x0 PUSH3 0x63A PUSH1 0x18 DUP4 PUSH3 0x5F1 JUMP JUMPDEST SWAP2 POP PUSH3 0x647 DUP3 PUSH3 0x602 JUMP JUMPDEST PUSH1 0x20 DUP3 ADD SWAP1 POP SWAP2 SWAP1 POP JUMP JUMPDEST PUSH1 0x0 PUSH1 0x20 DUP3 ADD SWAP1 POP DUP2 DUP2 SUB PUSH1 0x0 DUP4 ADD MSTORE PUSH3 0x66D DUP2 PUSH3 0x62B JUMP JUMPDEST SWAP1 POP SWAP2 SWAP1 POP JUMP JUMPDEST PUSH1 0x0 DUP2 MLOAD SWAP1 POP SWAP2 SWAP1 POP JUMP JUMPDEST PUSH1 0x0 DUP2 SWAP1 POP SWAP3 SWAP2 POP POP JUMP JUMPDEST PUSH1 0x0 PUSH3 0x697 DUP3 PUSH3 0x674 JUMP JUMPDEST PUSH3 0x6A3 DUP2 DUP6 PUSH3 0x67F JUMP JUMPDEST SWAP4 POP PUSH3 0x6B5 DUP2 DUP6 PUSH1 0x20 DUP7 ADD PUSH3 0x4CC JUMP JUMPDEST DUP1 DUP5 ADD SWAP2 POP POP SWAP3 SWAP2 POP POP JUMP JUMPDEST PUSH1 0x0 PUSH3 0x6CF DUP3 DUP5 PUSH3 0x68A JUMP JUMPDEST SWAP2 POP DUP2 SWAP1 POP SWAP3 SWAP2 POP POP JUMP JUMPDEST PUSH1 0x0 DUP2 MLOAD SWAP1 POP SWAP2 SWAP1 POP JUMP JUMPDEST PUSH1 0x0 DUP2 SWAP1 POP PUSH1 0x20 DUP3 ADD SWAP1 POP SWAP2 SWAP1 POP JUMP JUMPDEST PUSH1 0x0 DUP2 SWAP1 POP SWAP2 SWAP1 POP JUMP JUMPDEST PUSH1 0x0 PUSH3 0x70D DUP3 MLOAD PUSH3 0x6F5 JUMP JUMPDEST DUP1 SWAP2 POP POP SWAP2 SWAP1 POP JUMP JUMPDEST PUSH1 0x0 DUP3 DUP3 SHL SWAP1 POP SWAP3 SWAP2 POP POP JUMP JUMPDEST PUSH1 0x0 PUSH3 0x730 DUP3 PUSH3 0x6DA JUMP JUMPDEST DUP3 PUSH3 0x73C DUP5 PUSH3 0x6E5 JUMP JUMPDEST SWAP1 POP PUSH3 0x749 DUP2 PUSH3 0x6FF JUMP JUMPDEST SWAP3 POP PUSH1 0x20 DUP3 LT ISZERO PUSH3 0x78C JUMPI PUSH3 0x787 PUSH32 0xFFFFFFFFFFFFFFFFFFFFFFFFFFFFFFFFFFFFFFFFFFFFFFFFFFFFFFFFFFFFFFFF DUP4 PUSH1 0x20 SUB PUSH1 0x8 MUL PUSH3 0x716 JUMP JUMPDEST DUP4 AND SWAP3 POP JUMPDEST POP POP SWAP2 SWAP1 POP JUMP JUMPDEST PUSH1 0x0 DUP2 SWAP1 POP SWAP2 SWAP1 POP JUMP JUMPDEST PUSH32 0x4E487B7100000000000000000000000000000000000000000000000000000000 PUSH1 0x0 MSTORE PUSH1 0x11 PUSH1 0x4 MSTORE PUSH1 0x24 PUSH1 0x0 REVERT JUMPDEST PUSH1 0x0 PUSH3 0x7D9 DUP3 PUSH3 0x793 JUMP JUMPDEST SWAP2 POP PUSH3 0x7E6 DUP4 PUSH3 0x793 JUMP JUMPDEST SWAP3 POP DUP3 DUP3 MUL PUSH3 0x7F6 DUP2 PUSH3 0x793 JUMP JUMPDEST SWAP2 POP DUP3 DUP3 DIV DUP5 EQ DUP4 ISZERO OR PUSH3 0x810 JUMPI PUSH3 0x80F PUSH3 0x79D JUMP JUMPDEST JUMPDEST POP SWAP3 SWAP2 POP POP JUMP JUMPDEST PUSH32 0x4E487B7100000000000000000000000000000000000000000000000000000000 PUSH1 0x0 MSTORE PUSH1 0x12 PUSH1 0x4 MSTORE PUSH1 0x24 PUSH1 0x0 REVERT JUMPDEST PUSH1 0x0 PUSH3 0x853 DUP3 PUSH3 0x793 JUMP JUMPDEST SWAP2 POP PUSH3 0x860 DUP4 PUSH3 0x793 JUMP JUMPDEST SWAP3 POP DUP3 PUSH3 0x873 JUMPI PUSH3 0x872 PUSH3 0x817 JUMP JUMPDEST JUMPDEST DUP3 DUP3 DIV SWAP1 POP SWAP3 SWAP2 POP POP JUMP JUMPDEST PUSH32 0x43616E6E6F74207472616E7366657220746F2073656C66000000000000000000 PUSH1 0x0 DUP3 ADD MSTORE POP JUMP JUMPDEST PUSH1 0x0 PUSH3 0x8B6 PUSH1 0x17 DUP4 PUSH3 0x5F1 JUMP JUMPDEST SWAP2 POP PUSH3 0x8C3 DUP3 PUSH3 0x87E JUMP JUMPDEST PUSH1 0x20 DUP3 ADD SWAP1 POP SWAP2 SWAP1 POP JUMP JUMPDEST PUSH1 0x0 PUSH1 0x20 DUP3 ADD SWAP1 POP DUP2 DUP2 SUB PUSH1 0x0 DUP4 ADD MSTORE PUSH3 0x8E9 DUP2 PUSH3 0x8A7 JUMP JUMPDEST SWAP1 POP SWAP2 SWAP1 POP JUMP JUMPDEST PUSH2 0x2161 DUP1 PUSH3 0x900 PUSH1 0x0 CODECOPY PUSH1 0x0 RETURN INVALID PUSH1 0x80 PUSH1 0x40 MSTORE CALLVALUE DUP1 ISZERO PUSH2 0x10 JUMPI PUSH1 0x0 DUP1 REVERT JUMPDEST POP PUSH1 0x4 CALLDATASIZE LT PUSH2 0x7D JUMPI PUSH1 0x0 CALLDATALOAD PUSH1 0xE0 SHR DUP1 PUSH4 0x8DA5CB5B GT PUSH2 0x5B JUMPI DUP1 PUSH4 0x8DA5CB5B EQ PUSH2 0xC6 JUMPI DUP1 PUSH4 0x8DC654A2 EQ PUSH2 0xE4 JUMPI DUP1 PUSH4 0xAF640D0F EQ PUSH2 0xEE JUMPI DUP1 PUSH4 0xF2FDE38B EQ PUSH2 0x10C JUMPI PUSH2 0x7D JUMP JUMPDEST DUP1 PUSH4 0x9323A6A EQ PUSH2 0x82 JUMPI DUP1 PUSH4 0x37441996 EQ PUSH2 0xA0 JUMPI DUP1 PUSH4 0x79BA5097 EQ PUSH2 0xBC JUMPI JUMPDEST PUSH1 0x0 DUP1 REVERT JUMPDEST PUSH2 0x8A PUSH2 0x128 JUMP JUMPDEST PUSH1 0x40 MLOAD PUSH2 0x97 SWAP2 SWAP1 PUSH2 0x11F7 JUMP JUMPDEST PUSH1 0x40 MLOAD DUP1 SWAP2 SUB SWAP1 RETURN JUMPDEST PUSH2 0xBA PUSH1 0x4 DUP1 CALLDATASIZE SUB DUP2 ADD SWAP1 PUSH2 0xB5 SWAP2 SWAP1 PUSH2 0x1398 JUMP JUMPDEST PUSH2 0x234 JUMP JUMPDEST STOP JUMPDEST PUSH2 0xC4 PUSH2 0x386 JUMP JUMPDEST STOP JUMPDEST PUSH2 0xCE PUSH2 0x51D JUMP JUMPDEST PUSH1 0x40 MLOAD PUSH2 0xDB SWAP2 SWAP1 PUSH2 0x1435 JUMP JUMPDEST PUSH1 0x40 MLOAD DUP1 SWAP2 SUB SWAP1 RETURN JUMPDEST PUSH2 0xEC PUSH2 0x547 JUMP JUMPDEST STOP JUMPDEST PUSH2 0xF6 PUSH2 0x694 JUMP JUMPDEST PUSH1 0x40 MLOAD PUSH2 0x103 SWAP2 SWAP1 PUSH2 0x14CF JUMP JUMPDEST PUSH1 0x40 MLOAD DUP1 SWAP2 SUB SWAP1 RETURN JUMPDEST PUSH2 0x126 PUSH1 0x4 DUP1 CALLDATASIZE SUB DUP2 ADD SWAP1 PUSH2 0x121 SWAP2 SWAP1 PUSH2 0x151D JUMP JUMPDEST PUSH2 0x722 JUMP JUMPDEST STOP JUMPDEST PUSH1 0x0 DUP1 PUSH2 0x13F PUSH1 0x9 SLOAD ADDRESS PUSH4 0x37441996 PUSH1 0xE0 SHL PUSH2 0x736 JUMP JUMPDEST SWAP1 POP PUSH2 0x1A3 PUSH1 0x40 MLOAD DUP1 PUSH1 0x40 ADD PUSH1 0x40 MSTORE DUP1 PUSH1 0x3 DUP2 MSTORE PUSH1 0x20 ADD PUSH32 0x6765740000000000000000000000000000000000000000000000000000000000 DUP2 MSTORE POP PUSH1 0x40 MLOAD DUP1 PUSH1 0x80 ADD PUSH1 0x40 MSTORE DUP1 PUSH1 0x4A DUP2 MSTORE PUSH1 0x20 ADD PUSH2 0x20E2 PUSH1 0x4A SWAP2 CODECOPY DUP4 PUSH2 0x767 SWAP1 SWAP3 SWAP2 SWAP1 PUSH4 0xFFFFFFFF AND JUMP JUMPDEST PUSH2 0x222 PUSH1 0x40 MLOAD DUP1 PUSH1 0x40 ADD PUSH1 0x40 MSTORE DUP1 PUSH1 0x4 DUP2 MSTORE PUSH1 0x20 ADD PUSH32 0x7061746800000000000000000000000000000000000000000000000000000000 DUP2 MSTORE POP PUSH1 0x40 MLOAD DUP1 PUSH1 0x40 ADD PUSH1 0x40 MSTORE DUP1 PUSH1 0x4 DUP2 MSTORE PUSH1 0x20 ADD PUSH32 0x302C696400000000000000000000000000000000000000000000000000000000 DUP2 MSTORE POP DUP4 PUSH2 0x767 SWAP1 SWAP3 SWAP2 SWAP1 PUSH4 0xFFFFFFFF AND JUMP JUMPDEST PUSH2 0x22E DUP2 PUSH1 0xA SLOAD PUSH2 0x79A JUMP JUMPDEST SWAP2 POP POP SWAP1 JUMP JUMPDEST DUP2 PUSH1 0x5 PUSH1 0x0 DUP3 DUP2 MSTORE PUSH1 0x20 ADD SWAP1 DUP2 MSTORE PUSH1 0x20 ADD PUSH1 0x0 KECCAK256 PUSH1 0x0 SWAP1 SLOAD SWAP1 PUSH2 0x100 EXP SWAP1 DIV PUSH20 0xFFFFFFFFFFFFFFFFFFFFFFFFFFFFFFFFFFFFFFFF AND PUSH20 0xFFFFFFFFFFFFFFFFFFFFFFFFFFFFFFFFFFFFFFFF AND CALLER PUSH20 0xFFFFFFFFFFFFFFFFFFFFFFFFFFFFFFFFFFFFFFFF AND EQ PUSH2 0x2D6 JUMPI PUSH1 0x40 MLOAD PUSH32 0x8C379A000000000000000000000000000000000000000000000000000000000 DUP2 MSTORE PUSH1 0x4 ADD PUSH2 0x2CD SWAP1 PUSH2 0x15BC JUMP JUMPDEST PUSH1 0x40 MLOAD DUP1 SWAP2 SUB SWAP1 REVERT JUMPDEST PUSH1 0x5 PUSH1 0x0 DUP3 DUP2 MSTORE PUSH1 0x20 ADD SWAP1 DUP2 MSTORE PUSH1 0x20 ADD PUSH1 0x0 KECCAK256 PUSH1 0x0 PUSH2 0x100 EXP DUP2 SLOAD SWAP1 PUSH20 0xFFFFFFFFFFFFFFFFFFFFFFFFFFFFFFFFFFFFFFFF MUL NOT AND SWAP1 SSTORE DUP1 PUSH32 0x7CC135E0CEBB02C3480AE5D74D377283180A2601F8F644EDF7987B009316C63A PUSH1 0x40 MLOAD PUSH1 0x40 MLOAD DUP1 SWAP2 SUB SWAP1 LOG2 DUP3 PUSH32 0x5B72487F892FEBA565865A27F191DA8FB1E852651BD966BFB0A41FC272C54AEA DUP4 PUSH1 0x40 MLOAD PUSH2 0x369 SWAP2 SWAP1 PUSH2 0x14CF JUMP JUMPDEST PUSH1 0x40 MLOAD DUP1 SWAP2 SUB SWAP1 LOG2 DUP2 PUSH1 0x8 SWAP1 DUP2 PUSH2 0x380 SWAP2 SWAP1 PUSH2 0x17F2 JUMP JUMPDEST POP POP POP POP JUMP JUMPDEST PUSH1 0x7 PUSH1 0x0 SWAP1 SLOAD SWAP1 PUSH2 0x100 EXP SWAP1 DIV PUSH20 0xFFFFFFFFFFFFFFFFFFFFFFFFFFFFFFFFFFFFFFFF AND PUSH20 0xFFFFFFFFFFFFFFFFFFFFFFFFFFFFFFFFFFFFFFFF AND CALLER PUSH20 0xFFFFFFFFFFFFFFFFFFFFFFFFFFFFFFFFFFFFFFFF AND EQ PUSH2 0x416 JUMPI PUSH1 0x40 MLOAD PUSH32 0x8C379A000000000000000000000000000000000000000000000000000000000 DUP2 MSTORE PUSH1 0x4 ADD PUSH2 0x40D SWAP1 PUSH2 0x1910 JUMP JUMPDEST PUSH1 0x40 MLOAD DUP1 SWAP2 SUB SWAP1 REVERT JUMPDEST PUSH1 0x0 PUSH1 0x6 PUSH1 0x0 SWAP1 SLOAD SWAP1 PUSH2 0x100 EXP SWAP1 DIV PUSH20 0xFFFFFFFFFFFFFFFFFFFFFFFFFFFFFFFFFFFFFFFF AND SWAP1 POP CALLER PUSH1 0x6 PUSH1 0x0 PUSH2 0x100 EXP DUP2 SLOAD DUP2 PUSH20 0xFFFFFFFFFFFFFFFFFFFFFFFFFFFFFFFFFFFFFFFF MUL NOT AND SWAP1 DUP4 PUSH20 0xFFFFFFFFFFFFFFFFFFFFFFFFFFFFFFFFFFFFFFFF AND MUL OR SWAP1 SSTORE POP PUSH1 0x0 PUSH1 0x7 PUSH1 0x0 PUSH2 0x100 EXP DUP2 SLOAD DUP2 PUSH20 0xFFFFFFFFFFFFFFFFFFFFFFFFFFFFFFFFFFFFFFFF MUL NOT AND SWAP1 DUP4 PUSH20 0xFFFFFFFFFFFFFFFFFFFFFFFFFFFFFFFFFFFFFFFF AND MUL OR SWAP1 SSTORE POP CALLER PUSH20 0xFFFFFFFFFFFFFFFFFFFFFFFFFFFFFFFFFFFFFFFF AND DUP2 PUSH20 0xFFFFFFFFFFFFFFFFFFFFFFFFFFFFFFFFFFFFFFFF AND PUSH32 0x8BE0079C531659141344CD1FD0A4F28419497F9722A3DAAFE3B4186F6B6457E0 PUSH1 0x40 MLOAD PUSH1 0x40 MLOAD DUP1 SWAP2 SUB SWAP1 LOG3 POP JUMP JUMPDEST PUSH1 0x0 PUSH1 0x6 PUSH1 0x0 SWAP1 SLOAD SWAP1 PUSH2 0x100 EXP SWAP1 DIV PUSH20 0xFFFFFFFFFFFFFFFFFFFFFFFFFFFFFFFFFFFFFFFF AND SWAP1 POP SWAP1 JUMP JUMPDEST PUSH2 0x54F PUSH2 0x7D1 JUMP JUMPDEST PUSH1 0x0 PUSH2 0x559 PUSH2 0x863 JUMP JUMPDEST SWAP1 POP DUP1 PUSH20 0xFFFFFFFFFFFFFFFFFFFFFFFFFFFFFFFFFFFFFFFF AND PUSH4 0xA9059CBB CALLER DUP4 PUSH20 0xFFFFFFFFFFFFFFFFFFFFFFFFFFFFFFFFFFFFFFFF AND PUSH4 0x70A08231 ADDRESS PUSH1 0x40 MLOAD DUP3 PUSH4 0xFFFFFFFF AND PUSH1 0xE0 SHL DUP2 MSTORE PUSH1 0x4 ADD PUSH2 0x5B1 SWAP2 SWAP1 PUSH2 0x1435 JUMP JUMPDEST PUSH1 0x20 PUSH1 0x40 MLOAD DUP1 DUP4 SUB DUP2 DUP7 GAS STATICCALL ISZERO DUP1 ISZERO PUSH2 0x5CE JUMPI RETURNDATASIZE PUSH1 0x0 DUP1 RETURNDATACOPY RETURNDATASIZE PUSH1 0x0 REVERT JUMPDEST POP POP POP POP PUSH1 0x40 MLOAD RETURNDATASIZE PUSH1 0x1F NOT PUSH1 0x1F DUP3 ADD AND DUP3 ADD DUP1 PUSH1 0x40 MSTORE POP DUP2 ADD SWAP1 PUSH2 0x5F2 SWAP2 SWAP1 PUSH2 0x195C JUMP JUMPDEST PUSH1 0x40 MLOAD DUP4 PUSH4 0xFFFFFFFF AND PUSH1 0xE0 SHL DUP2 MSTORE PUSH1 0x4 ADD PUSH2 0x60F SWAP3 SWAP2 SWAP1 PUSH2 0x1998 JUMP JUMPDEST PUSH1 0x20 PUSH1 0x40 MLOAD DUP1 DUP4 SUB DUP2 PUSH1 0x0 DUP8 GAS CALL ISZERO DUP1 ISZERO PUSH2 0x62E JUMPI RETURNDATASIZE PUSH1 0x0 DUP1 RETURNDATACOPY RETURNDATASIZE PUSH1 0x0 REVERT JUMPDEST POP POP POP POP PUSH1 0x40 MLOAD RETURNDATASIZE PUSH1 0x1F NOT PUSH1 0x1F DUP3 ADD AND DUP3 ADD DUP1 PUSH1 0x40 MSTORE POP DUP2 ADD SWAP1 PUSH2 0x652 SWAP2 SWAP1 PUSH2 0x19F9 JUMP JUMPDEST PUSH2 0x691 JUMPI PUSH1 0x40 MLOAD PUSH32 0x8C379A000000000000000000000000000000000000000000000000000000000 DUP2 MSTORE PUSH1 0x4 ADD PUSH2 0x688 SWAP1 PUSH2 0x1A72 JUMP JUMPDEST PUSH1 0x40 MLOAD DUP1 SWAP2 SUB SWAP1 REVERT JUMPDEST POP JUMP JUMPDEST PUSH1 0x8 DUP1 SLOAD PUSH2 0x6A1 SWAP1 PUSH2 0x160B JUMP JUMPDEST DUP1 PUSH1 0x1F ADD PUSH1 0x20 DUP1 SWAP2 DIV MUL PUSH1 0x20 ADD PUSH1 0x40 MLOAD SWAP1 DUP2 ADD PUSH1 0x40 MSTORE DUP1 SWAP3 SWAP2 SWAP1 DUP2 DUP2 MSTORE PUSH1 0x20 ADD DUP3 DUP1 SLOAD PUSH2 0x6CD SWAP1 PUSH2 0x160B JUMP JUMPDEST DUP1 ISZERO PUSH2 0x71A JUMPI DUP1 PUSH1 0x1F LT PUSH2 0x6EF JUMPI PUSH2 0x100 DUP1 DUP4 SLOAD DIV MUL DUP4 MSTORE SWAP2 PUSH1 0x20 ADD SWAP2 PUSH2 0x71A JUMP JUMPDEST DUP3 ADD SWAP2 SWAP1 PUSH1 0x0 MSTORE PUSH1 0x20 PUSH1 0x0 KECCAK256 SWAP1 JUMPDEST DUP2 SLOAD DUP2 MSTORE SWAP1 PUSH1 0x1 ADD SWAP1 PUSH1 0x20 ADD DUP1 DUP4 GT PUSH2 0x6FD JUMPI DUP3 SWAP1 SUB PUSH1 0x1F AND DUP3 ADD SWAP2 JUMPDEST POP POP POP POP POP DUP2 JUMP JUMPDEST PUSH2 0x72A PUSH2 0x7D1 JUMP JUMPDEST PUSH2 0x733 DUP2 PUSH2 0x88D JUMP JUMPDEST POP JUMP JUMPDEST PUSH2 0x73E PUSH2 0x1157 JUMP JUMPDEST PUSH2 0x746 PUSH2 0x1157 JUMP JUMPDEST PUSH2 0x75D DUP6 DUP6 DUP6 DUP5 PUSH2 0x9BB SWAP1 SWAP4 SWAP3 SWAP2 SWAP1 PUSH4 0xFFFFFFFF AND JUMP JUMPDEST SWAP2 POP POP SWAP4 SWAP3 POP POP POP JUMP JUMPDEST PUSH2 0x77E DUP3 DUP5 PUSH1 0x80 ADD MLOAD PUSH2 0xA6B SWAP1 SWAP2 SWAP1 PUSH4 0xFFFFFFFF AND JUMP JUMPDEST PUSH2 0x795 DUP2 DUP5 PUSH1 0x80 ADD MLOAD PUSH2 0xA6B SWAP1 SWAP2 SWAP1 PUSH4 0xFFFFFFFF AND JUMP JUMPDEST POP POP POP JUMP JUMPDEST PUSH1 0x0 PUSH2 0x7C9 PUSH1 0x3 PUSH1 0x0 SWAP1 SLOAD SWAP1 PUSH2 0x100 EXP SWAP1 DIV PUSH20 0xFFFFFFFFFFFFFFFFFFFFFFFFFFFFFFFFFFFFFFFF AND DUP5 DUP5 PUSH2 0xA90 JUMP JUMPDEST SWAP1 POP SWAP3 SWAP2 POP POP JUMP JUMPDEST PUSH1 0x6 PUSH1 0x0 SWAP1 SLOAD SWAP1 PUSH2 0x100 EXP SWAP1 DIV PUSH20 0xFFFFFFFFFFFFFFFFFFFFFFFFFFFFFFFFFFFFFFFF AND PUSH20 0xFFFFFFFFFFFFFFFFFFFFFFFFFFFFFFFFFFFFFFFF AND CALLER PUSH20 0xFFFFFFFFFFFFFFFFFFFFFFFFFFFFFFFFFFFFFFFF AND EQ PUSH2 0x861 JUMPI PUSH1 0x40 MLOAD PUSH32 0x8C379A000000000000000000000000000000000000000000000000000000000 DUP2 MSTORE PUSH1 0x4 ADD PUSH2 0x858 SWAP1 PUSH2 0x1ADE JUMP JUMPDEST PUSH1 0x40 MLOAD DUP1 SWAP2 SUB SWAP1 REVERT JUMPDEST JUMP JUMPDEST PUSH1 0x0 PUSH1 0x2 PUSH1 0x0 SWAP1 SLOAD SWAP1 PUSH2 0x100 EXP SWAP1 DIV PUSH20 0xFFFFFFFFFFFFFFFFFFFFFFFFFFFFFFFFFFFFFFFF AND SWAP1 POP SWAP1 JUMP JUMPDEST CALLER PUSH20 0xFFFFFFFFFFFFFFFFFFFFFFFFFFFFFFFFFFFFFFFF AND DUP2 PUSH20 0xFFFFFFFFFFFFFFFFFFFFFFFFFFFFFFFFFFFFFFFF AND SUB PUSH2 0x8FB JUMPI PUSH1 0x40 MLOAD PUSH32 0x8C379A000000000000000000000000000000000000000000000000000000000 DUP2 MSTORE PUSH1 0x4 ADD PUSH2 0x8F2 SWAP1 PUSH2 0x1B4A JUMP JUMPDEST PUSH1 0x40 MLOAD DUP1 SWAP2 SUB SWAP1 REVERT JUMPDEST DUP1 PUSH1 0x7 PUSH1 0x0 PUSH2 0x100 EXP DUP2 SLOAD DUP2 PUSH20 0xFFFFFFFFFFFFFFFFFFFFFFFFFFFFFFFFFFFFFFFF MUL NOT AND SWAP1 DUP4 PUSH20 0xFFFFFFFFFFFFFFFFFFFFFFFFFFFFFFFFFFFFFFFF AND MUL OR SWAP1 SSTORE POP DUP1 PUSH20 0xFFFFFFFFFFFFFFFFFFFFFFFFFFFFFFFFFFFFFFFF AND PUSH1 0x6 PUSH1 0x0 SWAP1 SLOAD SWAP1 PUSH2 0x100 EXP SWAP1 DIV PUSH20 0xFFFFFFFFFFFFFFFFFFFFFFFFFFFFFFFFFFFFFFFF AND PUSH20 0xFFFFFFFFFFFFFFFFFFFFFFFFFFFFFFFFFFFFFFFF AND PUSH32 0xED8889F560326EB138920D842192F0EB3DD22B4F139C87A2C57538E05BAE1278 PUSH1 0x40 MLOAD PUSH1 0x40 MLOAD DUP1 SWAP2 SUB SWAP1 LOG3 POP JUMP JUMPDEST PUSH2 0x9C3 PUSH2 0x1157 JUMP JUMPDEST PUSH2 0x9D3 DUP6 PUSH1 0x80 ADD MLOAD PUSH2 0x100 PUSH2 0xB5C JUMP JUMPDEST POP DUP4 DUP6 PUSH1 0x0 ADD DUP2 DUP2 MSTORE POP POP DUP3 DUP6 PUSH1 0x20 ADD SWAP1 PUSH20 0xFFFFFFFFFFFFFFFFFFFFFFFFFFFFFFFFFFFFFFFF AND SWAP1 DUP2 PUSH20 0xFFFFFFFFFFFFFFFFFFFFFFFFFFFFFFFFFFFFFFFF AND DUP2 MSTORE POP POP DUP2 DUP6 PUSH1 0x40 ADD SWAP1 PUSH28 0xFFFFFFFFFFFFFFFFFFFFFFFFFFFFFFFFFFFFFFFFFFFFFFFFFFFFFFFF NOT AND SWAP1 DUP2 PUSH28 0xFFFFFFFFFFFFFFFFFFFFFFFFFFFFFFFFFFFFFFFFFFFFFFFFFFFFFFFF NOT AND DUP2 MSTORE POP POP DUP5 SWAP1 POP SWAP5 SWAP4 POP POP POP POP JUMP JUMPDEST PUSH2 0xA78 DUP3 PUSH1 0x3 DUP4 MLOAD PUSH2 0xBC6 JUMP JUMPDEST PUSH2 0xA8B DUP2 DUP4 PUSH2 0xD4B SWAP1 SWAP2 SWAP1 PUSH4 0xFFFFFFFF AND JUMP JUMPDEST POP POP POP JUMP JUMPDEST PUSH1 0x0 DUP1 PUSH1 0x4 SLOAD SWAP1 POP PUSH1 0x1 DUP2 PUSH2 0xAA5 SWAP2 SWAP1 PUSH2 0x1B99 JUMP JUMPDEST PUSH1 0x4 DUP2 SWAP1 SSTORE POP PUSH1 0x0 PUSH4 0x40429946 PUSH1 0xE0 SHL PUSH1 0x0 DUP1 DUP8 PUSH1 0x0 ADD MLOAD ADDRESS DUP10 PUSH1 0x40 ADD MLOAD DUP8 PUSH1 0x1 DUP13 PUSH1 0x80 ADD MLOAD PUSH1 0x0 ADD MLOAD PUSH1 0x40 MLOAD PUSH1 0x24 ADD PUSH2 0xAE6 SWAP9 SWAP8 SWAP7 SWAP6 SWAP5 SWAP4 SWAP3 SWAP2 SWAP1 PUSH2 0x1C5D JUMP JUMPDEST PUSH1 0x40 MLOAD PUSH1 0x20 DUP2 DUP4 SUB SUB DUP2 MSTORE SWAP1 PUSH1 0x40 MSTORE SWAP1 PUSH28 0xFFFFFFFFFFFFFFFFFFFFFFFFFFFFFFFFFFFFFFFFFFFFFFFFFFFFFFFF NOT AND PUSH1 0x20 DUP3 ADD DUP1 MLOAD PUSH28 0xFFFFFFFFFFFFFFFFFFFFFFFFFFFFFFFFFFFFFFFFFFFFFFFFFFFFFFFF DUP4 DUP2 DUP4 AND OR DUP4 MSTORE POP POP POP POP SWAP1 POP PUSH2 0xB51 DUP7 DUP4 DUP7 DUP5 PUSH2 0xD6D JUMP JUMPDEST SWAP3 POP POP POP SWAP4 SWAP3 POP POP POP JUMP JUMPDEST PUSH2 0xB64 PUSH2 0x11C4 JUMP JUMPDEST PUSH1 0x0 PUSH1 0x20 DUP4 PUSH2 0xB73 SWAP2 SWAP1 PUSH2 0x1D11 JUMP JUMPDEST EQ PUSH2 0xB9F JUMPI PUSH1 0x20 DUP3 PUSH2 0xB85 SWAP2 SWAP1 PUSH2 0x1D11 JUMP JUMPDEST PUSH1 0x20 PUSH2 0xB91 SWAP2 SWAP1 PUSH2 0x1D42 JUMP JUMPDEST DUP3 PUSH2 0xB9C SWAP2 SWAP1 PUSH2 0x1B99 JUMP JUMPDEST SWAP2 POP JUMPDEST DUP2 DUP4 PUSH1 0x20 ADD DUP2 DUP2 MSTORE POP POP PUSH1 0x40 MLOAD DUP1 DUP5 MSTORE PUSH1 0x0 DUP2 MSTORE DUP3 DUP2 ADD PUSH1 0x20 ADD PUSH1 0x40 MSTORE POP DUP3 SWAP1 POP SWAP3 SWAP2 POP POP JUMP JUMPDEST PUSH1 0x17 DUP2 PUSH8 0xFFFFFFFFFFFFFFFF AND GT PUSH2 0xBFD JUMPI PUSH2 0xBF7 DUP2 PUSH1 0x5 DUP5 PUSH1 0xFF AND SWAP1 SHL PUSH1 0xFF AND OR DUP5 PUSH2 0xF02 SWAP1 SWAP2 SWAP1 PUSH4 0xFFFFFFFF AND JUMP JUMPDEST POP PUSH2 0xD46 JUMP JUMPDEST PUSH1 0xFF DUP2 PUSH8 0xFFFFFFFFFFFFFFFF AND GT PUSH2 0xC53 JUMPI PUSH2 0xC2C PUSH1 0x18 PUSH1 0x5 DUP5 PUSH1 0xFF AND SWAP1 SHL OR DUP5 PUSH2 0xF02 SWAP1 SWAP2 SWAP1 PUSH4 0xFFFFFFFF AND JUMP JUMPDEST POP PUSH2 0xC4D DUP2 PUSH8 0xFFFFFFFFFFFFFFFF AND PUSH1 0x1 DUP6 PUSH2 0xF22 SWAP1 SWAP3 SWAP2 SWAP1 PUSH4 0xFFFFFFFF AND JUMP JUMPDEST POP PUSH2 0xD45 JUMP JUMPDEST PUSH2 0xFFFF DUP2 PUSH8 0xFFFFFFFFFFFFFFFF AND GT PUSH2 0xCAA JUMPI PUSH2 0xC83 PUSH1 0x19 PUSH1 0x5 DUP5 PUSH1 0xFF AND SWAP1 SHL OR DUP5 PUSH2 0xF02 SWAP1 SWAP2 SWAP1 PUSH4 0xFFFFFFFF AND JUMP JUMPDEST POP PUSH2 0xCA4 DUP2 PUSH8 0xFFFFFFFFFFFFFFFF AND PUSH1 0x2 DUP6 PUSH2 0xF22 SWAP1 SWAP3 SWAP2 SWAP1 PUSH4 0xFFFFFFFF AND JUMP JUMPDEST POP PUSH2 0xD44 JUMP JUMPDEST PUSH4 0xFFFFFFFF DUP2 PUSH8 0xFFFFFFFFFFFFFFFF AND GT PUSH2 0xD03 JUMPI PUSH2 0xCDC PUSH1 0x1A PUSH1 0x5 DUP5 PUSH1 0xFF AND SWAP1 SHL OR DUP5 PUSH2 0xF02 SWAP1 SWAP2 SWAP1 PUSH4 0xFFFFFFFF AND JUMP JUMPDEST POP PUSH2 0xCFD DUP2 PUSH8 0xFFFFFFFFFFFFFFFF AND PUSH1 0x4 DUP6 PUSH2 0xF22 SWAP1 SWAP3 SWAP2 SWAP1 PUSH4 0xFFFFFFFF AND JUMP JUMPDEST POP PUSH2 0xD43 JUMP JUMPDEST PUSH2 0xD20 PUSH1 0x1B PUSH1 0x5 DUP5 PUSH1 0xFF AND SWAP1 SHL OR DUP5 PUSH2 0xF02 SWAP1 SWAP2 SWAP1 PUSH4 0xFFFFFFFF AND JUMP JUMPDEST POP PUSH2 0xD41 DUP2 PUSH8 0xFFFFFFFFFFFFFFFF AND PUSH1 0x8 DUP6 PUSH2 0xF22 SWAP1 SWAP3 SWAP2 SWAP1 PUSH4 0xFFFFFFFF AND JUMP JUMPDEST POP JUMPDEST JUMPDEST JUMPDEST JUMPDEST POP POP POP JUMP JUMPDEST PUSH2 0xD53 PUSH2 0x11C4 JUMP JUMPDEST PUSH2 0xD65 DUP4 DUP5 PUSH1 0x0 ADD MLOAD MLOAD DUP5 DUP6 MLOAD PUSH2 0xF44 JUMP JUMPDEST SWAP1 POP SWAP3 SWAP2 POP POP JUMP JUMPDEST PUSH1 0x0 ADDRESS DUP5 PUSH1 0x40 MLOAD PUSH1 0x20 ADD PUSH2 0xD82 SWAP3 SWAP2 SWAP1 PUSH2 0x1E25 JUMP JUMPDEST PUSH1 0x40 MLOAD PUSH1 0x20 DUP2 DUP4 SUB SUB DUP2 MSTORE SWAP1 PUSH1 0x40 MSTORE DUP1 MLOAD SWAP1 PUSH1 0x20 ADD KECCAK256 SWAP1 POP DUP5 PUSH1 0x5 PUSH1 0x0 DUP4 DUP2 MSTORE PUSH1 0x20 ADD SWAP1 DUP2 MSTORE PUSH1 0x20 ADD PUSH1 0x0 KECCAK256 PUSH1 0x0 PUSH2 0x100 EXP DUP2 SLOAD DUP2 PUSH20 0xFFFFFFFFFFFFFFFFFFFFFFFFFFFFFFFFFFFFFFFF MUL NOT AND SWAP1 DUP4 PUSH20 0xFFFFFFFFFFFFFFFFFFFFFFFFFFFFFFFFFFFFFFFF AND MUL OR SWAP1 SSTORE POP DUP1 PUSH32 0xB5E6E01E79F91267DC17B4E6314D5D4D03593D2CEEE0FBB452B750BD70EA5AF9 PUSH1 0x40 MLOAD PUSH1 0x40 MLOAD DUP1 SWAP2 SUB SWAP1 LOG2 PUSH1 0x2 PUSH1 0x0 SWAP1 SLOAD SWAP1 PUSH2 0x100 EXP SWAP1 DIV PUSH20 0xFFFFFFFFFFFFFFFFFFFFFFFFFFFFFFFFFFFFFFFF AND PUSH20 0xFFFFFFFFFFFFFFFFFFFFFFFFFFFFFFFFFFFFFFFF AND PUSH4 0x4000AEA0 DUP7 DUP6 DUP6 PUSH1 0x40 MLOAD DUP5 PUSH4 0xFFFFFFFF AND PUSH1 0xE0 SHL DUP2 MSTORE PUSH1 0x4 ADD PUSH2 0xE78 SWAP4 SWAP3 SWAP2 SWAP1 PUSH2 0x1E51 JUMP JUMPDEST PUSH1 0x20 PUSH1 0x40 MLOAD DUP1 DUP4 SUB DUP2 PUSH1 0x0 DUP8 GAS CALL ISZERO DUP1 ISZERO PUSH2 0xE97 JUMPI RETURNDATASIZE PUSH1 0x0 DUP1 RETURNDATACOPY RETURNDATASIZE PUSH1 0x0 REVERT JUMPDEST POP POP POP POP PUSH1 0x40 MLOAD RETURNDATASIZE PUSH1 0x1F NOT PUSH1 0x1F DUP3 ADD AND DUP3 ADD DUP1 PUSH1 0x40 MSTORE POP DUP2 ADD SWAP1 PUSH2 0xEBB SWAP2 SWAP1 PUSH2 0x19F9 JUMP JUMPDEST PUSH2 0xEFA JUMPI PUSH1 0x40 MLOAD PUSH32 0x8C379A000000000000000000000000000000000000000000000000000000000 DUP2 MSTORE PUSH1 0x4 ADD PUSH2 0xEF1 SWAP1 PUSH2 0x1F01 JUMP JUMPDEST PUSH1 0x40 MLOAD DUP1 SWAP2 SUB SWAP1 REVERT JUMPDEST SWAP5 SWAP4 POP POP POP POP JUMP JUMPDEST PUSH2 0xF0A PUSH2 0x11C4 JUMP JUMPDEST PUSH2 0xF1A DUP4 DUP5 PUSH1 0x0 ADD MLOAD MLOAD DUP5 PUSH2 0x1033 JUMP JUMPDEST SWAP1 POP SWAP3 SWAP2 POP POP JUMP JUMPDEST PUSH2 0xF2A PUSH2 0x11C4 JUMP JUMPDEST PUSH2 0xF3B DUP5 DUP6 PUSH1 0x0 ADD MLOAD MLOAD DUP6 DUP6 PUSH2 0x1089 JUMP JUMPDEST SWAP1 POP SWAP4 SWAP3 POP POP POP JUMP JUMPDEST PUSH2 0xF4C PUSH2 0x11C4 JUMP JUMPDEST DUP3 MLOAD DUP3 GT ISZERO PUSH2 0xF5A JUMPI PUSH1 0x0 DUP1 REVERT JUMPDEST DUP5 PUSH1 0x20 ADD MLOAD DUP3 DUP6 PUSH2 0xF6B SWAP2 SWAP1 PUSH2 0x1B99 JUMP JUMPDEST GT ISZERO PUSH2 0xFA0 JUMPI PUSH2 0xF9F DUP6 PUSH1 0x2 PUSH2 0xF90 DUP9 PUSH1 0x20 ADD MLOAD DUP9 DUP8 PUSH2 0xF8B SWAP2 SWAP1 PUSH2 0x1B99 JUMP JUMPDEST PUSH2 0x1117 JUMP JUMPDEST PUSH2 0xF9A SWAP2 SWAP1 PUSH2 0x1F21 JUMP JUMPDEST PUSH2 0x1133 JUMP JUMPDEST JUMPDEST PUSH1 0x0 DUP1 DUP7 MLOAD DUP1 MLOAD DUP8 PUSH1 0x20 DUP4 ADD ADD SWAP4 POP DUP1 DUP9 DUP8 ADD GT ISZERO PUSH2 0xFBF JUMPI DUP8 DUP7 ADD DUP3 MSTORE JUMPDEST PUSH1 0x20 DUP8 ADD SWAP3 POP POP POP JUMPDEST PUSH1 0x20 DUP5 LT PUSH2 0x1006 JUMPI DUP1 MLOAD DUP3 MSTORE PUSH1 0x20 DUP3 PUSH2 0xFE1 SWAP2 SWAP1 PUSH2 0x1B99 JUMP JUMPDEST SWAP2 POP PUSH1 0x20 DUP2 PUSH2 0xFF0 SWAP2 SWAP1 PUSH2 0x1B99 JUMP JUMPDEST SWAP1 POP PUSH1 0x20 DUP5 PUSH2 0xFFF SWAP2 SWAP1 PUSH2 0x1D42 JUMP JUMPDEST SWAP4 POP PUSH2 0xFC8 JUMP JUMPDEST PUSH1 0x0 PUSH1 0x1 DUP6 PUSH1 0x20 SUB PUSH2 0x100 EXP SUB SWAP1 POP DUP1 NOT DUP3 MLOAD AND DUP2 DUP5 MLOAD AND DUP2 DUP2 OR DUP6 MSTORE POP POP POP DUP7 SWAP3 POP POP POP SWAP5 SWAP4 POP POP POP POP JUMP JUMPDEST PUSH2 0x103B PUSH2 0x11C4 JUMP JUMPDEST DUP4 PUSH1 0x20 ADD MLOAD DUP4 LT PUSH2 0x1061 JUMPI PUSH2 0x1060 DUP5 PUSH1 0x2 DUP7 PUSH1 0x20 ADD MLOAD PUSH2 0x105B SWAP2 SWAP1 PUSH2 0x1F21 JUMP JUMPDEST PUSH2 0x1133 JUMP JUMPDEST JUMPDEST DUP4 MLOAD DUP1 MLOAD PUSH1 0x20 DUP6 DUP4 ADD ADD DUP5 DUP2 MSTORE8 DUP2 DUP7 SUB PUSH2 0x107C JUMPI PUSH1 0x1 DUP3 ADD DUP4 MSTORE JUMPDEST POP POP POP DUP4 SWAP1 POP SWAP4 SWAP3 POP POP POP JUMP JUMPDEST PUSH2 0x1091 PUSH2 0x11C4 JUMP JUMPDEST DUP5 PUSH1 0x20 ADD MLOAD DUP5 DUP4 PUSH2 0x10A2 SWAP2 SWAP1 PUSH2 0x1B99 JUMP JUMPDEST GT ISZERO PUSH2 0x10CA JUMPI PUSH2 0x10C9 DUP6 PUSH1 0x2 DUP7 DUP6 PUSH2 0x10BA SWAP2 SWAP1 PUSH2 0x1B99 JUMP JUMPDEST PUSH2 0x10C4 SWAP2 SWAP1 PUSH2 0x1F21 JUMP JUMPDEST PUSH2 0x1133 JUMP JUMPDEST JUMPDEST PUSH1 0x0 PUSH1 0x1 DUP4 PUSH2 0x100 PUSH2 0x10DC SWAP2 SWAP1 PUSH2 0x2096 JUMP JUMPDEST PUSH2 0x10E6 SWAP2 SWAP1 PUSH2 0x1D42 JUMP JUMPDEST SWAP1 POP DUP6 MLOAD DUP4 DUP7 DUP3 ADD ADD DUP6 DUP4 NOT DUP3 MLOAD AND OR DUP2 MSTORE DUP2 MLOAD DUP6 DUP9 ADD GT ISZERO PUSH2 0x1109 JUMPI DUP5 DUP8 ADD DUP3 MSTORE JUMPDEST POP POP DUP6 SWAP2 POP POP SWAP5 SWAP4 POP POP POP POP JUMP JUMPDEST PUSH1 0x0 DUP2 DUP4 GT ISZERO PUSH2 0x1129 JUMPI DUP3 SWAP1 POP PUSH2 0x112D JUMP JUMPDEST DUP2 SWAP1 POP JUMPDEST SWAP3 SWAP2 POP POP JUMP JUMPDEST PUSH1 0x0 DUP3 PUSH1 0x0 ADD MLOAD SWAP1 POP PUSH2 0x1146 DUP4 DUP4 PUSH2 0xB5C JUMP JUMPDEST POP PUSH2 0x1151 DUP4 DUP3 PUSH2 0xD4B JUMP JUMPDEST POP POP POP POP JUMP JUMPDEST PUSH1 0x40 MLOAD DUP1 PUSH1 0xA0 ADD PUSH1 0x40 MSTORE DUP1 PUSH1 0x0 DUP1 NOT AND DUP2 MSTORE PUSH1 0x20 ADD PUSH1 0x0 PUSH20 0xFFFFFFFFFFFFFFFFFFFFFFFFFFFFFFFFFFFFFFFF AND DUP2 MSTORE PUSH1 0x20 ADD PUSH1 0x0 PUSH28 0xFFFFFFFFFFFFFFFFFFFFFFFFFFFFFFFFFFFFFFFFFFFFFFFFFFFFFFFF NOT AND DUP2 MSTORE PUSH1 0x20 ADD PUSH1 0x0 DUP2 MSTORE PUSH1 0x20 ADD PUSH2 0x11BE PUSH2 0x11C4 JUMP JUMPDEST DUP2 MSTORE POP SWAP1 JUMP JUMPDEST PUSH1 0x40 MLOAD DUP1 PUSH1 0x40 ADD PUSH1 0x40 MSTORE DUP1 PUSH1 0x60 DUP2 MSTORE PUSH1 0x20 ADD PUSH1 0x0 DUP2 MSTORE POP SWAP1 JUMP JUMPDEST PUSH1 0x0 DUP2 SWAP1 POP SWAP2 SWAP1 POP JUMP JUMPDEST PUSH2 0x11F1 DUP2 PUSH2 0x11DE JUMP JUMPDEST DUP3 MSTORE POP POP JUMP JUMPDEST PUSH1 0x0 PUSH1 0x20 DUP3 ADD SWAP1 POP PUSH2 0x120C PUSH1 0x0 DUP4 ADD DUP5 PUSH2 0x11E8 JUMP JUMPDEST SWAP3 SWAP2 POP POP JUMP JUMPDEST PUSH1 0x0 PUSH1 0x40 MLOAD SWAP1 POP SWAP1 JUMP JUMPDEST PUSH1 0x0 DUP1 REVERT JUMPDEST PUSH1 0x0 DUP1 REVERT JUMPDEST PUSH2 0x122F DUP2 PUSH2 0x11DE JUMP JUMPDEST DUP2 EQ PUSH2 0x123A JUMPI PUSH1 0x0 DUP1 REVERT JUMPDEST POP JUMP JUMPDEST PUSH1 0x0 DUP2 CALLDATALOAD SWAP1 POP PUSH2 0x124C DUP2 PUSH2 0x1226 JUMP JUMPDEST SWAP3 SWAP2 POP POP JUMP JUMPDEST PUSH1 0x0 DUP1 REVERT JUMPDEST PUSH1 0x0 DUP1 REVERT JUMPDEST PUSH1 0x0 PUSH1 0x1F NOT PUSH1 0x1F DUP4 ADD AND SWAP1 POP SWAP2 SWAP1 POP JUMP JUMPDEST PUSH32 0x4E487B7100000000000000000000000000000000000000000000000000000000 PUSH1 0x0 MSTORE PUSH1 0x41 PUSH1 0x4 MSTORE PUSH1 0x24 PUSH1 0x0 REVERT JUMPDEST PUSH2 0x12A5 DUP3 PUSH2 0x125C JUMP JUMPDEST DUP2 ADD DUP2 DUP2 LT PUSH8 0xFFFFFFFFFFFFFFFF DUP3 GT OR ISZERO PUSH2 0x12C4 JUMPI PUSH2 0x12C3 PUSH2 0x126D JUMP JUMPDEST JUMPDEST DUP1 PUSH1 0x40 MSTORE POP POP POP JUMP JUMPDEST PUSH1 0x0 PUSH2 0x12D7 PUSH2 0x1212 JUMP JUMPDEST SWAP1 POP PUSH2 0x12E3 DUP3 DUP3 PUSH2 0x129C JUMP JUMPDEST SWAP2 SWAP1 POP JUMP JUMPDEST PUSH1 0x0 PUSH8 0xFFFFFFFFFFFFFFFF DUP3 GT ISZERO PUSH2 0x1303 JUMPI PUSH2 0x1302 PUSH2 0x126D JUMP JUMPDEST JUMPDEST PUSH2 0x130C DUP3 PUSH2 0x125C JUMP JUMPDEST SWAP1 POP PUSH1 0x20 DUP2 ADD SWAP1 POP SWAP2 SWAP1 POP JUMP JUMPDEST DUP3 DUP2 DUP4 CALLDATACOPY PUSH1 0x0 DUP4 DUP4 ADD MSTORE POP POP POP JUMP JUMPDEST PUSH1 0x0 PUSH2 0x133B PUSH2 0x1336 DUP5 PUSH2 0x12E8 JUMP JUMPDEST PUSH2 0x12CD JUMP JUMPDEST SWAP1 POP DUP3 DUP2 MSTORE PUSH1 0x20 DUP2 ADD DUP5 DUP5 DUP5 ADD GT ISZERO PUSH2 0x1357 JUMPI PUSH2 0x1356 PUSH2 0x1257 JUMP JUMPDEST JUMPDEST PUSH2 0x1362 DUP5 DUP3 DUP6 PUSH2 0x1319 JUMP JUMPDEST POP SWAP4 SWAP3 POP POP POP JUMP JUMPDEST PUSH1 0x0 DUP3 PUSH1 0x1F DUP4 ADD SLT PUSH2 0x137F JUMPI PUSH2 0x137E PUSH2 0x1252 JUMP JUMPDEST JUMPDEST DUP2 CALLDATALOAD PUSH2 0x138F DUP5 DUP3 PUSH1 0x20 DUP7 ADD PUSH2 0x1328 JUMP JUMPDEST SWAP2 POP POP SWAP3 SWAP2 POP POP JUMP JUMPDEST PUSH1 0x0 DUP1 PUSH1 0x40 DUP4 DUP6 SUB SLT ISZERO PUSH2 0x13AF JUMPI PUSH2 0x13AE PUSH2 0x121C JUMP JUMPDEST JUMPDEST PUSH1 0x0 PUSH2 0x13BD DUP6 DUP3 DUP7 ADD PUSH2 0x123D JUMP JUMPDEST SWAP3 POP POP PUSH1 0x20 DUP4 ADD CALLDATALOAD PUSH8 0xFFFFFFFFFFFFFFFF DUP2 GT ISZERO PUSH2 0x13DE JUMPI PUSH2 0x13DD PUSH2 0x1221 JUMP JUMPDEST JUMPDEST PUSH2 0x13EA DUP6 DUP3 DUP7 ADD PUSH2 0x136A JUMP JUMPDEST SWAP2 POP POP SWAP3 POP SWAP3 SWAP1 POP JUMP JUMPDEST PUSH1 0x0 PUSH20 0xFFFFFFFFFFFFFFFFFFFFFFFFFFFFFFFFFFFFFFFF DUP3 AND SWAP1 POP SWAP2 SWAP1 POP JUMP JUMPDEST PUSH1 0x0 PUSH2 0x141F DUP3 PUSH2 0x13F4 JUMP JUMPDEST SWAP1 POP SWAP2 SWAP1 POP JUMP JUMPDEST PUSH2 0x142F DUP2 PUSH2 0x1414 JUMP JUMPDEST DUP3 MSTORE POP POP JUMP JUMPDEST PUSH1 0x0 PUSH1 0x20 DUP3 ADD SWAP1 POP PUSH2 0x144A PUSH1 0x0 DUP4 ADD DUP5 PUSH2 0x1426 JUMP JUMPDEST SWAP3 SWAP2 POP POP JUMP JUMPDEST PUSH1 0x0 DUP2 MLOAD SWAP1 POP SWAP2 SWAP1 POP JUMP JUMPDEST PUSH1 0x0 DUP3 DUP3 MSTORE PUSH1 0x20 DUP3 ADD SWAP1 POP SWAP3 SWAP2 POP POP JUMP JUMPDEST PUSH1 0x0 JUMPDEST DUP4 DUP2 LT ISZERO PUSH2 0x148A JUMPI DUP1 DUP3 ADD MLOAD DUP2 DUP5 ADD MSTORE PUSH1 0x20 DUP2 ADD SWAP1 POP PUSH2 0x146F JUMP JUMPDEST PUSH1 0x0 DUP5 DUP5 ADD MSTORE POP POP POP POP JUMP JUMPDEST PUSH1 0x0 PUSH2 0x14A1 DUP3 PUSH2 0x1450 JUMP JUMPDEST PUSH2 0x14AB DUP2 DUP6 PUSH2 0x145B JUMP JUMPDEST SWAP4 POP PUSH2 0x14BB DUP2 DUP6 PUSH1 0x20 DUP7 ADD PUSH2 0x146C JUMP JUMPDEST PUSH2 0x14C4 DUP2 PUSH2 0x125C JUMP JUMPDEST DUP5 ADD SWAP2 POP POP SWAP3 SWAP2 POP POP JUMP JUMPDEST PUSH1 0x0 PUSH1 0x20 DUP3 ADD SWAP1 POP DUP2 DUP2 SUB PUSH1 0x0 DUP4 ADD MSTORE PUSH2 0x14E9 DUP2 DUP5 PUSH2 0x1496 JUMP JUMPDEST SWAP1 POP SWAP3 SWAP2 POP POP JUMP JUMPDEST PUSH2 0x14FA DUP2 PUSH2 0x1414 JUMP JUMPDEST DUP2 EQ PUSH2 0x1505 JUMPI PUSH1 0x0 DUP1 REVERT JUMPDEST POP JUMP JUMPDEST PUSH1 0x0 DUP2 CALLDATALOAD SWAP1 POP PUSH2 0x1517 DUP2 PUSH2 0x14F1 JUMP JUMPDEST SWAP3 SWAP2 POP POP JUMP JUMPDEST PUSH1 0x0 PUSH1 0x20 DUP3 DUP5 SUB SLT ISZERO PUSH2 0x1533 JUMPI PUSH2 0x1532 PUSH2 0x121C JUMP JUMPDEST JUMPDEST PUSH1 0x0 PUSH2 0x1541 DUP5 DUP3 DUP6 ADD PUSH2 0x1508 JUMP JUMPDEST SWAP2 POP POP SWAP3 SWAP2 POP POP JUMP JUMPDEST PUSH32 0x536F75726365206D75737420626520746865206F7261636C65206F6620746865 PUSH1 0x0 DUP3 ADD MSTORE PUSH32 0x2072657175657374000000000000000000000000000000000000000000000000 PUSH1 0x20 DUP3 ADD MSTORE POP JUMP JUMPDEST PUSH1 0x0 PUSH2 0x15A6 PUSH1 0x28 DUP4 PUSH2 0x145B JUMP JUMPDEST SWAP2 POP PUSH2 0x15B1 DUP3 PUSH2 0x154A JUMP JUMPDEST PUSH1 0x40 DUP3 ADD SWAP1 POP SWAP2 SWAP1 POP JUMP JUMPDEST PUSH1 0x0 PUSH1 0x20 DUP3 ADD SWAP1 POP DUP2 DUP2 SUB PUSH1 0x0 DUP4 ADD MSTORE PUSH2 0x15D5 DUP2 PUSH2 0x1599 JUMP JUMPDEST SWAP1 POP SWAP2 SWAP1 POP JUMP JUMPDEST PUSH32 0x4E487B7100000000000000000000000000000000000000000000000000000000 PUSH1 0x0 MSTORE PUSH1 0x22 PUSH1 0x4 MSTORE PUSH1 0x24 PUSH1 0x0 REVERT JUMPDEST PUSH1 0x0 PUSH1 0x2 DUP3 DIV SWAP1 POP PUSH1 0x1 DUP3 AND DUP1 PUSH2 0x1623 JUMPI PUSH1 0x7F DUP3 AND SWAP2 POP JUMPDEST PUSH1 0x20 DUP3 LT DUP2 SUB PUSH2 0x1636 JUMPI PUSH2 0x1635 PUSH2 0x15DC JUMP JUMPDEST JUMPDEST POP SWAP2 SWAP1 POP JUMP JUMPDEST PUSH1 0x0 DUP2 SWAP1 POP DUP2 PUSH1 0x0 MSTORE PUSH1 0x20 PUSH1 0x0 KECCAK256 SWAP1 POP SWAP2 SWAP1 POP JUMP JUMPDEST PUSH1 0x0 PUSH1 0x20 PUSH1 0x1F DUP4 ADD DIV SWAP1 POP SWAP2 SWAP1 POP JUMP JUMPDEST PUSH1 0x0 DUP3 DUP3 SHL SWAP1 POP SWAP3 SWAP2 POP POP JUMP JUMPDEST PUSH1 0x0 PUSH1 0x8 DUP4 MUL PUSH2 0x169E PUSH32 0xFFFFFFFFFFFFFFFFFFFFFFFFFFFFFFFFFFFFFFFFFFFFFFFFFFFFFFFFFFFFFFFF DUP3 PUSH2 0x1661 JUMP JUMPDEST PUSH2 0x16A8 DUP7 DUP4 PUSH2 0x1661 JUMP JUMPDEST SWAP6 POP DUP1 NOT DUP5 AND SWAP4 POP DUP1 DUP7 AND DUP5 OR SWAP3 POP POP POP SWAP4 SWAP3 POP POP POP JUMP JUMPDEST PUSH1 0x0 DUP2 SWAP1 POP SWAP2 SWAP1 POP JUMP JUMPDEST PUSH1 0x0 DUP2 SWAP1 POP SWAP2 SWAP1 POP JUMP JUMPDEST PUSH1 0x0 PUSH2 0x16EF PUSH2 0x16EA PUSH2 0x16E5 DUP5 PUSH2 0x16C0 JUMP JUMPDEST PUSH2 0x16CA JUMP JUMPDEST PUSH2 0x16C0 JUMP JUMPDEST SWAP1 POP SWAP2 SWAP1 POP JUMP JUMPDEST PUSH1 0x0 DUP2 SWAP1 POP SWAP2 SWAP1 POP JUMP JUMPDEST PUSH2 0x1709 DUP4 PUSH2 0x16D4 JUMP JUMPDEST PUSH2 0x171D PUSH2 0x1715 DUP3 PUSH2 0x16F6 JUMP JUMPDEST DUP5 DUP5 SLOAD PUSH2 0x166E JUMP JUMPDEST DUP3 SSTORE POP POP POP POP JUMP JUMPDEST PUSH1 0x0 SWAP1 JUMP JUMPDEST PUSH2 0x1732 PUSH2 0x1725 JUMP JUMPDEST PUSH2 0x173D DUP2 DUP5 DUP5 PUSH2 0x1700 JUMP JUMPDEST POP POP POP JUMP JUMPDEST JUMPDEST DUP2 DUP2 LT ISZERO PUSH2 0x1761 JUMPI PUSH2 0x1756 PUSH1 0x0 DUP3 PUSH2 0x172A JUMP JUMPDEST PUSH1 0x1 DUP2 ADD SWAP1 POP PUSH2 0x1743 JUMP JUMPDEST POP POP JUMP JUMPDEST PUSH1 0x1F DUP3 GT ISZERO PUSH2 0x17A6 JUMPI PUSH2 0x1777 DUP2 PUSH2 0x163C JUMP JUMPDEST PUSH2 0x1780 DUP5 PUSH2 0x1651 JUMP JUMPDEST DUP2 ADD PUSH1 0x20 DUP6 LT ISZERO PUSH2 0x178F JUMPI DUP2 SWAP1 POP JUMPDEST PUSH2 0x17A3 PUSH2 0x179B DUP6 PUSH2 0x1651 JUMP JUMPDEST DUP4 ADD DUP3 PUSH2 0x1742 JUMP JUMPDEST POP POP JUMPDEST POP POP POP JUMP JUMPDEST PUSH1 0x0 DUP3 DUP3 SHR SWAP1 POP SWAP3 SWAP2 POP POP JUMP JUMPDEST PUSH1 0x0 PUSH2 0x17C9 PUSH1 0x0 NOT DUP5 PUSH1 0x8 MUL PUSH2 0x17AB JUMP JUMPDEST NOT DUP1 DUP4 AND SWAP2 POP POP SWAP3 SWAP2 POP POP JUMP JUMPDEST PUSH1 0x0 PUSH2 0x17E2 DUP4 DUP4 PUSH2 0x17B8 JUMP JUMPDEST SWAP2 POP DUP3 PUSH1 0x2 MUL DUP3 OR SWAP1 POP SWAP3 SWAP2 POP POP JUMP JUMPDEST PUSH2 0x17FB DUP3 PUSH2 0x1450 JUMP JUMPDEST PUSH8 0xFFFFFFFFFFFFFFFF DUP2 GT ISZERO PUSH2 0x1814 JUMPI PUSH2 0x1813 PUSH2 0x126D JUMP JUMPDEST JUMPDEST PUSH2 0x181E DUP3 SLOAD PUSH2 0x160B JUMP JUMPDEST PUSH2 0x1829 DUP3 DUP3 DUP6 PUSH2 0x1765 JUMP JUMPDEST PUSH1 0x0 PUSH1 0x20 SWAP1 POP PUSH1 0x1F DUP4 GT PUSH1 0x1 DUP2 EQ PUSH2 0x185C JUMPI PUSH1 0x0 DUP5 ISZERO PUSH2 0x184A JUMPI DUP3 DUP8 ADD MLOAD SWAP1 POP JUMPDEST PUSH2 0x1854 DUP6 DUP3 PUSH2 0x17D6 JUMP JUMPDEST DUP7 SSTORE POP PUSH2 0x18BC JUMP JUMPDEST PUSH1 0x1F NOT DUP5 AND PUSH2 0x186A DUP7 PUSH2 0x163C JUMP JUMPDEST PUSH1 0x0 JUMPDEST DUP3 DUP2 LT ISZERO PUSH2 0x1892 JUMPI DUP5 DUP10 ADD MLOAD DUP3 SSTORE PUSH1 0x1 DUP3 ADD SWAP2 POP PUSH1 0x20 DUP6 ADD SWAP5 POP PUSH1 0x20 DUP2 ADD SWAP1 POP PUSH2 0x186D JUMP JUMPDEST DUP7 DUP4 LT ISZERO PUSH2 0x18AF JUMPI DUP5 DUP10 ADD MLOAD PUSH2 0x18AB PUSH1 0x1F DUP10 AND DUP3 PUSH2 0x17B8 JUMP JUMPDEST DUP4 SSTORE POP JUMPDEST PUSH1 0x1 PUSH1 0x2 DUP9 MUL ADD DUP9 SSTORE POP POP POP JUMPDEST POP POP POP POP POP POP JUMP JUMPDEST PUSH32 0x4D7573742062652070726F706F736564206F776E657200000000000000000000 PUSH1 0x0 DUP3 ADD MSTORE POP JUMP JUMPDEST PUSH1 0x0 PUSH2 0x18FA PUSH1 0x16 DUP4 PUSH2 0x145B JUMP JUMPDEST SWAP2 POP PUSH2 0x1905 DUP3 PUSH2 0x18C4 JUMP JUMPDEST PUSH1 0x20 DUP3 ADD SWAP1 POP SWAP2 SWAP1 POP JUMP JUMPDEST PUSH1 0x0 PUSH1 0x20 DUP3 ADD SWAP1 POP DUP2 DUP2 SUB PUSH1 0x0 DUP4 ADD MSTORE PUSH2 0x1929 DUP2 PUSH2 0x18ED JUMP JUMPDEST SWAP1 POP SWAP2 SWAP1 POP JUMP JUMPDEST PUSH2 0x1939 DUP2 PUSH2 0x16C0 JUMP JUMPDEST DUP2 EQ PUSH2 0x1944 JUMPI PUSH1 0x0 DUP1 REVERT JUMPDEST POP JUMP JUMPDEST PUSH1 0x0 DUP2 MLOAD SWAP1 POP PUSH2 0x1956 DUP2 PUSH2 0x1930 JUMP JUMPDEST SWAP3 SWAP2 POP POP JUMP JUMPDEST PUSH1 0x0 PUSH1 0x20 DUP3 DUP5 SUB SLT ISZERO PUSH2 0x1972 JUMPI PUSH2 0x1971 PUSH2 0x121C JUMP JUMPDEST JUMPDEST PUSH1 0x0 PUSH2 0x1980 DUP5 DUP3 DUP6 ADD PUSH2 0x1947 JUMP JUMPDEST SWAP2 POP POP SWAP3 SWAP2 POP POP JUMP JUMPDEST PUSH2 0x1992 DUP2 PUSH2 0x16C0 JUMP JUMPDEST DUP3 MSTORE POP POP JUMP JUMPDEST PUSH1 0x0 PUSH1 0x40 DUP3 ADD SWAP1 POP PUSH2 0x19AD PUSH1 0x0 DUP4 ADD DUP6 PUSH2 0x1426 JUMP JUMPDEST PUSH2 0x19BA PUSH1 0x20 DUP4 ADD DUP5 PUSH2 0x1989 JUMP JUMPDEST SWAP4 SWAP3 POP POP POP JUMP JUMPDEST PUSH1 0x0 DUP2 ISZERO ISZERO SWAP1 POP SWAP2 SWAP1 POP JUMP JUMPDEST PUSH2 0x19D6 DUP2 PUSH2 0x19C1 JUMP JUMPDEST DUP2 EQ PUSH2 0x19E1 JUMPI PUSH1 0x0 DUP1 REVERT JUMPDEST POP JUMP JUMPDEST PUSH1 0x0 DUP2 MLOAD SWAP1 POP PUSH2 0x19F3 DUP2 PUSH2 0x19CD JUMP JUMPDEST SWAP3 SWAP2 POP POP JUMP JUMPDEST PUSH1 0x0 PUSH1 0x20 DUP3 DUP5 SUB SLT ISZERO PUSH2 0x1A0F JUMPI PUSH2 0x1A0E PUSH2 0x121C JUMP JUMPDEST JUMPDEST PUSH1 0x0 PUSH2 0x1A1D DUP5 DUP3 DUP6 ADD PUSH2 0x19E4 JUMP JUMPDEST SWAP2 POP POP SWAP3 SWAP2 POP POP JUMP JUMPDEST PUSH32 0x556E61626C6520746F207472616E736665720000000000000000000000000000 PUSH1 0x0 DUP3 ADD MSTORE POP JUMP JUMPDEST PUSH1 0x0 PUSH2 0x1A5C PUSH1 0x12 DUP4 PUSH2 0x145B JUMP JUMPDEST SWAP2 POP PUSH2 0x1A67 DUP3 PUSH2 0x1A26 JUMP JUMPDEST PUSH1 0x20 DUP3 ADD SWAP1 POP SWAP2 SWAP1 POP JUMP JUMPDEST PUSH1 0x0 PUSH1 0x20 DUP3 ADD SWAP1 POP DUP2 DUP2 SUB PUSH1 0x0 DUP4 ADD MSTORE PUSH2 0x1A8B DUP2 PUSH2 0x1A4F JUMP JUMPDEST SWAP1 POP SWAP2 SWAP1 POP JUMP JUMPDEST PUSH32 0x4F6E6C792063616C6C61626C65206279206F776E657200000000000000000000 PUSH1 0x0 DUP3 ADD MSTORE POP JUMP JUMPDEST PUSH1 0x0 PUSH2 0x1AC8 PUSH1 0x16 DUP4 PUSH2 0x145B JUMP JUMPDEST SWAP2 POP PUSH2 0x1AD3 DUP3 PUSH2 0x1A92 JUMP JUMPDEST PUSH1 0x20 DUP3 ADD SWAP1 POP SWAP2 SWAP1 POP JUMP JUMPDEST PUSH1 0x0 PUSH1 0x20 DUP3 ADD SWAP1 POP DUP2 DUP2 SUB PUSH1 0x0 DUP4 ADD MSTORE PUSH2 0x1AF7 DUP2 PUSH2 0x1ABB JUMP JUMPDEST SWAP1 POP SWAP2 SWAP1 POP JUMP JUMPDEST PUSH32 0x43616E6E6F74207472616E7366657220746F2073656C66000000000000000000 PUSH1 0x0 DUP3 ADD MSTORE POP JUMP JUMPDEST PUSH1 0x0 PUSH2 0x1B34 PUSH1 0x17 DUP4 PUSH2 0x145B JUMP JUMPDEST SWAP2 POP PUSH2 0x1B3F DUP3 PUSH2 0x1AFE JUMP JUMPDEST PUSH1 0x20 DUP3 ADD SWAP1 POP SWAP2 SWAP1 POP JUMP JUMPDEST PUSH1 0x0 PUSH1 0x20 DUP3 ADD SWAP1 POP DUP2 DUP2 SUB PUSH1 0x0 DUP4 ADD MSTORE PUSH2 0x1B63 DUP2 PUSH2 0x1B27 JUMP JUMPDEST SWAP1 POP SWAP2 SWAP1 POP JUMP JUMPDEST PUSH32 0x4E487B7100000000000000000000000000000000000000000000000000000000 PUSH1 0x0 MSTORE PUSH1 0x11 PUSH1 0x4 MSTORE PUSH1 0x24 PUSH1 0x0 REVERT JUMPDEST PUSH1 0x0 PUSH2 0x1BA4 DUP3 PUSH2 0x16C0 JUMP JUMPDEST SWAP2 POP PUSH2 0x1BAF DUP4 PUSH2 0x16C0 JUMP JUMPDEST SWAP3 POP DUP3 DUP3 ADD SWAP1 POP DUP1 DUP3 GT ISZERO PUSH2 0x1BC7 JUMPI PUSH2 0x1BC6 PUSH2 0x1B6A JUMP JUMPDEST JUMPDEST SWAP3 SWAP2 POP POP JUMP JUMPDEST PUSH1 0x0 PUSH32 0xFFFFFFFF00000000000000000000000000000000000000000000000000000000 DUP3 AND SWAP1 POP SWAP2 SWAP1 POP JUMP JUMPDEST PUSH2 0x1C02 DUP2 PUSH2 0x1BCD JUMP JUMPDEST DUP3 MSTORE POP POP JUMP JUMPDEST PUSH1 0x0 DUP2 MLOAD SWAP1 POP SWAP2 SWAP1 POP JUMP JUMPDEST PUSH1 0x0 DUP3 DUP3 MSTORE PUSH1 0x20 DUP3 ADD SWAP1 POP SWAP3 SWAP2 POP POP JUMP JUMPDEST PUSH1 0x0 PUSH2 0x1C2F DUP3 PUSH2 0x1C08 JUMP JUMPDEST PUSH2 0x1C39 DUP2 DUP6 PUSH2 0x1C13 JUMP JUMPDEST SWAP4 POP PUSH2 0x1C49 DUP2 DUP6 PUSH1 0x20 DUP7 ADD PUSH2 0x146C JUMP JUMPDEST PUSH2 0x1C52 DUP2 PUSH2 0x125C JUMP JUMPDEST DUP5 ADD SWAP2 POP POP SWAP3 SWAP2 POP POP JUMP JUMPDEST PUSH1 0x0 PUSH2 0x100 DUP3 ADD SWAP1 POP PUSH2 0x1C73 PUSH1 0x0 DUP4 ADD DUP12 PUSH2 0x1426 JUMP JUMPDEST PUSH2 0x1C80 PUSH1 0x20 DUP4 ADD DUP11 PUSH2 0x1989 JUMP JUMPDEST PUSH2 0x1C8D PUSH1 0x40 DUP4 ADD DUP10 PUSH2 0x11E8 JUMP JUMPDEST PUSH2 0x1C9A PUSH1 0x60 DUP4 ADD DUP9 PUSH2 0x1426 JUMP JUMPDEST PUSH2 0x1CA7 PUSH1 0x80 DUP4 ADD DUP8 PUSH2 0x1BF9 JUMP JUMPDEST PUSH2 0x1CB4 PUSH1 0xA0 DUP4 ADD DUP7 PUSH2 0x1989 JUMP JUMPDEST PUSH2 0x1CC1 PUSH1 0xC0 DUP4 ADD DUP6 PUSH2 0x1989 JUMP JUMPDEST DUP2 DUP2 SUB PUSH1 0xE0 DUP4 ADD MSTORE PUSH2 0x1CD3 DUP2 DUP5 PUSH2 0x1C24 JUMP JUMPDEST SWAP1 POP SWAP10 SWAP9 POP POP POP POP POP POP POP POP POP JUMP JUMPDEST PUSH32 0x4E487B7100000000000000000000000000000000000000000000000000000000 PUSH1 0x0 MSTORE PUSH1 0x12 PUSH1 0x4 MSTORE PUSH1 0x24 PUSH1 0x0 REVERT JUMPDEST PUSH1 0x0 PUSH2 0x1D1C DUP3 PUSH2 0x16C0 JUMP JUMPDEST SWAP2 POP PUSH2 0x1D27 DUP4 PUSH2 0x16C0 JUMP JUMPDEST SWAP3 POP DUP3 PUSH2 0x1D37 JUMPI PUSH2 0x1D36 PUSH2 0x1CE2 JUMP JUMPDEST JUMPDEST DUP3 DUP3 MOD SWAP1 POP SWAP3 SWAP2 POP POP JUMP JUMPDEST PUSH1 0x0 PUSH2 0x1D4D DUP3 PUSH2 0x16C0 JUMP JUMPDEST SWAP2 POP PUSH2 0x1D58 DUP4 PUSH2 0x16C0 JUMP JUMPDEST SWAP3 POP DUP3 DUP3 SUB SWAP1 POP DUP2 DUP2 GT ISZERO PUSH2 0x1D70 JUMPI PUSH2 0x1D6F PUSH2 0x1B6A JUMP JUMPDEST JUMPDEST SWAP3 SWAP2 POP POP JUMP JUMPDEST PUSH1 0x0 PUSH2 0x1D91 PUSH2 0x1D8C PUSH2 0x1D87 DUP5 PUSH2 0x13F4 JUMP JUMPDEST PUSH2 0x16CA JUMP JUMPDEST PUSH2 0x13F4 JUMP JUMPDEST SWAP1 POP SWAP2 SWAP1 POP JUMP JUMPDEST PUSH1 0x0 PUSH2 0x1DA3 DUP3 PUSH2 0x1D76 JUMP JUMPDEST SWAP1 POP SWAP2 SWAP1 POP JUMP JUMPDEST PUSH1 0x0 PUSH2 0x1DB5 DUP3 PUSH2 0x1D98 JUMP JUMPDEST SWAP1 POP SWAP2 SWAP1 POP JUMP JUMPDEST PUSH1 0x0 DUP2 PUSH1 0x60 SHL SWAP1 POP SWAP2 SWAP1 POP JUMP JUMPDEST PUSH1 0x0 PUSH2 0x1DD4 DUP3 PUSH2 0x1DBC JUMP JUMPDEST SWAP1 POP SWAP2 SWAP1 POP JUMP JUMPDEST PUSH1 0x0 PUSH2 0x1DE6 DUP3 PUSH2 0x1DC9 JUMP JUMPDEST SWAP1 POP SWAP2 SWAP1 POP JUMP JUMPDEST PUSH2 0x1DFE PUSH2 0x1DF9 DUP3 PUSH2 0x1DAA JUMP JUMPDEST PUSH2 0x1DDB JUMP JUMPDEST DUP3 MSTORE POP POP JUMP JUMPDEST PUSH1 0x0 DUP2 SWAP1 POP SWAP2 SWAP1 POP JUMP JUMPDEST PUSH2 0x1E1F PUSH2 0x1E1A DUP3 PUSH2 0x16C0 JUMP JUMPDEST PUSH2 0x1E04 JUMP JUMPDEST DUP3 MSTORE POP POP JUMP JUMPDEST PUSH1 0x0 PUSH2 0x1E31 DUP3 DUP6 PUSH2 0x1DED JUMP JUMPDEST PUSH1 0x14 DUP3 ADD SWAP2 POP PUSH2 0x1E41 DUP3 DUP5 PUSH2 0x1E0E JUMP JUMPDEST PUSH1 0x20 DUP3 ADD SWAP2 POP DUP2 SWAP1 POP SWAP4 SWAP3 POP POP POP JUMP JUMPDEST PUSH1 0x0 PUSH1 0x60 DUP3 ADD SWAP1 POP PUSH2 0x1E66 PUSH1 0x0 DUP4 ADD DUP7 PUSH2 0x1426 JUMP JUMPDEST PUSH2 0x1E73 PUSH1 0x20 DUP4 ADD DUP6 PUSH2 0x1989 JUMP JUMPDEST DUP2 DUP2 SUB PUSH1 0x40 DUP4 ADD MSTORE PUSH2 0x1E85 DUP2 DUP5 PUSH2 0x1C24 JUMP JUMPDEST SWAP1 POP SWAP5 SWAP4 POP POP POP POP JUMP JUMPDEST PUSH32 0x756E61626C6520746F207472616E73666572416E6443616C6C20746F206F7261 PUSH1 0x0 DUP3 ADD MSTORE PUSH32 0x636C650000000000000000000000000000000000000000000000000000000000 PUSH1 0x20 DUP3 ADD MSTORE POP JUMP JUMPDEST PUSH1 0x0 PUSH2 0x1EEB PUSH1 0x23 DUP4 PUSH2 0x145B JUMP JUMPDEST SWAP2 POP PUSH2 0x1EF6 DUP3 PUSH2 0x1E8F JUMP JUMPDEST PUSH1 0x40 DUP3 ADD SWAP1 POP SWAP2 SWAP1 POP JUMP JUMPDEST PUSH1 0x0 PUSH1 0x20 DUP3 ADD SWAP1 POP DUP2 DUP2 SUB PUSH1 0x0 DUP4 ADD MSTORE PUSH2 0x1F1A DUP2 PUSH2 0x1EDE JUMP JUMPDEST SWAP1 POP SWAP2 SWAP1 POP JUMP JUMPDEST PUSH1 0x0 PUSH2 0x1F2C DUP3 PUSH2 0x16C0 JUMP JUMPDEST SWAP2 POP PUSH2 0x1F37 DUP4 PUSH2 0x16C0 JUMP JUMPDEST SWAP3 POP DUP3 DUP3 MUL PUSH2 0x1F45 DUP2 PUSH2 0x16C0 JUMP JUMPDEST SWAP2 POP DUP3 DUP3 DIV DUP5 EQ DUP4 ISZERO OR PUSH2 0x1F5C JUMPI PUSH2 0x1F5B PUSH2 0x1B6A JUMP JUMPDEST JUMPDEST POP SWAP3 SWAP2 POP POP JUMP JUMPDEST PUSH1 0x0 DUP2 PUSH1 0x1 SHR SWAP1 POP SWAP2 SWAP1 POP JUMP JUMPDEST PUSH1 0x0 DUP1 DUP3 SWAP2 POP DUP4 SWAP1 POP JUMPDEST PUSH1 0x1 DUP6 GT ISZERO PUSH2 0x1FBA JUMPI DUP1 DUP7 DIV DUP2 GT ISZERO PUSH2 0x1F96 JUMPI PUSH2 0x1F95 PUSH2 0x1B6A JUMP JUMPDEST JUMPDEST PUSH1 0x1 DUP6 AND ISZERO PUSH2 0x1FA5 JUMPI DUP1 DUP3 MUL SWAP2 POP JUMPDEST DUP1 DUP2 MUL SWAP1 POP PUSH2 0x1FB3 DUP6 PUSH2 0x1F63 JUMP JUMPDEST SWAP5 POP PUSH2 0x1F7A JUMP JUMPDEST SWAP5 POP SWAP5 SWAP3 POP POP POP JUMP JUMPDEST PUSH1 0x0 DUP3 PUSH2 0x1FD3 JUMPI PUSH1 0x1 SWAP1 POP PUSH2 0x208F JUMP JUMPDEST DUP2 PUSH2 0x1FE1 JUMPI PUSH1 0x0 SWAP1 POP PUSH2 0x208F JUMP JUMPDEST DUP2 PUSH1 0x1 DUP2 EQ PUSH2 0x1FF7 JUMPI PUSH1 0x2 DUP2 EQ PUSH2 0x2001 JUMPI PUSH2 0x2030 JUMP JUMPDEST PUSH1 0x1 SWAP2 POP POP PUSH2 0x208F JUMP JUMPDEST PUSH1 0xFF DUP5 GT ISZERO PUSH2 0x2013 JUMPI PUSH2 0x2012 PUSH2 0x1B6A JUMP JUMPDEST JUMPDEST DUP4 PUSH1 0x2 EXP SWAP2 POP DUP5 DUP3 GT ISZERO PUSH2 0x202A JUMPI PUSH2 0x2029 PUSH2 0x1B6A JUMP JUMPDEST JUMPDEST POP PUSH2 0x208F JUMP JUMPDEST POP PUSH1 0x20 DUP4 LT PUSH2 0x133 DUP4 LT AND PUSH1 0x4E DUP5 LT PUSH1 0xB DUP5 LT AND OR ISZERO PUSH2 0x2065 JUMPI DUP3 DUP3 EXP SWAP1 POP DUP4 DUP2 GT ISZERO PUSH2 0x2060 JUMPI PUSH2 0x205F PUSH2 0x1B6A JUMP JUMPDEST JUMPDEST PUSH2 0x208F JUMP JUMPDEST PUSH2 0x2072 DUP5 DUP5 DUP5 PUSH1 0x1 PUSH2 0x1F70 JUMP JUMPDEST SWAP3 POP SWAP1 POP DUP2 DUP5 DIV DUP2 GT ISZERO PUSH2 0x2089 JUMPI PUSH2 0x2088 PUSH2 0x1B6A JUMP JUMPDEST JUMPDEST DUP2 DUP2 MUL SWAP1 POP JUMPDEST SWAP4 SWAP3 POP POP POP JUMP JUMPDEST PUSH1 0x0 PUSH2 0x20A1 DUP3 PUSH2 0x16C0 JUMP JUMPDEST SWAP2 POP PUSH2 0x20AC DUP4 PUSH2 0x16C0 JUMP JUMPDEST SWAP3 POP PUSH2 0x20D9 PUSH32 0xFFFFFFFFFFFFFFFFFFFFFFFFFFFFFFFFFFFFFFFFFFFFFFFFFFFFFFFFFFFFFFFF DUP5 DUP5 PUSH2 0x1FC3 JUMP JUMPDEST SWAP1 POP SWAP3 SWAP2 POP POP JUMP INVALID PUSH9 0x747470733A2F2F6170 PUSH10 0x2E636F696E6765636B6F 0x2E PUSH4 0x6F6D2F61 PUSH17 0x692F76332F636F696E732F6D61726B6574 PUSH20 0x3F76735F63757272656E63793D75736426706572 0x5F PUSH17 0x6167653D3130A2646970667358221220FE REVERT SWAP7 0xD7 0x2D 0x1F 0xAF 0x2C 0xB2 ADDRESS DUP13 OR 0xCF PUSH13 0xC143D7849385BCA7687427BCF9 CALLCODE 0xBB 0xC4 SHR 0xD PUSH5 0x736F6C6343 STOP ADDMOD SGT STOP CALLER "},"methodIdentifiers":{"acceptOwnership()":"79ba5097","fulfill(bytes32,string)":"37441996","id()":"af640d0f","owner()":"8da5cb5b","requestFirstId()":"09323a6a","transferOwnership(address)":"f2fde38b","withdrawLink()":"8dc654a2"}}}}}