{
  "_format": "hh-sol-artifact-1",
  "contractName": "SingleResponse",
  "sourceName": "contracts/SingleResponse.sol",
  "abi": [
    {
      "inputs": [
        {
          "internalType": "address",
          "name": "_linkToken",
          "type": "address"
        },
        {
          "internalType": "address",
          "name": "_oracle",
          "type": "address"
        },
        {
          "internalType": "string",
          "name": "_jobId",
          "type": "string"
        }
      ],
      "stateMutability": "nonpayable",
      "type": "constructor"
    },
    {
      "anonymous": false,
      "inputs": [
        {
          "indexed": true,
          "internalType": "bytes32",
          "name": "id",
          "type": "bytes32"
        }
      ],
      "name": "ChainlinkCancelled",
      "type": "event"
    },
    {
      "anonymous": false,
      "inputs": [
        {
          "indexed": true,
          "internalType": "bytes32",
          "name": "id",
          "type": "bytes32"
        }
      ],
      "name": "ChainlinkFulfilled",
      "type": "event"
    },
    {
      "anonymous": false,
      "inputs": [
        {
          "indexed": true,
          "internalType": "bytes32",
          "name": "id",
          "type": "bytes32"
        }
      ],
      "name": "ChainlinkRequested",
      "type": "event"
    },
    {
      "anonymous": false,
      "inputs": [
        {
          "indexed": true,
          "internalType": "address",
          "name": "from",
          "type": "address"
        },
        {
          "indexed": true,
          "internalType": "address",
          "name": "to",
          "type": "address"
        }
      ],
      "name": "OwnershipTransferRequested",
      "type": "event"
    },
    {
      "anonymous": false,
      "inputs": [
        {
          "indexed": true,
          "internalType": "address",
          "name": "from",
          "type": "address"
        },
        {
          "indexed": true,
          "internalType": "address",
          "name": "to",
          "type": "address"
        }
      ],
      "name": "OwnershipTransferred",
      "type": "event"
    },
    {
      "anonymous": false,
      "inputs": [
        {
          "indexed": true,
          "internalType": "bytes32",
          "name": "requestId",
          "type": "bytes32"
        },
        {
          "indexed": false,
          "internalType": "uint256",
          "name": "volume",
          "type": "uint256"
        }
      ],
      "name": "RequestVolume",
      "type": "event"
    },
    {
      "inputs": [],
      "name": "acceptOwnership",
      "outputs": [],
      "stateMutability": "nonpayable",
      "type": "function"
    },
    {
      "inputs": [],
      "name": "fee",
      "outputs": [
        {
          "internalType": "uint256",
          "name": "",
          "type": "uint256"
        }
      ],
      "stateMutability": "view",
      "type": "function"
    },
    {
      "inputs": [
        {
          "internalType": "bytes32",
          "name": "_requestId",
          "type": "bytes32"
        },
        {
          "internalType": "uint256",
          "name": "_volume",
          "type": "uint256"
        }
      ],
      "name": "fulfill",
      "outputs": [],
      "stateMutability": "nonpayable",
      "type": "function"
    },
    {
      "inputs": [],
      "name": "jobId",
      "outputs": [
        {
          "internalType": "bytes32",
          "name": "",
          "type": "bytes32"
        }
      ],
      "stateMutability": "view",
      "type": "function"
    },
    {
      "inputs": [],
      "name": "owner",
      "outputs": [
        {
          "internalType": "address",
          "name": "",
          "type": "address"
        }
      ],
      "stateMutability": "view",
      "type": "function"
    },
    {
      "inputs": [],
      "name": "requestVolumeData",
      "outputs": [
        {
          "internalType": "bytes32",
          "name": "requestId",
          "type": "bytes32"
        }
      ],
      "stateMutability": "nonpayable",
      "type": "function"
    },
    {
      "inputs": [
        {
          "internalType": "address",
          "name": "to",
          "type": "address"
        }
      ],
      "name": "transferOwnership",
      "outputs": [],
      "stateMutability": "nonpayable",
      "type": "function"
    },
    {
      "inputs": [],
      "name": "volume",
      "outputs": [
        {
          "internalType": "uint256",
          "name": "",
          "type": "uint256"
        }
      ],
      "stateMutability": "view",
      "type": "function"
    },
    {
      "inputs": [],
      "name": "withdrawLink",
      "outputs": [],
      "stateMutability": "nonpayable",
      "type": "function"
    }
  ],
  "bytecode": "0x608060405260016004553480156200001657600080fd5b50604051620028303803806200283083398181016040528101906200003c919062000576565b338060008073ffffffffffffffffffffffffffffffffffffffff168273ffffffffffffffffffffffffffffffffffffffff1603620000b1576040517f08c379a0000000000000000000000000000000000000000000000000000000008152600401620000a89062000652565b60405180910390fd5b81600660006101000a81548173ffffffffffffffffffffffffffffffffffffffff021916908373ffffffffffffffffffffffffffffffffffffffff160217905550600073ffffffffffffffffffffffffffffffffffffffff168173ffffffffffffffffffffffffffffffffffffffff161462000139576200013881620001c560201b60201c565b5b5050506200014d83620002f660201b60201c565b6200015e826200033a60201b60201c565b80604051602001620001719190620006c1565b6040516020818303038152906040526200018b9062000723565b600981905550600a670de0b6b3a76400006001620001aa9190620007cc565b620001b6919062000846565b600a81905550505050620008f0565b3373ffffffffffffffffffffffffffffffffffffffff168173ffffffffffffffffffffffffffffffffffffffff160362000236576040517f08c379a00000000000000000000000000000000000000000000000000000000081526004016200022d90620008ce565b60405180910390fd5b80600760006101000a81548173ffffffffffffffffffffffffffffffffffffffff021916908373ffffffffffffffffffffffffffffffffffffffff1602179055508073ffffffffffffffffffffffffffffffffffffffff16600660009054906101000a900473ffffffffffffffffffffffffffffffffffffffff1673ffffffffffffffffffffffffffffffffffffffff167fed8889f560326eb138920d842192f0eb3dd22b4f139c87a2c57538e05bae127860405160405180910390a350565b80600260006101000a81548173ffffffffffffffffffffffffffffffffffffffff021916908373ffffffffffffffffffffffffffffffffffffffff16021790555050565b80600360006101000a81548173ffffffffffffffffffffffffffffffffffffffff021916908373ffffffffffffffffffffffffffffffffffffffff16021790555050565b6000604051905090565b600080fd5b600080fd5b600073ffffffffffffffffffffffffffffffffffffffff82169050919050565b6000620003bf8262000392565b9050919050565b620003d181620003b2565b8114620003dd57600080fd5b50565b600081519050620003f181620003c6565b92915050565b600080fd5b600080fd5b6000601f19601f8301169050919050565b7f4e487b7100000000000000000000000000000000000000000000000000000000600052604160045260246000fd5b6200044c8262000401565b810181811067ffffffffffffffff821117156200046e576200046d62000412565b5b80604052505050565b6000620004836200037e565b905062000491828262000441565b919050565b600067ffffffffffffffff821115620004b457620004b362000412565b5b620004bf8262000401565b9050602081019050919050565b60005b83811015620004ec578082015181840152602081019050620004cf565b60008484015250505050565b60006200050f620005098462000496565b62000477565b9050828152602081018484840111156200052e576200052d620003fc565b5b6200053b848285620004cc565b509392505050565b600082601f8301126200055b576200055a620003f7565b5b81516200056d848260208601620004f8565b91505092915050565b60008060006060848603121562000592576200059162000388565b5b6000620005a286828701620003e0565b9350506020620005b586828701620003e0565b925050604084015167ffffffffffffffff811115620005d957620005d86200038d565b5b620005e78682870162000543565b9150509250925092565b600082825260208201905092915050565b7f43616e6e6f7420736574206f776e657220746f207a65726f0000000000000000600082015250565b60006200063a601883620005f1565b9150620006478262000602565b602082019050919050565b600060208201905081810360008301526200066d816200062b565b9050919050565b600081519050919050565b600081905092915050565b6000620006978262000674565b620006a381856200067f565b9350620006b5818560208601620004cc565b80840191505092915050565b6000620006cf82846200068a565b915081905092915050565b600081519050919050565b6000819050602082019050919050565b6000819050919050565b60006200070d8251620006f5565b80915050919050565b600082821b905092915050565b60006200073082620006da565b826200073c84620006e5565b90506200074981620006ff565b925060208210156200078c57620007877fffffffffffffffffffffffffffffffffffffffffffffffffffffffffffffffff8360200360080262000716565b831692505b5050919050565b6000819050919050565b7f4e487b7100000000000000000000000000000000000000000000000000000000600052601160045260246000fd5b6000620007d98262000793565b9150620007e68362000793565b9250828202620007f68162000793565b9150828204841483151762000810576200080f6200079d565b5b5092915050565b7f4e487b7100000000000000000000000000000000000000000000000000000000600052601260045260246000fd5b6000620008538262000793565b9150620008608362000793565b92508262000873576200087262000817565b5b828204905092915050565b7f43616e6e6f74207472616e7366657220746f2073656c66000000000000000000600082015250565b6000620008b6601783620005f1565b9150620008c3826200087e565b602082019050919050565b60006020820190508181036000830152620008e981620008a7565b9050919050565b611f3080620009006000396000f3fe608060405234801561001057600080fd5b50600436106100935760003560e01c80638dc654a2116100665780638dc654a2146100fa578063c2939d9714610104578063c618a1e414610122578063ddca3f4314610140578063f2fde38b1461015e57610093565b80634357855e146100985780636021abac146100b457806379ba5097146100d25780638da5cb5b146100dc575b600080fd5b6100b260048036038101906100ad919061143c565b61017a565b005b6100bc6102c3565b6040516100c9919061148b565b60405180910390f35b6100da610427565b005b6100e46105be565b6040516100f191906114e7565b60405180910390f35b6101026105e8565b005b61010c610735565b604051610119919061148b565b60405180910390f35b61012a61073b565b6040516101379190611511565b60405180910390f35b610148610741565b6040516101559190611511565b60405180910390f35b61017860048036038101906101739190611558565b610747565b005b816005600082815260200190815260200160002060009054906101000a900473ffffffffffffffffffffffffffffffffffffffff1673ffffffffffffffffffffffffffffffffffffffff163373ffffffffffffffffffffffffffffffffffffffff161461021c576040517f08c379a000000000000000000000000000000000000000000000000000000000815260040161021390611608565b60405180910390fd5b6005600082815260200190815260200160002060006101000a81549073ffffffffffffffffffffffffffffffffffffffff0219169055807f7cc135e0cebb02c3480ae5d74d377283180a2601f8f644edf7987b009316c63a60405160405180910390a2827f673b38182859a514d734bdfcb49d3a05c4a641dec9311d9894c9717bcb79af76836040516102af9190611511565b60405180910390a281600881905550505050565b6000806102da60095430634357855e60e01b61075b565b905061033e6040518060400160405280600381526020017f6765740000000000000000000000000000000000000000000000000000000000815250604051806080016040528060498152602001611eb2604991398361078c9092919063ffffffff16565b6103bd6040518060400160405280600481526020017f70617468000000000000000000000000000000000000000000000000000000008152506040518060400160405280601881526020017f5241572c4554482c5553442c564f4c554d453234484f555200000000000000008152508361078c9092919063ffffffff16565b6000670de0b6b3a764000090506104146040518060400160405280600581526020017f74696d657300000000000000000000000000000000000000000000000000000081525082846107bf9092919063ffffffff16565b61042082600a546107f2565b9250505090565b600760009054906101000a900473ffffffffffffffffffffffffffffffffffffffff1673ffffffffffffffffffffffffffffffffffffffff163373ffffffffffffffffffffffffffffffffffffffff16146104b7576040517f08c379a00000000000000000000000000000000000000000000000000000000081526004016104ae90611674565b60405180910390fd5b6000600660009054906101000a900473ffffffffffffffffffffffffffffffffffffffff16905033600660006101000a81548173ffffffffffffffffffffffffffffffffffffffff021916908373ffffffffffffffffffffffffffffffffffffffff1602179055506000600760006101000a81548173ffffffffffffffffffffffffffffffffffffffff021916908373ffffffffffffffffffffffffffffffffffffffff1602179055503373ffffffffffffffffffffffffffffffffffffffff168173ffffffffffffffffffffffffffffffffffffffff167f8be0079c531659141344cd1fd0a4f28419497f9722a3daafe3b4186f6b6457e060405160405180910390a350565b6000600660009054906101000a900473ffffffffffffffffffffffffffffffffffffffff16905090565b6105f0610829565b60006105fa6108bb565b90508073ffffffffffffffffffffffffffffffffffffffff1663a9059cbb338373ffffffffffffffffffffffffffffffffffffffff166370a08231306040518263ffffffff1660e01b815260040161065291906114e7565b602060405180830381865afa15801561066f573d6000803e3d6000fd5b505050506040513d601f19601f8201168201806040525081019061069391906116a9565b6040518363ffffffff1660e01b81526004016106b09291906116d6565b6020604051808303816000875af11580156106cf573d6000803e3d6000fd5b505050506040513d601f19601f820116820180604052508101906106f39190611737565b610732576040517f08c379a0000000000000000000000000000000000000000000000000000000008152600401610729906117b0565b60405180910390fd5b50565b60095481565b60085481565b600a5481565b61074f610829565b610758816108e5565b50565b610763611344565b61076b611344565b61078285858584610a13909392919063ffffffff16565b9150509392505050565b6107a3828460800151610ac390919063ffffffff16565b6107ba818460800151610ac390919063ffffffff16565b505050565b6107d6828460800151610ac390919063ffffffff16565b6107ed818460800151610ae890919063ffffffff16565b505050565b6000610821600360009054906101000a900473ffffffffffffffffffffffffffffffffffffffff168484610b95565b905092915050565b600660009054906101000a900473ffffffffffffffffffffffffffffffffffffffff1673ffffffffffffffffffffffffffffffffffffffff163373ffffffffffffffffffffffffffffffffffffffff16146108b9576040517f08c379a00000000000000000000000000000000000000000000000000000000081526004016108b09061181c565b60405180910390fd5b565b6000600260009054906101000a900473ffffffffffffffffffffffffffffffffffffffff16905090565b3373ffffffffffffffffffffffffffffffffffffffff168173ffffffffffffffffffffffffffffffffffffffff1603610953576040517f08c379a000000000000000000000000000000000000000000000000000000000815260040161094a90611888565b60405180910390fd5b80600760006101000a81548173ffffffffffffffffffffffffffffffffffffffff021916908373ffffffffffffffffffffffffffffffffffffffff1602179055508073ffffffffffffffffffffffffffffffffffffffff16600660009054906101000a900473ffffffffffffffffffffffffffffffffffffffff1673ffffffffffffffffffffffffffffffffffffffff167fed8889f560326eb138920d842192f0eb3dd22b4f139c87a2c57538e05bae127860405160405180910390a350565b610a1b611344565b610a2b8560800151610100610c61565b508385600001818152505082856020019073ffffffffffffffffffffffffffffffffffffffff16908173ffffffffffffffffffffffffffffffffffffffff16815250508185604001907bffffffffffffffffffffffffffffffffffffffffffffffffffffffff191690817bffffffffffffffffffffffffffffffffffffffffffffffffffffffff191681525050849050949350505050565b610ad08260038351610ccb565b610ae38183610e5090919063ffffffff16565b505050565b7fffffffffffffffffffffffffffffffffffffffffffffffff0000000000000000811215610b1f57610b1a8282610e72565b610b91565b67ffffffffffffffff811315610b3e57610b398282610ee9565b610b90565b60008112610b5757610b5282600083610ccb565b610b8f565b610b8e826001837fffffffffffffffffffffffffffffffffffffffffffffffffffffffffffffffff610b8991906118e1565b610ccb565b5b5b5b5050565b6000806004549050600181610baa9190611924565b6004819055506000634042994660e01b60008087600001513089604001518760018c6080015160000151604051602401610beb989796959493929190611a23565b604051602081830303815290604052907bffffffffffffffffffffffffffffffffffffffffffffffffffffffff19166020820180517bffffffffffffffffffffffffffffffffffffffffffffffffffffffff83818316178352505050509050610c5686838684610f35565b925050509392505050565b610c696113b1565b6000602083610c789190611ad7565b14610ca457602082610c8a9190611ad7565b6020610c969190611b08565b82610ca19190611924565b91505b81836020018181525050604051808452600081528281016020016040525082905092915050565b60178167ffffffffffffffff1611610d0257610cfc8160058460ff16901b60ff1617846110ca90919063ffffffff16565b50610e4b565b60ff8167ffffffffffffffff1611610d5857610d31601860058460ff16901b17846110ca90919063ffffffff16565b50610d528167ffffffffffffffff166001856110ea9092919063ffffffff16565b50610e4a565b61ffff8167ffffffffffffffff1611610daf57610d88601960058460ff16901b17846110ca90919063ffffffff16565b50610da98167ffffffffffffffff166002856110ea9092919063ffffffff16565b50610e49565b63ffffffff8167ffffffffffffffff1611610e0857610de1601a60058460ff16901b17846110ca90919063ffffffff16565b50610e028167ffffffffffffffff166004856110ea9092919063ffffffff16565b50610e48565b610e25601b60058460ff16901b17846110ca90919063ffffffff16565b50610e468167ffffffffffffffff166008856110ea9092919063ffffffff16565b505b5b5b5b505050565b610e586113b1565b610e6a8384600001515184855161110c565b905092915050565b610e9060036005600660ff16901b17836110ca90919063ffffffff16565b50610ee582827fffffffffffffffffffffffffffffffffffffffffffffffffffffffffffffffff610ec191906118e1565b604051602001610ed19190611511565b6040516020818303038152906040526111fb565b5050565b610f0760026005600660ff16901b17836110ca90919063ffffffff16565b50610f318282604051602001610f1d9190611511565b6040516020818303038152906040526111fb565b5050565b60003084604051602001610f4a929190611bf5565b604051602081830303815290604052805190602001209050846005600083815260200190815260200160002060006101000a81548173ffffffffffffffffffffffffffffffffffffffff021916908373ffffffffffffffffffffffffffffffffffffffff160217905550807fb5e6e01e79f91267dc17b4e6314d5d4d03593d2ceee0fbb452b750bd70ea5af960405160405180910390a2600260009054906101000a900473ffffffffffffffffffffffffffffffffffffffff1673ffffffffffffffffffffffffffffffffffffffff16634000aea08685856040518463ffffffff1660e01b815260040161104093929190611c21565b6020604051808303816000875af115801561105f573d6000803e3d6000fd5b505050506040513d601f19601f820116820180604052508101906110839190611737565b6110c2576040517f08c379a00000000000000000000000000000000000000000000000000000000081526004016110b990611cd1565b60405180910390fd5b949350505050565b6110d26113b1565b6110e28384600001515184611220565b905092915050565b6110f26113b1565b611103848560000151518585611276565b90509392505050565b6111146113b1565b825182111561112257600080fd5b846020015182856111339190611924565b111561116857611167856002611158886020015188876111539190611924565b611304565b6111629190611cf1565b611320565b5b6000808651805187602083010193508088870111156111875787860182525b60208701925050505b602084106111ce57805182526020826111a99190611924565b91506020816111b89190611924565b90506020846111c79190611b08565b9350611190565b60006001856020036101000a03905080198251168184511681811785525050508692505050949350505050565b6112088260028351610ccb565b61121b8183610e5090919063ffffffff16565b505050565b6112286113b1565b8360200151831061124e5761124d84600286602001516112489190611cf1565b611320565b5b83518051602085830101848153818603611269576001820183525b5050508390509392505050565b61127e6113b1565b8460200151848361128f9190611924565b11156112b7576112b685600286856112a79190611924565b6112b19190611cf1565b611320565b5b60006001836101006112c99190611e66565b6112d39190611b08565b905085518386820101858319825116178152815185880111156112f65784870182525b505085915050949350505050565b6000818311156113165782905061131a565b8190505b92915050565b6000826000015190506113338383610c61565b5061133e8382610e50565b50505050565b6040518060a0016040528060008019168152602001600073ffffffffffffffffffffffffffffffffffffffff16815260200160007bffffffffffffffffffffffffffffffffffffffffffffffffffffffff19168152602001600081526020016113ab6113b1565b81525090565b604051806040016040528060608152602001600081525090565b600080fd5b6000819050919050565b6113e3816113d0565b81146113ee57600080fd5b50565b600081359050611400816113da565b92915050565b6000819050919050565b61141981611406565b811461142457600080fd5b50565b60008135905061143681611410565b92915050565b60008060408385031215611453576114526113cb565b5b6000611461858286016113f1565b925050602061147285828601611427565b9150509250929050565b611485816113d0565b82525050565b60006020820190506114a0600083018461147c565b92915050565b600073ffffffffffffffffffffffffffffffffffffffff82169050919050565b60006114d1826114a6565b9050919050565b6114e1816114c6565b82525050565b60006020820190506114fc60008301846114d8565b92915050565b61150b81611406565b82525050565b60006020820190506115266000830184611502565b92915050565b611535816114c6565b811461154057600080fd5b50565b6000813590506115528161152c565b92915050565b60006020828403121561156e5761156d6113cb565b5b600061157c84828501611543565b91505092915050565b600082825260208201905092915050565b7f536f75726365206d75737420626520746865206f7261636c65206f662074686560008201527f2072657175657374000000000000000000000000000000000000000000000000602082015250565b60006115f2602883611585565b91506115fd82611596565b604082019050919050565b60006020820190508181036000830152611621816115e5565b9050919050565b7f4d7573742062652070726f706f736564206f776e657200000000000000000000600082015250565b600061165e601683611585565b915061166982611628565b602082019050919050565b6000602082019050818103600083015261168d81611651565b9050919050565b6000815190506116a381611410565b92915050565b6000602082840312156116bf576116be6113cb565b5b60006116cd84828501611694565b91505092915050565b60006040820190506116eb60008301856114d8565b6116f86020830184611502565b9392505050565b60008115159050919050565b611714816116ff565b811461171f57600080fd5b50565b6000815190506117318161170b565b92915050565b60006020828403121561174d5761174c6113cb565b5b600061175b84828501611722565b91505092915050565b7f556e61626c6520746f207472616e736665720000000000000000000000000000600082015250565b600061179a601283611585565b91506117a582611764565b602082019050919050565b600060208201905081810360008301526117c98161178d565b9050919050565b7f4f6e6c792063616c6c61626c65206279206f776e657200000000000000000000600082015250565b6000611806601683611585565b9150611811826117d0565b602082019050919050565b60006020820190508181036000830152611835816117f9565b9050919050565b7f43616e6e6f74207472616e7366657220746f2073656c66000000000000000000600082015250565b6000611872601783611585565b915061187d8261183c565b602082019050919050565b600060208201905081810360008301526118a181611865565b9050919050565b6000819050919050565b7f4e487b7100000000000000000000000000000000000000000000000000000000600052601160045260246000fd5b60006118ec826118a8565b91506118f7836118a8565b925082820390508181126000841216828213600085121516171561191e5761191d6118b2565b5b92915050565b600061192f82611406565b915061193a83611406565b9250828201905080821115611952576119516118b2565b5b92915050565b60007fffffffff0000000000000000000000000000000000000000000000000000000082169050919050565b61198d81611958565b82525050565b600081519050919050565b600082825260208201905092915050565b60005b838110156119cd5780820151818401526020810190506119b2565b60008484015250505050565b6000601f19601f8301169050919050565b60006119f582611993565b6119ff818561199e565b9350611a0f8185602086016119af565b611a18816119d9565b840191505092915050565b600061010082019050611a39600083018b6114d8565b611a46602083018a611502565b611a53604083018961147c565b611a6060608301886114d8565b611a6d6080830187611984565b611a7a60a0830186611502565b611a8760c0830185611502565b81810360e0830152611a9981846119ea565b90509998505050505050505050565b7f4e487b7100000000000000000000000000000000000000000000000000000000600052601260045260246000fd5b6000611ae282611406565b9150611aed83611406565b925082611afd57611afc611aa8565b5b828206905092915050565b6000611b1382611406565b9150611b1e83611406565b9250828203905081811115611b3657611b356118b2565b5b92915050565b6000819050919050565b6000611b61611b5c611b57846114a6565b611b3c565b6114a6565b9050919050565b6000611b7382611b46565b9050919050565b6000611b8582611b68565b9050919050565b60008160601b9050919050565b6000611ba482611b8c565b9050919050565b6000611bb682611b99565b9050919050565b611bce611bc982611b7a565b611bab565b82525050565b6000819050919050565b611bef611bea82611406565b611bd4565b82525050565b6000611c018285611bbd565b601482019150611c118284611bde565b6020820191508190509392505050565b6000606082019050611c3660008301866114d8565b611c436020830185611502565b8181036040830152611c5581846119ea565b9050949350505050565b7f756e61626c6520746f207472616e73666572416e6443616c6c20746f206f726160008201527f636c650000000000000000000000000000000000000000000000000000000000602082015250565b6000611cbb602383611585565b9150611cc682611c5f565b604082019050919050565b60006020820190508181036000830152611cea81611cae565b9050919050565b6000611cfc82611406565b9150611d0783611406565b9250828202611d1581611406565b91508282048414831517611d2c57611d2b6118b2565b5b5092915050565b60008160011c9050919050565b6000808291508390505b6001851115611d8a57808604811115611d6657611d656118b2565b5b6001851615611d755780820291505b8081029050611d8385611d33565b9450611d4a565b94509492505050565b600082611da35760019050611e5f565b81611db15760009050611e5f565b8160018114611dc75760028114611dd157611e00565b6001915050611e5f565b60ff841115611de357611de26118b2565b5b8360020a915084821115611dfa57611df96118b2565b5b50611e5f565b5060208310610133831016604e8410600b8410161715611e355782820a905083811115611e3057611e2f6118b2565b5b611e5f565b611e428484846001611d40565b92509050818404811115611e5957611e586118b2565b5b81810290505b9392505050565b6000611e7182611406565b9150611e7c83611406565b9250611ea97fffffffffffffffffffffffffffffffffffffffffffffffffffffffffffffffff8484611d93565b90509291505056fe68747470733a2f2f6d696e2d6170692e63727970746f636f6d706172652e636f6d2f646174612f70726963656d756c746966756c6c3f6673796d733d455448267473796d733d555344a264697066735822122059f18eb40b09b6532d7cee308296a9888e537776718547211fac0714c8e3c00664736f6c63430008130033",
  "linkReferences": {},
  "deployedLinkReferences": {}
}