{
  "_format": "hh-sol-artifact-1",
  "contractName": "MultiResponse",
  "sourceName": "contracts/MultiResponse.sol",
  "abi": [
    {
      "inputs": [
        {
          "internalType": "address",
          "name": "_linkToken",
          "type": "address"
        },
        {
          "internalType": "address",
          "name": "_oracle",
          "type": "address"
        },
        {
          "internalType": "string",
          "name": "_jobId",
          "type": "string"
        }
      ],
      "stateMutability": "nonpayable",
      "type": "constructor"
    },
    {
      "anonymous": false,
      "inputs": [
        {
          "indexed": true,
          "internalType": "bytes32",
          "name": "id",
          "type": "bytes32"
        }
      ],
      "name": "ChainlinkCancelled",
      "type": "event"
    },
    {
      "anonymous": false,
      "inputs": [
        {
          "indexed": true,
          "internalType": "bytes32",
          "name": "id",
          "type": "bytes32"
        }
      ],
      "name": "ChainlinkFulfilled",
      "type": "event"
    },
    {
      "anonymous": false,
      "inputs": [
        {
          "indexed": true,
          "internalType": "bytes32",
          "name": "id",
          "type": "bytes32"
        }
      ],
      "name": "ChainlinkRequested",
      "type": "event"
    },
    {
      "anonymous": false,
      "inputs": [
        {
          "indexed": true,
          "internalType": "address",
          "name": "from",
          "type": "address"
        },
        {
          "indexed": true,
          "internalType": "address",
          "name": "to",
          "type": "address"
        }
      ],
      "name": "OwnershipTransferRequested",
      "type": "event"
    },
    {
      "anonymous": false,
      "inputs": [
        {
          "indexed": true,
          "internalType": "address",
          "name": "from",
          "type": "address"
        },
        {
          "indexed": true,
          "internalType": "address",
          "name": "to",
          "type": "address"
        }
      ],
      "name": "OwnershipTransferred",
      "type": "event"
    },
    {
      "anonymous": false,
      "inputs": [
        {
          "indexed": true,
          "internalType": "bytes32",
          "name": "requestId",
          "type": "bytes32"
        },
        {
          "indexed": false,
          "internalType": "uint256",
          "name": "btc",
          "type": "uint256"
        },
        {
          "indexed": false,
          "internalType": "uint256",
          "name": "usd",
          "type": "uint256"
        },
        {
          "indexed": false,
          "internalType": "uint256",
          "name": "eur",
          "type": "uint256"
        }
      ],
      "name": "RequestMultipleFulfilled",
      "type": "event"
    },
    {
      "inputs": [],
      "name": "acceptOwnership",
      "outputs": [],
      "stateMutability": "nonpayable",
      "type": "function"
    },
    {
      "inputs": [],
      "name": "btc",
      "outputs": [
        {
          "internalType": "uint256",
          "name": "",
          "type": "uint256"
        }
      ],
      "stateMutability": "view",
      "type": "function"
    },
    {
      "inputs": [],
      "name": "eur",
      "outputs": [
        {
          "internalType": "uint256",
          "name": "",
          "type": "uint256"
        }
      ],
      "stateMutability": "view",
      "type": "function"
    },
    {
      "inputs": [
        {
          "internalType": "bytes32",
          "name": "requestId",
          "type": "bytes32"
        },
        {
          "internalType": "uint256",
          "name": "btcResponse",
          "type": "uint256"
        },
        {
          "internalType": "uint256",
          "name": "usdResponse",
          "type": "uint256"
        },
        {
          "internalType": "uint256",
          "name": "eurResponse",
          "type": "uint256"
        }
      ],
      "name": "fulfillMultipleParameters",
      "outputs": [],
      "stateMutability": "nonpayable",
      "type": "function"
    },
    {
      "inputs": [],
      "name": "owner",
      "outputs": [
        {
          "internalType": "address",
          "name": "",
          "type": "address"
        }
      ],
      "stateMutability": "view",
      "type": "function"
    },
    {
      "inputs": [],
      "name": "requestMultipleParameters",
      "outputs": [],
      "stateMutability": "nonpayable",
      "type": "function"
    },
    {
      "inputs": [
        {
          "internalType": "address",
          "name": "to",
          "type": "address"
        }
      ],
      "name": "transferOwnership",
      "outputs": [],
      "stateMutability": "nonpayable",
      "type": "function"
    },
    {
      "inputs": [],
      "name": "usd",
      "outputs": [
        {
          "internalType": "uint256",
          "name": "",
          "type": "uint256"
        }
      ],
      "stateMutability": "view",
      "type": "function"
    },
    {
      "inputs": [],
      "name": "withdrawLink",
      "outputs": [],
      "stateMutability": "nonpayable",
      "type": "function"
    }
  ],
  "bytecode": "0x608060405260016004553480156200001657600080fd5b50604051620028393803806200283983398181016040528101906200003c919062000576565b338060008073ffffffffffffffffffffffffffffffffffffffff168273ffffffffffffffffffffffffffffffffffffffff1603620000b1576040517f08c379a0000000000000000000000000000000000000000000000000000000008152600401620000a89062000652565b60405180910390fd5b81600660006101000a81548173ffffffffffffffffffffffffffffffffffffffff021916908373ffffffffffffffffffffffffffffffffffffffff160217905550600073ffffffffffffffffffffffffffffffffffffffff168173ffffffffffffffffffffffffffffffffffffffff161462000139576200013881620001c560201b60201c565b5b5050506200014d83620002f660201b60201c565b6200015e826200033a60201b60201c565b80604051602001620001719190620006c1565b6040516020818303038152906040526200018b9062000723565b600881905550600a670de0b6b3a76400006001620001aa9190620007cc565b620001b6919062000846565b600981905550505050620008f0565b3373ffffffffffffffffffffffffffffffffffffffff168173ffffffffffffffffffffffffffffffffffffffff160362000236576040517f08c379a00000000000000000000000000000000000000000000000000000000081526004016200022d90620008ce565b60405180910390fd5b80600760006101000a81548173ffffffffffffffffffffffffffffffffffffffff021916908373ffffffffffffffffffffffffffffffffffffffff1602179055508073ffffffffffffffffffffffffffffffffffffffff16600660009054906101000a900473ffffffffffffffffffffffffffffffffffffffff1673ffffffffffffffffffffffffffffffffffffffff167fed8889f560326eb138920d842192f0eb3dd22b4f139c87a2c57538e05bae127860405160405180910390a350565b80600260006101000a81548173ffffffffffffffffffffffffffffffffffffffff021916908373ffffffffffffffffffffffffffffffffffffffff16021790555050565b80600360006101000a81548173ffffffffffffffffffffffffffffffffffffffff021916908373ffffffffffffffffffffffffffffffffffffffff16021790555050565b6000604051905090565b600080fd5b600080fd5b600073ffffffffffffffffffffffffffffffffffffffff82169050919050565b6000620003bf8262000392565b9050919050565b620003d181620003b2565b8114620003dd57600080fd5b50565b600081519050620003f181620003c6565b92915050565b600080fd5b600080fd5b6000601f19601f8301169050919050565b7f4e487b7100000000000000000000000000000000000000000000000000000000600052604160045260246000fd5b6200044c8262000401565b810181811067ffffffffffffffff821117156200046e576200046d62000412565b5b80604052505050565b6000620004836200037e565b905062000491828262000441565b919050565b600067ffffffffffffffff821115620004b457620004b362000412565b5b620004bf8262000401565b9050602081019050919050565b60005b83811015620004ec578082015181840152602081019050620004cf565b60008484015250505050565b60006200050f620005098462000496565b62000477565b9050828152602081018484840111156200052e576200052d620003fc565b5b6200053b848285620004cc565b509392505050565b600082601f8301126200055b576200055a620003f7565b5b81516200056d848260208601620004f8565b91505092915050565b60008060006060848603121562000592576200059162000388565b5b6000620005a286828701620003e0565b9350506020620005b586828701620003e0565b925050604084015167ffffffffffffffff811115620005d957620005d86200038d565b5b620005e78682870162000543565b9150509250925092565b600082825260208201905092915050565b7f43616e6e6f7420736574206f776e657220746f207a65726f0000000000000000600082015250565b60006200063a601883620005f1565b9150620006478262000602565b602082019050919050565b600060208201905081810360008301526200066d816200062b565b9050919050565b600081519050919050565b600081905092915050565b6000620006978262000674565b620006a381856200067f565b9350620006b5818560208601620004cc565b80840191505092915050565b6000620006cf82846200068a565b915081905092915050565b600081519050919050565b6000819050602082019050919050565b6000819050919050565b60006200070d8251620006f5565b80915050919050565b600082821b905092915050565b60006200073082620006da565b826200073c84620006e5565b90506200074981620006ff565b925060208210156200078c57620007877fffffffffffffffffffffffffffffffffffffffffffffffffffffffffffffffff8360200360080262000716565b831692505b5050919050565b6000819050919050565b7f4e487b7100000000000000000000000000000000000000000000000000000000600052601160045260246000fd5b6000620007d98262000793565b9150620007e68362000793565b9250828202620007f68162000793565b9150828204841483151762000810576200080f6200079d565b5b5092915050565b7f4e487b7100000000000000000000000000000000000000000000000000000000600052601260045260246000fd5b6000620008538262000793565b9150620008608362000793565b92508262000873576200087262000817565b5b828204905092915050565b7f43616e6e6f74207472616e7366657220746f2073656c66000000000000000000600082015250565b6000620008b6601783620005f1565b9150620008c3826200087e565b602082019050919050565b60006020820190508181036000830152620008e981620008a7565b9050919050565b611f3980620009006000396000f3fe608060405234801561001057600080fd5b50600436106100935760003560e01c80638dc654a2116100665780638dc654a2146100e8578063a28d57d8146100f2578063d63a6ccd14610110578063f2fde38b1461012e578063fda4417b1461014a57610093565b80634a3afb47146100985780637439ae59146100a257806379ba5097146100c05780638da5cb5b146100ca575b600080fd5b6100a0610166565b005b6100aa610431565b6040516100b79190611383565b60405180910390f35b6100c8610437565b005b6100d26105ce565b6040516100df91906113df565b60405180910390f35b6100f06105f8565b005b6100fa610745565b6040516101079190611383565b60405180910390f35b61011861074b565b6040516101259190611383565b60405180910390f35b6101486004803603810190610143919061142b565b610751565b005b610164600480360381019061015f91906114ba565b610765565b005b600061017c6008543063fda4417b60e01b6108c2565b90506101e06040518060400160405280600681526020017f75726c42544300000000000000000000000000000000000000000000000000008152506040518060600160405280603f8152602001611e86603f9139836108f39092919063ffffffff16565b61025f6040518060400160405280600781526020017f70617468425443000000000000000000000000000000000000000000000000008152506040518060400160405280600381526020017f4254430000000000000000000000000000000000000000000000000000000000815250836108f39092919063ffffffff16565b6102c16040518060400160405280600681526020017f75726c55534400000000000000000000000000000000000000000000000000008152506040518060600160405280603f8152602001611e47603f9139836108f39092919063ffffffff16565b6103406040518060400160405280600781526020017f70617468555344000000000000000000000000000000000000000000000000008152506040518060400160405280600381526020017f5553440000000000000000000000000000000000000000000000000000000000815250836108f39092919063ffffffff16565b6103a26040518060400160405280600681526020017f75726c45555200000000000000000000000000000000000000000000000000008152506040518060600160405280603f8152602001611ec5603f9139836108f39092919063ffffffff16565b6104216040518060400160405280600781526020017f70617468455552000000000000000000000000000000000000000000000000008152506040518060400160405280600381526020017f4555520000000000000000000000000000000000000000000000000000000000815250836108f39092919063ffffffff16565b61042d81600954610926565b5050565b600c5481565b600760009054906101000a900473ffffffffffffffffffffffffffffffffffffffff1673ffffffffffffffffffffffffffffffffffffffff163373ffffffffffffffffffffffffffffffffffffffff16146104c7576040517f08c379a00000000000000000000000000000000000000000000000000000000081526004016104be9061157e565b60405180910390fd5b6000600660009054906101000a900473ffffffffffffffffffffffffffffffffffffffff16905033600660006101000a81548173ffffffffffffffffffffffffffffffffffffffff021916908373ffffffffffffffffffffffffffffffffffffffff1602179055506000600760006101000a81548173ffffffffffffffffffffffffffffffffffffffff021916908373ffffffffffffffffffffffffffffffffffffffff1602179055503373ffffffffffffffffffffffffffffffffffffffff168173ffffffffffffffffffffffffffffffffffffffff167f8be0079c531659141344cd1fd0a4f28419497f9722a3daafe3b4186f6b6457e060405160405180910390a350565b6000600660009054906101000a900473ffffffffffffffffffffffffffffffffffffffff16905090565b61060061095d565b600061060a6109ef565b90508073ffffffffffffffffffffffffffffffffffffffff1663a9059cbb338373ffffffffffffffffffffffffffffffffffffffff166370a08231306040518263ffffffff1660e01b815260040161066291906113df565b602060405180830381865afa15801561067f573d6000803e3d6000fd5b505050506040513d601f19601f820116820180604052508101906106a391906115b3565b6040518363ffffffff1660e01b81526004016106c09291906115e0565b6020604051808303816000875af11580156106df573d6000803e3d6000fd5b505050506040513d601f19601f820116820180604052508101906107039190611641565b610742576040517f08c379a0000000000000000000000000000000000000000000000000000000008152600401610739906116ba565b60405180910390fd5b50565b600a5481565b600b5481565b61075961095d565b61076281610a19565b50565b836005600082815260200190815260200160002060009054906101000a900473ffffffffffffffffffffffffffffffffffffffff1673ffffffffffffffffffffffffffffffffffffffff163373ffffffffffffffffffffffffffffffffffffffff1614610807576040517f08c379a00000000000000000000000000000000000000000000000000000000081526004016107fe9061174c565b60405180910390fd5b6005600082815260200190815260200160002060006101000a81549073ffffffffffffffffffffffffffffffffffffffff0219169055807f7cc135e0cebb02c3480ae5d74d377283180a2601f8f644edf7987b009316c63a60405160405180910390a2847fd8422588c680817fe4971ef8a5fe6a6b5df0d7cd4537eabef7fb17750e4187a785858560405161089e9392919061176c565b60405180910390a283600a8190555082600b8190555081600c819055505050505050565b6108ca6112e3565b6108d26112e3565b6108e985858584610b47909392919063ffffffff16565b9150509392505050565b61090a828460800151610bf790919063ffffffff16565b610921818460800151610bf790919063ffffffff16565b505050565b6000610955600360009054906101000a900473ffffffffffffffffffffffffffffffffffffffff168484610c1c565b905092915050565b600660009054906101000a900473ffffffffffffffffffffffffffffffffffffffff1673ffffffffffffffffffffffffffffffffffffffff163373ffffffffffffffffffffffffffffffffffffffff16146109ed576040517f08c379a00000000000000000000000000000000000000000000000000000000081526004016109e4906117ef565b60405180910390fd5b565b6000600260009054906101000a900473ffffffffffffffffffffffffffffffffffffffff16905090565b3373ffffffffffffffffffffffffffffffffffffffff168173ffffffffffffffffffffffffffffffffffffffff1603610a87576040517f08c379a0000000000000000000000000000000000000000000000000000000008152600401610a7e9061185b565b60405180910390fd5b80600760006101000a81548173ffffffffffffffffffffffffffffffffffffffff021916908373ffffffffffffffffffffffffffffffffffffffff1602179055508073ffffffffffffffffffffffffffffffffffffffff16600660009054906101000a900473ffffffffffffffffffffffffffffffffffffffff1673ffffffffffffffffffffffffffffffffffffffff167fed8889f560326eb138920d842192f0eb3dd22b4f139c87a2c57538e05bae127860405160405180910390a350565b610b4f6112e3565b610b5f8560800151610100610ce8565b508385600001818152505082856020019073ffffffffffffffffffffffffffffffffffffffff16908173ffffffffffffffffffffffffffffffffffffffff16815250508185604001907bffffffffffffffffffffffffffffffffffffffffffffffffffffffff191690817bffffffffffffffffffffffffffffffffffffffffffffffffffffffff191681525050849050949350505050565b610c048260038351610d52565b610c178183610ed790919063ffffffff16565b505050565b6000806004549050600181610c3191906118aa565b6004819055506000634042994660e01b60008087600001513089604001518760018c6080015160000151604051602401610c729897969594939291906119b8565b604051602081830303815290604052907bffffffffffffffffffffffffffffffffffffffffffffffffffffffff19166020820180517bffffffffffffffffffffffffffffffffffffffffffffffffffffffff83818316178352505050509050610cdd86838684610ef9565b925050509392505050565b610cf0611350565b6000602083610cff9190611a6c565b14610d2b57602082610d119190611a6c565b6020610d1d9190611a9d565b82610d2891906118aa565b91505b81836020018181525050604051808452600081528281016020016040525082905092915050565b60178167ffffffffffffffff1611610d8957610d838160058460ff16901b60ff16178461108e90919063ffffffff16565b50610ed2565b60ff8167ffffffffffffffff1611610ddf57610db8601860058460ff16901b178461108e90919063ffffffff16565b50610dd98167ffffffffffffffff166001856110ae9092919063ffffffff16565b50610ed1565b61ffff8167ffffffffffffffff1611610e3657610e0f601960058460ff16901b178461108e90919063ffffffff16565b50610e308167ffffffffffffffff166002856110ae9092919063ffffffff16565b50610ed0565b63ffffffff8167ffffffffffffffff1611610e8f57610e68601a60058460ff16901b178461108e90919063ffffffff16565b50610e898167ffffffffffffffff166004856110ae9092919063ffffffff16565b50610ecf565b610eac601b60058460ff16901b178461108e90919063ffffffff16565b50610ecd8167ffffffffffffffff166008856110ae9092919063ffffffff16565b505b5b5b5b505050565b610edf611350565b610ef1838460000151518485516110d0565b905092915050565b60003084604051602001610f0e929190611b8a565b604051602081830303815290604052805190602001209050846005600083815260200190815260200160002060006101000a81548173ffffffffffffffffffffffffffffffffffffffff021916908373ffffffffffffffffffffffffffffffffffffffff160217905550807fb5e6e01e79f91267dc17b4e6314d5d4d03593d2ceee0fbb452b750bd70ea5af960405160405180910390a2600260009054906101000a900473ffffffffffffffffffffffffffffffffffffffff1673ffffffffffffffffffffffffffffffffffffffff16634000aea08685856040518463ffffffff1660e01b815260040161100493929190611bb6565b6020604051808303816000875af1158015611023573d6000803e3d6000fd5b505050506040513d601f19601f820116820180604052508101906110479190611641565b611086576040517f08c379a000000000000000000000000000000000000000000000000000000000815260040161107d90611c66565b60405180910390fd5b949350505050565b611096611350565b6110a683846000015151846111bf565b905092915050565b6110b6611350565b6110c7848560000151518585611215565b90509392505050565b6110d8611350565b82518211156110e657600080fd5b846020015182856110f791906118aa565b111561112c5761112b85600261111c8860200151888761111791906118aa565b6112a3565b6111269190611c86565b6112bf565b5b60008086518051876020830101935080888701111561114b5787860182525b60208701925050505b60208410611192578051825260208261116d91906118aa565b915060208161117c91906118aa565b905060208461118b9190611a9d565b9350611154565b60006001856020036101000a03905080198251168184511681811785525050508692505050949350505050565b6111c7611350565b836020015183106111ed576111ec84600286602001516111e79190611c86565b6112bf565b5b83518051602085830101848153818603611208576001820183525b5050508390509392505050565b61121d611350565b8460200151848361122e91906118aa565b111561125657611255856002868561124691906118aa565b6112509190611c86565b6112bf565b5b60006001836101006112689190611dfb565b6112729190611a9d565b905085518386820101858319825116178152815185880111156112955784870182525b505085915050949350505050565b6000818311156112b5578290506112b9565b8190505b92915050565b6000826000015190506112d28383610ce8565b506112dd8382610ed7565b50505050565b6040518060a0016040528060008019168152602001600073ffffffffffffffffffffffffffffffffffffffff16815260200160007bffffffffffffffffffffffffffffffffffffffffffffffffffffffff191681526020016000815260200161134a611350565b81525090565b604051806040016040528060608152602001600081525090565b6000819050919050565b61137d8161136a565b82525050565b60006020820190506113986000830184611374565b92915050565b600073ffffffffffffffffffffffffffffffffffffffff82169050919050565b60006113c98261139e565b9050919050565b6113d9816113be565b82525050565b60006020820190506113f460008301846113d0565b92915050565b600080fd5b611408816113be565b811461141357600080fd5b50565b600081359050611425816113ff565b92915050565b600060208284031215611441576114406113fa565b5b600061144f84828501611416565b91505092915050565b6000819050919050565b61146b81611458565b811461147657600080fd5b50565b60008135905061148881611462565b92915050565b6114978161136a565b81146114a257600080fd5b50565b6000813590506114b48161148e565b92915050565b600080600080608085870312156114d4576114d36113fa565b5b60006114e287828801611479565b94505060206114f3878288016114a5565b9350506040611504878288016114a5565b9250506060611515878288016114a5565b91505092959194509250565b600082825260208201905092915050565b7f4d7573742062652070726f706f736564206f776e657200000000000000000000600082015250565b6000611568601683611521565b915061157382611532565b602082019050919050565b600060208201905081810360008301526115978161155b565b9050919050565b6000815190506115ad8161148e565b92915050565b6000602082840312156115c9576115c86113fa565b5b60006115d78482850161159e565b91505092915050565b60006040820190506115f560008301856113d0565b6116026020830184611374565b9392505050565b60008115159050919050565b61161e81611609565b811461162957600080fd5b50565b60008151905061163b81611615565b92915050565b600060208284031215611657576116566113fa565b5b60006116658482850161162c565b91505092915050565b7f556e61626c6520746f207472616e736665720000000000000000000000000000600082015250565b60006116a4601283611521565b91506116af8261166e565b602082019050919050565b600060208201905081810360008301526116d381611697565b9050919050565b7f536f75726365206d75737420626520746865206f7261636c65206f662074686560008201527f2072657175657374000000000000000000000000000000000000000000000000602082015250565b6000611736602883611521565b9150611741826116da565b604082019050919050565b6000602082019050818103600083015261176581611729565b9050919050565b60006060820190506117816000830186611374565b61178e6020830185611374565b61179b6040830184611374565b949350505050565b7f4f6e6c792063616c6c61626c65206279206f776e657200000000000000000000600082015250565b60006117d9601683611521565b91506117e4826117a3565b602082019050919050565b60006020820190508181036000830152611808816117cc565b9050919050565b7f43616e6e6f74207472616e7366657220746f2073656c66000000000000000000600082015250565b6000611845601783611521565b91506118508261180f565b602082019050919050565b6000602082019050818103600083015261187481611838565b9050919050565b7f4e487b7100000000000000000000000000000000000000000000000000000000600052601160045260246000fd5b60006118b58261136a565b91506118c08361136a565b92508282019050808211156118d8576118d761187b565b5b92915050565b6118e781611458565b82525050565b60007fffffffff0000000000000000000000000000000000000000000000000000000082169050919050565b611922816118ed565b82525050565b600081519050919050565b600082825260208201905092915050565b60005b83811015611962578082015181840152602081019050611947565b60008484015250505050565b6000601f19601f8301169050919050565b600061198a82611928565b6119948185611933565b93506119a4818560208601611944565b6119ad8161196e565b840191505092915050565b6000610100820190506119ce600083018b6113d0565b6119db602083018a611374565b6119e860408301896118de565b6119f560608301886113d0565b611a026080830187611919565b611a0f60a0830186611374565b611a1c60c0830185611374565b81810360e0830152611a2e818461197f565b90509998505050505050505050565b7f4e487b7100000000000000000000000000000000000000000000000000000000600052601260045260246000fd5b6000611a778261136a565b9150611a828361136a565b925082611a9257611a91611a3d565b5b828206905092915050565b6000611aa88261136a565b9150611ab38361136a565b9250828203905081811115611acb57611aca61187b565b5b92915050565b6000819050919050565b6000611af6611af1611aec8461139e565b611ad1565b61139e565b9050919050565b6000611b0882611adb565b9050919050565b6000611b1a82611afd565b9050919050565b60008160601b9050919050565b6000611b3982611b21565b9050919050565b6000611b4b82611b2e565b9050919050565b611b63611b5e82611b0f565b611b40565b82525050565b6000819050919050565b611b84611b7f8261136a565b611b69565b82525050565b6000611b968285611b52565b601482019150611ba68284611b73565b6020820191508190509392505050565b6000606082019050611bcb60008301866113d0565b611bd86020830185611374565b8181036040830152611bea818461197f565b9050949350505050565b7f756e61626c6520746f207472616e73666572416e6443616c6c20746f206f726160008201527f636c650000000000000000000000000000000000000000000000000000000000602082015250565b6000611c50602383611521565b9150611c5b82611bf4565b604082019050919050565b60006020820190508181036000830152611c7f81611c43565b9050919050565b6000611c918261136a565b9150611c9c8361136a565b9250828202611caa8161136a565b91508282048414831517611cc157611cc061187b565b5b5092915050565b60008160011c9050919050565b6000808291508390505b6001851115611d1f57808604811115611cfb57611cfa61187b565b5b6001851615611d0a5780820291505b8081029050611d1885611cc8565b9450611cdf565b94509492505050565b600082611d385760019050611df4565b81611d465760009050611df4565b8160018114611d5c5760028114611d6657611d95565b6001915050611df4565b60ff841115611d7857611d7761187b565b5b8360020a915084821115611d8f57611d8e61187b565b5b50611df4565b5060208310610133831016604e8410600b8410161715611dca5782820a905083811115611dc557611dc461187b565b5b611df4565b611dd78484846001611cd5565b92509050818404811115611dee57611ded61187b565b5b81810290505b9392505050565b6000611e068261136a565b9150611e118361136a565b9250611e3e7fffffffffffffffffffffffffffffffffffffffffffffffffffffffffffffffff8484611d28565b90509291505056fe68747470733a2f2f6d696e2d6170692e63727970746f636f6d706172652e636f6d2f646174612f70726963653f6673796d3d455448267473796d733d55534468747470733a2f2f6d696e2d6170692e63727970746f636f6d706172652e636f6d2f646174612f70726963653f6673796d3d455448267473796d733d42544368747470733a2f2f6d696e2d6170692e63727970746f636f6d706172652e636f6d2f646174612f70726963653f6673796d3d455448267473796d733d455552a2646970667358221220fd15597009e40208b69752307fd28c967ab35a0bb74595525987dbc65d1d0dfc64736f6c63430008130033",
  "linkReferences": {},
  "deployedLinkReferences": {}
}