{
  "_format": "hh-sol-artifact-1",
  "contractName": "FetchFromArray",
  "sourceName": "contracts/FetchFromArray.sol",
  "abi": [
    {
      "inputs": [
        {
          "internalType": "address",
          "name": "_linkToken",
          "type": "address"
        },
        {
          "internalType": "address",
          "name": "_oracle",
          "type": "address"
        },
        {
          "internalType": "string",
          "name": "_jobId",
          "type": "string"
        }
      ],
      "stateMutability": "nonpayable",
      "type": "constructor"
    },
    {
      "anonymous": false,
      "inputs": [
        {
          "indexed": true,
          "internalType": "bytes32",
          "name": "id",
          "type": "bytes32"
        }
      ],
      "name": "ChainlinkCancelled",
      "type": "event"
    },
    {
      "anonymous": false,
      "inputs": [
        {
          "indexed": true,
          "internalType": "bytes32",
          "name": "id",
          "type": "bytes32"
        }
      ],
      "name": "ChainlinkFulfilled",
      "type": "event"
    },
    {
      "anonymous": false,
      "inputs": [
        {
          "indexed": true,
          "internalType": "bytes32",
          "name": "id",
          "type": "bytes32"
        }
      ],
      "name": "ChainlinkRequested",
      "type": "event"
    },
    {
      "anonymous": false,
      "inputs": [
        {
          "indexed": true,
          "internalType": "address",
          "name": "from",
          "type": "address"
        },
        {
          "indexed": true,
          "internalType": "address",
          "name": "to",
          "type": "address"
        }
      ],
      "name": "OwnershipTransferRequested",
      "type": "event"
    },
    {
      "anonymous": false,
      "inputs": [
        {
          "indexed": true,
          "internalType": "address",
          "name": "from",
          "type": "address"
        },
        {
          "indexed": true,
          "internalType": "address",
          "name": "to",
          "type": "address"
        }
      ],
      "name": "OwnershipTransferred",
      "type": "event"
    },
    {
      "anonymous": false,
      "inputs": [
        {
          "indexed": true,
          "internalType": "bytes32",
          "name": "requestId",
          "type": "bytes32"
        },
        {
          "indexed": false,
          "internalType": "string",
          "name": "id",
          "type": "string"
        }
      ],
      "name": "RequestFirstId",
      "type": "event"
    },
    {
      "inputs": [],
      "name": "acceptOwnership",
      "outputs": [],
      "stateMutability": "nonpayable",
      "type": "function"
    },
    {
      "inputs": [
        {
          "internalType": "bytes32",
          "name": "_requestId",
          "type": "bytes32"
        },
        {
          "internalType": "string",
          "name": "_id",
          "type": "string"
        }
      ],
      "name": "fulfill",
      "outputs": [],
      "stateMutability": "nonpayable",
      "type": "function"
    },
    {
      "inputs": [],
      "name": "id",
      "outputs": [
        {
          "internalType": "string",
          "name": "",
          "type": "string"
        }
      ],
      "stateMutability": "view",
      "type": "function"
    },
    {
      "inputs": [],
      "name": "owner",
      "outputs": [
        {
          "internalType": "address",
          "name": "",
          "type": "address"
        }
      ],
      "stateMutability": "view",
      "type": "function"
    },
    {
      "inputs": [],
      "name": "requestFirstId",
      "outputs": [
        {
          "internalType": "bytes32",
          "name": "requestId",
          "type": "bytes32"
        }
      ],
      "stateMutability": "nonpayable",
      "type": "function"
    },
    {
      "inputs": [
        {
          "internalType": "address",
          "name": "to",
          "type": "address"
        }
      ],
      "name": "transferOwnership",
      "outputs": [],
      "stateMutability": "nonpayable",
      "type": "function"
    },
    {
      "inputs": [],
      "name": "withdrawLink",
      "outputs": [],
      "stateMutability": "nonpayable",
      "type": "function"
    }
  ],
  "bytecode": "0x608060405260016004553480156200001657600080fd5b5060405162002a6138038062002a6183398181016040528101906200003c919062000576565b338060008073ffffffffffffffffffffffffffffffffffffffff168273ffffffffffffffffffffffffffffffffffffffff1603620000b1576040517f08c379a0000000000000000000000000000000000000000000000000000000008152600401620000a89062000652565b60405180910390fd5b81600660006101000a81548173ffffffffffffffffffffffffffffffffffffffff021916908373ffffffffffffffffffffffffffffffffffffffff160217905550600073ffffffffffffffffffffffffffffffffffffffff168173ffffffffffffffffffffffffffffffffffffffff161462000139576200013881620001c560201b60201c565b5b5050506200014d83620002f660201b60201c565b6200015e826200033a60201b60201c565b80604051602001620001719190620006c1565b6040516020818303038152906040526200018b9062000723565b600981905550600a670de0b6b3a76400006001620001aa9190620007cc565b620001b6919062000846565b600a81905550505050620008f0565b3373ffffffffffffffffffffffffffffffffffffffff168173ffffffffffffffffffffffffffffffffffffffff160362000236576040517f08c379a00000000000000000000000000000000000000000000000000000000081526004016200022d90620008ce565b60405180910390fd5b80600760006101000a81548173ffffffffffffffffffffffffffffffffffffffff021916908373ffffffffffffffffffffffffffffffffffffffff1602179055508073ffffffffffffffffffffffffffffffffffffffff16600660009054906101000a900473ffffffffffffffffffffffffffffffffffffffff1673ffffffffffffffffffffffffffffffffffffffff167fed8889f560326eb138920d842192f0eb3dd22b4f139c87a2c57538e05bae127860405160405180910390a350565b80600260006101000a81548173ffffffffffffffffffffffffffffffffffffffff021916908373ffffffffffffffffffffffffffffffffffffffff16021790555050565b80600360006101000a81548173ffffffffffffffffffffffffffffffffffffffff021916908373ffffffffffffffffffffffffffffffffffffffff16021790555050565b6000604051905090565b600080fd5b600080fd5b600073ffffffffffffffffffffffffffffffffffffffff82169050919050565b6000620003bf8262000392565b9050919050565b620003d181620003b2565b8114620003dd57600080fd5b50565b600081519050620003f181620003c6565b92915050565b600080fd5b600080fd5b6000601f19601f8301169050919050565b7f4e487b7100000000000000000000000000000000000000000000000000000000600052604160045260246000fd5b6200044c8262000401565b810181811067ffffffffffffffff821117156200046e576200046d62000412565b5b80604052505050565b6000620004836200037e565b905062000491828262000441565b919050565b600067ffffffffffffffff821115620004b457620004b362000412565b5b620004bf8262000401565b9050602081019050919050565b60005b83811015620004ec578082015181840152602081019050620004cf565b60008484015250505050565b60006200050f620005098462000496565b62000477565b9050828152602081018484840111156200052e576200052d620003fc565b5b6200053b848285620004cc565b509392505050565b600082601f8301126200055b576200055a620003f7565b5b81516200056d848260208601620004f8565b91505092915050565b60008060006060848603121562000592576200059162000388565b5b6000620005a286828701620003e0565b9350506020620005b586828701620003e0565b925050604084015167ffffffffffffffff811115620005d957620005d86200038d565b5b620005e78682870162000543565b9150509250925092565b600082825260208201905092915050565b7f43616e6e6f7420736574206f776e657220746f207a65726f0000000000000000600082015250565b60006200063a601883620005f1565b9150620006478262000602565b602082019050919050565b600060208201905081810360008301526200066d816200062b565b9050919050565b600081519050919050565b600081905092915050565b6000620006978262000674565b620006a381856200067f565b9350620006b5818560208601620004cc565b80840191505092915050565b6000620006cf82846200068a565b915081905092915050565b600081519050919050565b6000819050602082019050919050565b6000819050919050565b60006200070d8251620006f5565b80915050919050565b600082821b905092915050565b60006200073082620006da565b826200073c84620006e5565b90506200074981620006ff565b925060208210156200078c57620007877fffffffffffffffffffffffffffffffffffffffffffffffffffffffffffffffff8360200360080262000716565b831692505b5050919050565b6000819050919050565b7f4e487b7100000000000000000000000000000000000000000000000000000000600052601160045260246000fd5b6000620007d98262000793565b9150620007e68362000793565b9250828202620007f68162000793565b9150828204841483151762000810576200080f6200079d565b5b5092915050565b7f4e487b7100000000000000000000000000000000000000000000000000000000600052601260045260246000fd5b6000620008538262000793565b9150620008608362000793565b92508262000873576200087262000817565b5b828204905092915050565b7f43616e6e6f74207472616e7366657220746f2073656c66000000000000000000600082015250565b6000620008b6601783620005f1565b9150620008c3826200087e565b602082019050919050565b60006020820190508181036000830152620008e981620008a7565b9050919050565b61216180620009006000396000f3fe608060405234801561001057600080fd5b506004361061007d5760003560e01c80638da5cb5b1161005b5780638da5cb5b146100c65780638dc654a2146100e4578063af640d0f146100ee578063f2fde38b1461010c5761007d565b806309323a6a1461008257806337441996146100a057806379ba5097146100bc575b600080fd5b61008a610128565b60405161009791906111f7565b60405180910390f35b6100ba60048036038101906100b59190611398565b610234565b005b6100c4610386565b005b6100ce61051d565b6040516100db9190611435565b60405180910390f35b6100ec610547565b005b6100f6610694565b60405161010391906114cf565b60405180910390f35b6101266004803603810190610121919061151d565b610722565b005b60008061013f60095430633744199660e01b610736565b90506101a36040518060400160405280600381526020017f67657400000000000000000000000000000000000000000000000000000000008152506040518060800160405280604a81526020016120e2604a9139836107679092919063ffffffff16565b6102226040518060400160405280600481526020017f70617468000000000000000000000000000000000000000000000000000000008152506040518060400160405280600481526020017f302c696400000000000000000000000000000000000000000000000000000000815250836107679092919063ffffffff16565b61022e81600a5461079a565b91505090565b816005600082815260200190815260200160002060009054906101000a900473ffffffffffffffffffffffffffffffffffffffff1673ffffffffffffffffffffffffffffffffffffffff163373ffffffffffffffffffffffffffffffffffffffff16146102d6576040517f08c379a00000000000000000000000000000000000000000000000000000000081526004016102cd906115bc565b60405180910390fd5b6005600082815260200190815260200160002060006101000a81549073ffffffffffffffffffffffffffffffffffffffff0219169055807f7cc135e0cebb02c3480ae5d74d377283180a2601f8f644edf7987b009316c63a60405160405180910390a2827f5b72487f892feba565865a27f191da8fb1e852651bd966bfb0a41fc272c54aea8360405161036991906114cf565b60405180910390a2816008908161038091906117f2565b50505050565b600760009054906101000a900473ffffffffffffffffffffffffffffffffffffffff1673ffffffffffffffffffffffffffffffffffffffff163373ffffffffffffffffffffffffffffffffffffffff1614610416576040517f08c379a000000000000000000000000000000000000000000000000000000000815260040161040d90611910565b60405180910390fd5b6000600660009054906101000a900473ffffffffffffffffffffffffffffffffffffffff16905033600660006101000a81548173ffffffffffffffffffffffffffffffffffffffff021916908373ffffffffffffffffffffffffffffffffffffffff1602179055506000600760006101000a81548173ffffffffffffffffffffffffffffffffffffffff021916908373ffffffffffffffffffffffffffffffffffffffff1602179055503373ffffffffffffffffffffffffffffffffffffffff168173ffffffffffffffffffffffffffffffffffffffff167f8be0079c531659141344cd1fd0a4f28419497f9722a3daafe3b4186f6b6457e060405160405180910390a350565b6000600660009054906101000a900473ffffffffffffffffffffffffffffffffffffffff16905090565b61054f6107d1565b6000610559610863565b90508073ffffffffffffffffffffffffffffffffffffffff1663a9059cbb338373ffffffffffffffffffffffffffffffffffffffff166370a08231306040518263ffffffff1660e01b81526004016105b19190611435565b602060405180830381865afa1580156105ce573d6000803e3d6000fd5b505050506040513d601f19601f820116820180604052508101906105f2919061195c565b6040518363ffffffff1660e01b815260040161060f929190611998565b6020604051808303816000875af115801561062e573d6000803e3d6000fd5b505050506040513d601f19601f8201168201806040525081019061065291906119f9565b610691576040517f08c379a000000000000000000000000000000000000000000000000000000000815260040161068890611a72565b60405180910390fd5b50565b600880546106a19061160b565b80601f01602080910402602001604051908101604052809291908181526020018280546106cd9061160b565b801561071a5780601f106106ef5761010080835404028352916020019161071a565b820191906000526020600020905b8154815290600101906020018083116106fd57829003601f168201915b505050505081565b61072a6107d1565b6107338161088d565b50565b61073e611157565b610746611157565b61075d858585846109bb909392919063ffffffff16565b9150509392505050565b61077e828460800151610a6b90919063ffffffff16565b610795818460800151610a6b90919063ffffffff16565b505050565b60006107c9600360009054906101000a900473ffffffffffffffffffffffffffffffffffffffff168484610a90565b905092915050565b600660009054906101000a900473ffffffffffffffffffffffffffffffffffffffff1673ffffffffffffffffffffffffffffffffffffffff163373ffffffffffffffffffffffffffffffffffffffff1614610861576040517f08c379a000000000000000000000000000000000000000000000000000000000815260040161085890611ade565b60405180910390fd5b565b6000600260009054906101000a900473ffffffffffffffffffffffffffffffffffffffff16905090565b3373ffffffffffffffffffffffffffffffffffffffff168173ffffffffffffffffffffffffffffffffffffffff16036108fb576040517f08c379a00000000000000000000000000000000000000000000000000000000081526004016108f290611b4a565b60405180910390fd5b80600760006101000a81548173ffffffffffffffffffffffffffffffffffffffff021916908373ffffffffffffffffffffffffffffffffffffffff1602179055508073ffffffffffffffffffffffffffffffffffffffff16600660009054906101000a900473ffffffffffffffffffffffffffffffffffffffff1673ffffffffffffffffffffffffffffffffffffffff167fed8889f560326eb138920d842192f0eb3dd22b4f139c87a2c57538e05bae127860405160405180910390a350565b6109c3611157565b6109d38560800151610100610b5c565b508385600001818152505082856020019073ffffffffffffffffffffffffffffffffffffffff16908173ffffffffffffffffffffffffffffffffffffffff16815250508185604001907bffffffffffffffffffffffffffffffffffffffffffffffffffffffff191690817bffffffffffffffffffffffffffffffffffffffffffffffffffffffff191681525050849050949350505050565b610a788260038351610bc6565b610a8b8183610d4b90919063ffffffff16565b505050565b6000806004549050600181610aa59190611b99565b6004819055506000634042994660e01b60008087600001513089604001518760018c6080015160000151604051602401610ae6989796959493929190611c5d565b604051602081830303815290604052907bffffffffffffffffffffffffffffffffffffffffffffffffffffffff19166020820180517bffffffffffffffffffffffffffffffffffffffffffffffffffffffff83818316178352505050509050610b5186838684610d6d565b925050509392505050565b610b646111c4565b6000602083610b739190611d11565b14610b9f57602082610b859190611d11565b6020610b919190611d42565b82610b9c9190611b99565b91505b81836020018181525050604051808452600081528281016020016040525082905092915050565b60178167ffffffffffffffff1611610bfd57610bf78160058460ff16901b60ff161784610f0290919063ffffffff16565b50610d46565b60ff8167ffffffffffffffff1611610c5357610c2c601860058460ff16901b1784610f0290919063ffffffff16565b50610c4d8167ffffffffffffffff16600185610f229092919063ffffffff16565b50610d45565b61ffff8167ffffffffffffffff1611610caa57610c83601960058460ff16901b1784610f0290919063ffffffff16565b50610ca48167ffffffffffffffff16600285610f229092919063ffffffff16565b50610d44565b63ffffffff8167ffffffffffffffff1611610d0357610cdc601a60058460ff16901b1784610f0290919063ffffffff16565b50610cfd8167ffffffffffffffff16600485610f229092919063ffffffff16565b50610d43565b610d20601b60058460ff16901b1784610f0290919063ffffffff16565b50610d418167ffffffffffffffff16600885610f229092919063ffffffff16565b505b5b5b5b505050565b610d536111c4565b610d6583846000015151848551610f44565b905092915050565b60003084604051602001610d82929190611e25565b604051602081830303815290604052805190602001209050846005600083815260200190815260200160002060006101000a81548173ffffffffffffffffffffffffffffffffffffffff021916908373ffffffffffffffffffffffffffffffffffffffff160217905550807fb5e6e01e79f91267dc17b4e6314d5d4d03593d2ceee0fbb452b750bd70ea5af960405160405180910390a2600260009054906101000a900473ffffffffffffffffffffffffffffffffffffffff1673ffffffffffffffffffffffffffffffffffffffff16634000aea08685856040518463ffffffff1660e01b8152600401610e7893929190611e51565b6020604051808303816000875af1158015610e97573d6000803e3d6000fd5b505050506040513d601f19601f82011682018060405250810190610ebb91906119f9565b610efa576040517f08c379a0000000000000000000000000000000000000000000000000000000008152600401610ef190611f01565b60405180910390fd5b949350505050565b610f0a6111c4565b610f1a8384600001515184611033565b905092915050565b610f2a6111c4565b610f3b848560000151518585611089565b90509392505050565b610f4c6111c4565b8251821115610f5a57600080fd5b84602001518285610f6b9190611b99565b1115610fa057610f9f856002610f9088602001518887610f8b9190611b99565b611117565b610f9a9190611f21565b611133565b5b600080865180518760208301019350808887011115610fbf5787860182525b60208701925050505b602084106110065780518252602082610fe19190611b99565b9150602081610ff09190611b99565b9050602084610fff9190611d42565b9350610fc8565b60006001856020036101000a03905080198251168184511681811785525050508692505050949350505050565b61103b6111c4565b8360200151831061106157611060846002866020015161105b9190611f21565b611133565b5b8351805160208583010184815381860361107c576001820183525b5050508390509392505050565b6110916111c4565b846020015184836110a29190611b99565b11156110ca576110c985600286856110ba9190611b99565b6110c49190611f21565b611133565b5b60006001836101006110dc9190612096565b6110e69190611d42565b905085518386820101858319825116178152815185880111156111095784870182525b505085915050949350505050565b6000818311156111295782905061112d565b8190505b92915050565b6000826000015190506111468383610b5c565b506111518382610d4b565b50505050565b6040518060a0016040528060008019168152602001600073ffffffffffffffffffffffffffffffffffffffff16815260200160007bffffffffffffffffffffffffffffffffffffffffffffffffffffffff19168152602001600081526020016111be6111c4565b81525090565b604051806040016040528060608152602001600081525090565b6000819050919050565b6111f1816111de565b82525050565b600060208201905061120c60008301846111e8565b92915050565b6000604051905090565b600080fd5b600080fd5b61122f816111de565b811461123a57600080fd5b50565b60008135905061124c81611226565b92915050565b600080fd5b600080fd5b6000601f19601f8301169050919050565b7f4e487b7100000000000000000000000000000000000000000000000000000000600052604160045260246000fd5b6112a58261125c565b810181811067ffffffffffffffff821117156112c4576112c361126d565b5b80604052505050565b60006112d7611212565b90506112e3828261129c565b919050565b600067ffffffffffffffff8211156113035761130261126d565b5b61130c8261125c565b9050602081019050919050565b82818337600083830152505050565b600061133b611336846112e8565b6112cd565b90508281526020810184848401111561135757611356611257565b5b611362848285611319565b509392505050565b600082601f83011261137f5761137e611252565b5b813561138f848260208601611328565b91505092915050565b600080604083850312156113af576113ae61121c565b5b60006113bd8582860161123d565b925050602083013567ffffffffffffffff8111156113de576113dd611221565b5b6113ea8582860161136a565b9150509250929050565b600073ffffffffffffffffffffffffffffffffffffffff82169050919050565b600061141f826113f4565b9050919050565b61142f81611414565b82525050565b600060208201905061144a6000830184611426565b92915050565b600081519050919050565b600082825260208201905092915050565b60005b8381101561148a57808201518184015260208101905061146f565b60008484015250505050565b60006114a182611450565b6114ab818561145b565b93506114bb81856020860161146c565b6114c48161125c565b840191505092915050565b600060208201905081810360008301526114e98184611496565b905092915050565b6114fa81611414565b811461150557600080fd5b50565b600081359050611517816114f1565b92915050565b6000602082840312156115335761153261121c565b5b600061154184828501611508565b91505092915050565b7f536f75726365206d75737420626520746865206f7261636c65206f662074686560008201527f2072657175657374000000000000000000000000000000000000000000000000602082015250565b60006115a660288361145b565b91506115b18261154a565b604082019050919050565b600060208201905081810360008301526115d581611599565b9050919050565b7f4e487b7100000000000000000000000000000000000000000000000000000000600052602260045260246000fd5b6000600282049050600182168061162357607f821691505b602082108103611636576116356115dc565b5b50919050565b60008190508160005260206000209050919050565b60006020601f8301049050919050565b600082821b905092915050565b60006008830261169e7fffffffffffffffffffffffffffffffffffffffffffffffffffffffffffffffff82611661565b6116a88683611661565b95508019841693508086168417925050509392505050565b6000819050919050565b6000819050919050565b60006116ef6116ea6116e5846116c0565b6116ca565b6116c0565b9050919050565b6000819050919050565b611709836116d4565b61171d611715826116f6565b84845461166e565b825550505050565b600090565b611732611725565b61173d818484611700565b505050565b5b818110156117615761175660008261172a565b600181019050611743565b5050565b601f8211156117a6576117778161163c565b61178084611651565b8101602085101561178f578190505b6117a361179b85611651565b830182611742565b50505b505050565b600082821c905092915050565b60006117c9600019846008026117ab565b1980831691505092915050565b60006117e283836117b8565b9150826002028217905092915050565b6117fb82611450565b67ffffffffffffffff8111156118145761181361126d565b5b61181e825461160b565b611829828285611765565b600060209050601f83116001811461185c576000841561184a578287015190505b61185485826117d6565b8655506118bc565b601f19841661186a8661163c565b60005b828110156118925784890151825560018201915060208501945060208101905061186d565b868310156118af57848901516118ab601f8916826117b8565b8355505b6001600288020188555050505b505050505050565b7f4d7573742062652070726f706f736564206f776e657200000000000000000000600082015250565b60006118fa60168361145b565b9150611905826118c4565b602082019050919050565b60006020820190508181036000830152611929816118ed565b9050919050565b611939816116c0565b811461194457600080fd5b50565b60008151905061195681611930565b92915050565b6000602082840312156119725761197161121c565b5b600061198084828501611947565b91505092915050565b611992816116c0565b82525050565b60006040820190506119ad6000830185611426565b6119ba6020830184611989565b9392505050565b60008115159050919050565b6119d6816119c1565b81146119e157600080fd5b50565b6000815190506119f3816119cd565b92915050565b600060208284031215611a0f57611a0e61121c565b5b6000611a1d848285016119e4565b91505092915050565b7f556e61626c6520746f207472616e736665720000000000000000000000000000600082015250565b6000611a5c60128361145b565b9150611a6782611a26565b602082019050919050565b60006020820190508181036000830152611a8b81611a4f565b9050919050565b7f4f6e6c792063616c6c61626c65206279206f776e657200000000000000000000600082015250565b6000611ac860168361145b565b9150611ad382611a92565b602082019050919050565b60006020820190508181036000830152611af781611abb565b9050919050565b7f43616e6e6f74207472616e7366657220746f2073656c66000000000000000000600082015250565b6000611b3460178361145b565b9150611b3f82611afe565b602082019050919050565b60006020820190508181036000830152611b6381611b27565b9050919050565b7f4e487b7100000000000000000000000000000000000000000000000000000000600052601160045260246000fd5b6000611ba4826116c0565b9150611baf836116c0565b9250828201905080821115611bc757611bc6611b6a565b5b92915050565b60007fffffffff0000000000000000000000000000000000000000000000000000000082169050919050565b611c0281611bcd565b82525050565b600081519050919050565b600082825260208201905092915050565b6000611c2f82611c08565b611c398185611c13565b9350611c4981856020860161146c565b611c528161125c565b840191505092915050565b600061010082019050611c73600083018b611426565b611c80602083018a611989565b611c8d60408301896111e8565b611c9a6060830188611426565b611ca76080830187611bf9565b611cb460a0830186611989565b611cc160c0830185611989565b81810360e0830152611cd38184611c24565b90509998505050505050505050565b7f4e487b7100000000000000000000000000000000000000000000000000000000600052601260045260246000fd5b6000611d1c826116c0565b9150611d27836116c0565b925082611d3757611d36611ce2565b5b828206905092915050565b6000611d4d826116c0565b9150611d58836116c0565b9250828203905081811115611d7057611d6f611b6a565b5b92915050565b6000611d91611d8c611d87846113f4565b6116ca565b6113f4565b9050919050565b6000611da382611d76565b9050919050565b6000611db582611d98565b9050919050565b60008160601b9050919050565b6000611dd482611dbc565b9050919050565b6000611de682611dc9565b9050919050565b611dfe611df982611daa565b611ddb565b82525050565b6000819050919050565b611e1f611e1a826116c0565b611e04565b82525050565b6000611e318285611ded565b601482019150611e418284611e0e565b6020820191508190509392505050565b6000606082019050611e666000830186611426565b611e736020830185611989565b8181036040830152611e858184611c24565b9050949350505050565b7f756e61626c6520746f207472616e73666572416e6443616c6c20746f206f726160008201527f636c650000000000000000000000000000000000000000000000000000000000602082015250565b6000611eeb60238361145b565b9150611ef682611e8f565b604082019050919050565b60006020820190508181036000830152611f1a81611ede565b9050919050565b6000611f2c826116c0565b9150611f37836116c0565b9250828202611f45816116c0565b91508282048414831517611f5c57611f5b611b6a565b5b5092915050565b60008160011c9050919050565b6000808291508390505b6001851115611fba57808604811115611f9657611f95611b6a565b5b6001851615611fa55780820291505b8081029050611fb385611f63565b9450611f7a565b94509492505050565b600082611fd3576001905061208f565b81611fe1576000905061208f565b8160018114611ff7576002811461200157612030565b600191505061208f565b60ff84111561201357612012611b6a565b5b8360020a91508482111561202a57612029611b6a565b5b5061208f565b5060208310610133831016604e8410600b84101617156120655782820a9050838111156120605761205f611b6a565b5b61208f565b6120728484846001611f70565b9250905081840481111561208957612088611b6a565b5b81810290505b9392505050565b60006120a1826116c0565b91506120ac836116c0565b92506120d97fffffffffffffffffffffffffffffffffffffffffffffffffffffffffffffffff8484611fc3565b90509291505056fe68747470733a2f2f6170692e636f696e6765636b6f2e636f6d2f6170692f76332f636f696e732f6d61726b6574733f76735f63757272656e63793d757364267065725f706167653d3130a2646970667358221220fefd96d72d1faf2cb2308c17cf6cc143d7849385bca7687427bcf9f2bbc41c0d64736f6c63430008130033",
  "linkReferences": {},
  "deployedLinkReferences": {}
}